{
  "abi": [
    {
      "inputs": [
        {
          "internalType": "address",
          "name": "_priceFeed",
          "type": "address"
        }
      ],
      "stateMutability": "nonpayable",
      "type": "constructor"
    },
    {
      "inputs": [
        {
          "internalType": "uint256",
          "name": "ethAmount",
          "type": "uint256"
        }
      ],
      "name": "EthToUSD",
      "outputs": [
        {
          "internalType": "uint256",
          "name": "",
          "type": "uint256"
        }
      ],
      "stateMutability": "view",
      "type": "function"
    },
    {
      "inputs": [
        {
          "internalType": "uint256",
          "name": "USD",
          "type": "uint256"
        }
      ],
      "name": "USDToWei",
      "outputs": [
        {
          "internalType": "uint256",
          "name": "",
          "type": "uint256"
        }
      ],
      "stateMutability": "view",
      "type": "function"
    },
    {
      "inputs": [
        {
          "internalType": "address",
          "name": "",
          "type": "address"
        }
      ],
      "name": "addressToPhaestus",
      "outputs": [
        {
          "internalType": "address payable",
          "name": "phaestusAddress",
          "type": "address"
        },
        {
          "internalType": "uint8",
          "name": "numCPUs",
          "type": "uint8"
        },
        {
          "internalType": "uint8",
          "name": "numGPUs",
          "type": "uint8"
        },
        {
          "internalType": "uint256",
          "name": "endTime",
          "type": "uint256"
        },
        {
          "internalType": "uint256",
          "name": "rate",
          "type": "uint256"
        },
        {
          "internalType": "enum TorpedoFactory.gpuType",
          "name": "gpuType",
          "type": "uint8"
        },
        {
          "internalType": "enum TorpedoFactory.serviceType",
          "name": "serviceType",
          "type": "uint8"
        },
        {
          "internalType": "uint256",
          "name": "diskSpace",
          "type": "uint256"
        },
        {
          "internalType": "uint256",
          "name": "RAM",
          "type": "uint256"
        }
      ],
      "stateMutability": "view",
      "type": "function"
    },
    {
      "inputs": [
        {
          "components": [
            {
              "internalType": "uint8",
              "name": "numCPUs",
              "type": "uint8"
            },
            {
              "internalType": "uint8",
              "name": "numGPUs",
              "type": "uint8"
            },
            {
              "internalType": "uint16",
              "name": "totalTime",
              "type": "uint16"
            },
            {
              "internalType": "enum TorpedoFactory.gpuType",
              "name": "gpuType",
              "type": "uint8"
            },
            {
              "internalType": "enum TorpedoFactory.serviceType",
              "name": "serviceType",
              "type": "uint8"
            },
            {
              "internalType": "uint256",
              "name": "diskSpace",
              "type": "uint256"
            },
            {
              "internalType": "uint256",
              "name": "RAM",
              "type": "uint256"
            }
          ],
          "internalType": "struct TorpedoFactory.SessionRequest",
          "name": "sessionRequest",
          "type": "tuple"
        }
      ],
      "name": "calculateUSDCost",
      "outputs": [
        {
          "internalType": "uint256",
          "name": "",
          "type": "uint256"
        }
      ],
      "stateMutability": "view",
      "type": "function"
    },
    {
      "inputs": [
        {
          "components": [
            {
              "internalType": "uint8",
              "name": "numCPUs",
              "type": "uint8"
            },
            {
              "internalType": "uint8",
              "name": "numGPUs",
              "type": "uint8"
            },
            {
              "internalType": "uint16",
              "name": "totalTime",
              "type": "uint16"
            },
            {
              "internalType": "enum TorpedoFactory.gpuType",
              "name": "gpuType",
              "type": "uint8"
            },
            {
              "internalType": "enum TorpedoFactory.serviceType",
              "name": "serviceType",
              "type": "uint8"
            },
            {
              "internalType": "uint256",
              "name": "diskSpace",
              "type": "uint256"
            },
            {
              "internalType": "uint256",
              "name": "RAM",
              "type": "uint256"
            }
          ],
          "internalType": "struct TorpedoFactory.SessionRequest",
          "name": "sessionRequest",
          "type": "tuple"
        }
      ],
      "name": "calculateWeiCost",
      "outputs": [
        {
          "internalType": "uint256",
          "name": "",
          "type": "uint256"
        }
      ],
      "stateMutability": "view",
      "type": "function"
    },
    {
      "inputs": [],
      "name": "checkStatusOfPhaestus",
      "outputs": [
        {
          "internalType": "bool",
          "name": "",
          "type": "bool"
        }
      ],
      "stateMutability": "view",
      "type": "function"
    },
    {
      "inputs": [
        {
          "components": [
            {
              "internalType": "uint8",
              "name": "numCPUs",
              "type": "uint8"
            },
            {
              "internalType": "uint8",
              "name": "numGPUs",
              "type": "uint8"
            },
            {
              "internalType": "uint16",
              "name": "totalTime",
              "type": "uint16"
            },
            {
              "internalType": "enum TorpedoFactory.gpuType",
              "name": "gpuType",
              "type": "uint8"
            },
            {
              "internalType": "enum TorpedoFactory.serviceType",
              "name": "serviceType",
              "type": "uint8"
            },
            {
              "internalType": "uint256",
              "name": "diskSpace",
              "type": "uint256"
            },
            {
              "internalType": "uint256",
              "name": "RAM",
              "type": "uint256"
            }
          ],
          "internalType": "struct TorpedoFactory.SessionRequest",
          "name": "sessionRequest",
          "type": "tuple"
        }
      ],
      "name": "createSession",
      "outputs": [
        {
          "internalType": "address",
          "name": "",
          "type": "address"
        }
      ],
      "stateMutability": "payable",
      "type": "function"
    },
    {
      "inputs": [],
      "name": "deductResources",
      "outputs": [],
      "stateMutability": "nonpayable",
      "type": "function"
    },
    {
      "inputs": [
        {
          "internalType": "uint256",
          "name": "addedTime",
          "type": "uint256"
        }
      ],
      "name": "extendSession",
      "outputs": [],
      "stateMutability": "payable",
      "type": "function"
    },
    {
      "inputs": [],
      "name": "getClientSessionAddress",
      "outputs": [
        {
          "internalType": "address",
          "name": "",
          "type": "address"
        }
      ],
      "stateMutability": "view",
      "type": "function"
    },
    {
      "inputs": [],
      "name": "getNow",
      "outputs": [
        {
          "internalType": "uint256",
          "name": "",
          "type": "uint256"
        }
      ],
      "stateMutability": "view",
      "type": "function"
    },
    {
      "inputs": [],
      "name": "getPoolTVL",
      "outputs": [
        {
          "internalType": "uint256",
          "name": "",
          "type": "uint256"
        },
        {
          "internalType": "uint256",
          "name": "",
          "type": "uint256"
        },
        {
          "internalType": "uint256",
          "name": "",
          "type": "uint256"
        },
        {
          "internalType": "uint256",
          "name": "",
          "type": "uint256"
        },
        {
          "internalType": "uint256",
          "name": "",
          "type": "uint256"
        }
      ],
      "stateMutability": "view",
      "type": "function"
    },
    {
      "inputs": [],
      "name": "getRatePrecision",
      "outputs": [
        {
          "internalType": "uint256",
          "name": "",
          "type": "uint256"
        }
      ],
      "stateMutability": "view",
      "type": "function"
    },
    {
      "inputs": [],
      "name": "getSessionAddress",
      "outputs": [
        {
          "internalType": "address",
          "name": "",
          "type": "address"
        }
      ],
      "stateMutability": "view",
      "type": "function"
    },
    {
      "inputs": [],
      "name": "owner",
      "outputs": [
        {
          "internalType": "address",
          "name": "",
          "type": "address"
        }
      ],
      "stateMutability": "view",
      "type": "function"
    },
    {
      "inputs": [
        {
          "internalType": "uint256",
          "name": "",
          "type": "uint256"
        }
      ],
      "name": "phaestusNodes",
      "outputs": [
        {
          "internalType": "address payable",
          "name": "phaestusAddress",
          "type": "address"
        },
        {
          "internalType": "uint8",
          "name": "numCPUs",
          "type": "uint8"
        },
        {
          "internalType": "uint8",
          "name": "numGPUs",
          "type": "uint8"
        },
        {
          "internalType": "uint256",
          "name": "endTime",
          "type": "uint256"
        },
        {
          "internalType": "uint256",
          "name": "rate",
          "type": "uint256"
        },
        {
          "internalType": "enum TorpedoFactory.gpuType",
          "name": "gpuType",
          "type": "uint8"
        },
        {
          "internalType": "enum TorpedoFactory.serviceType",
          "name": "serviceType",
          "type": "uint8"
        },
        {
          "internalType": "uint256",
          "name": "diskSpace",
          "type": "uint256"
        },
        {
          "internalType": "uint256",
          "name": "RAM",
          "type": "uint256"
        }
      ],
      "stateMutability": "view",
      "type": "function"
    },
    {
      "inputs": [
        {
          "internalType": "address",
          "name": "",
          "type": "address"
        }
      ],
      "name": "phaestusToActivate",
      "outputs": [
        {
          "internalType": "bool",
          "name": "status",
          "type": "bool"
        },
        {
          "internalType": "address",
          "name": "sessionAddress",
          "type": "address"
        }
      ],
      "stateMutability": "view",
      "type": "function"
    },
    {
      "inputs": [],
      "name": "priceFeed",
      "outputs": [
        {
          "internalType": "contract AggregatorV3Interface",
          "name": "",
          "type": "address"
        }
      ],
      "stateMutability": "view",
      "type": "function"
    },
    {
      "inputs": [
        {
          "internalType": "uint8",
          "name": "numCPUs",
          "type": "uint8"
        },
        {
          "internalType": "uint8",
          "name": "numGPUs",
          "type": "uint8"
        },
        {
          "internalType": "uint256",
          "name": "endTime",
          "type": "uint256"
        },
        {
          "internalType": "uint256",
          "name": "rate",
          "type": "uint256"
        },
        {
          "internalType": "enum TorpedoFactory.gpuType",
          "name": "_gpuType",
          "type": "uint8"
        },
        {
          "internalType": "enum TorpedoFactory.serviceType",
          "name": "_serviceType",
          "type": "uint8"
        },
        {
          "internalType": "uint256",
          "name": "diskSpace",
          "type": "uint256"
        },
        {
          "internalType": "uint256",
          "name": "RAM",
          "type": "uint256"
        }
      ],
      "name": "registerPhaestus",
      "outputs": [],
      "stateMutability": "nonpayable",
      "type": "function"
    },
    {
      "inputs": [],
      "name": "releaseResources",
      "outputs": [],
      "stateMutability": "nonpayable",
      "type": "function"
    },
    {
      "inputs": [
        {
          "internalType": "address",
          "name": "phaestusNode",
          "type": "address"
        }
      ],
      "name": "toggle",
      "outputs": [],
      "stateMutability": "nonpayable",
      "type": "function"
    },
    {
      "inputs": [],
      "name": "viewAllPhaestus",
      "outputs": [
        {
          "components": [
            {
              "internalType": "address payable",
              "name": "phaestusAddress",
              "type": "address"
            },
            {
              "internalType": "uint8",
              "name": "numCPUs",
              "type": "uint8"
            },
            {
              "internalType": "uint8",
              "name": "numGPUs",
              "type": "uint8"
            },
            {
              "internalType": "uint256",
              "name": "endTime",
              "type": "uint256"
            },
            {
              "internalType": "uint256",
              "name": "rate",
              "type": "uint256"
            },
            {
              "internalType": "enum TorpedoFactory.gpuType",
              "name": "gpuType",
              "type": "uint8"
            },
            {
              "internalType": "enum TorpedoFactory.serviceType",
              "name": "serviceType",
              "type": "uint8"
            },
            {
              "internalType": "uint256",
              "name": "diskSpace",
              "type": "uint256"
            },
            {
              "internalType": "uint256",
              "name": "RAM",
              "type": "uint256"
            }
          ],
          "internalType": "struct TorpedoFactory.Phaestus[]",
          "name": "",
          "type": "tuple[]"
        }
      ],
      "stateMutability": "view",
      "type": "function"
    },
    {
      "inputs": [
        {
          "internalType": "uint256",
          "name": "index",
          "type": "uint256"
        }
      ],
      "name": "viewPhaestus",
      "outputs": [
        {
          "components": [
            {
              "internalType": "address payable",
              "name": "phaestusAddress",
              "type": "address"
            },
            {
              "internalType": "uint8",
              "name": "numCPUs",
              "type": "uint8"
            },
            {
              "internalType": "uint8",
              "name": "numGPUs",
              "type": "uint8"
            },
            {
              "internalType": "uint256",
              "name": "endTime",
              "type": "uint256"
            },
            {
              "internalType": "uint256",
              "name": "rate",
              "type": "uint256"
            },
            {
              "internalType": "enum TorpedoFactory.gpuType",
              "name": "gpuType",
              "type": "uint8"
            },
            {
              "internalType": "enum TorpedoFactory.serviceType",
              "name": "serviceType",
              "type": "uint8"
            },
            {
              "internalType": "uint256",
              "name": "diskSpace",
              "type": "uint256"
            },
            {
              "internalType": "uint256",
              "name": "RAM",
              "type": "uint256"
            }
          ],
          "internalType": "struct TorpedoFactory.Phaestus",
          "name": "",
          "type": "tuple"
        }
      ],
      "stateMutability": "view",
      "type": "function"
    }
  ],
  "bytecode": "608060405260646001556509184e72a0006002553480156200002057600080fd5b5060405162003dd338038062003dd3833981016040819052620000439162000072565b600480546001600160a01b039092166001600160a01b03199283161790556000805490911633179055620000a4565b6000602082840312156200008557600080fd5b81516001600160a01b03811681146200009d57600080fd5b9392505050565b613d1f80620000b46000396000f3fe6080604052600436106200015b5760003560e01c8063741bef1a11620000c5578063bc9f797f1162000078578063bc9f797f14620004d0578063c3b23d7514620004f5578063c5383ef11462000527578063c6bc6846146200054e578063cd94b43d146200057b578063f7e67dbc14620005a057600080fd5b8063741bef1a14620004235780638a2b13a714620004455780638a7cadf1146200045c5780638da5cb5b1462000474578063a7143ccf1462000496578063bbe4fd5014620004bb57600080fd5b806336d2107d116200011e57806336d2107d14620002a45780633e2f8ff71462000308578063465e049914620003545780634d9fdd3e1462000379578063588f9acc14620003ad57806373595502146200040c57600080fd5b8063228eff421462000160578063251d10b014620001fe57806326be90bf14620002175780632c8f85f414620002585780632d9131401462000270575b600080fd5b3480156200016d57600080fd5b50620001de6200017f36600462001fe5565b6006602052600090815260409020805460018201546002830154600384015460048501546005909501546001600160a01b0385169560ff600160a01b8704811696600160a81b9004811695949380821693610100909104909116919089565b604051620001f59998979695949392919062002049565b60405180910390f35b620002156200020f366004620020b6565b620005c5565b005b3480156200022457600080fd5b506200022f6200089a565b604080519586526020860194909452928401919091526060830152608082015260a001620001f5565b3480156200026557600080fd5b506200021562000a6c565b3480156200027d57600080fd5b50620002956200028f366004620020b6565b62000d38565b604051908152602001620001f5565b348015620002b157600080fd5b50620002e8620002c336600462001fe5565b60076020526000908152604090205460ff81169061010090046001600160a01b031682565b6040805192151583526001600160a01b03909116602083015201620001f5565b3480156200031557600080fd5b506200033b3360009081526007602052604090205461010090046001600160a01b031690565b6040516001600160a01b039091168152602001620001f5565b3480156200036157600080fd5b50620001de62000373366004620020b6565b62000d97565b3480156200038657600080fd5b506200039e62000398366004620020b6565b62000e07565b604051620001f5919062002155565b348015620003ba57600080fd5b5062000215620003cc36600462001fe5565b6001600160a01b03166000908152600760205260409020805460ff1961010033029081166001600160a81b031983161760ff918216919092161715179055565b3480156200041957600080fd5b5060015462000295565b3480156200043057600080fd5b506004546200033b906001600160a01b031681565b6200033b62000456366004620021bc565b62000f63565b3480156200046957600080fd5b50620002156200110c565b3480156200048157600080fd5b506000546200033b906001600160a01b031681565b348015620004a357600080fd5b5062000295620004b5366004620020b6565b620013cf565b348015620004c857600080fd5b504262000295565b348015620004dd57600080fd5b5062000215620004ef3660046200227b565b62001409565b3480156200050257600080fd5b503360009081526007602052604090205460ff166040519015158152602001620001f5565b3480156200053457600080fd5b506200053f62001812565b604051620001f5919062002307565b3480156200055b57600080fd5b50336000908152600560205260409020546001600160a01b03166200033b565b3480156200058857600080fd5b50620002956200059a366004620021bc565b62001947565b348015620005ad57600080fd5b5062000295620005bf366004620021bc565b62001996565b336000908152600560209081526040808320548151637492174f60e01b815291516001600160a01b0390911693849390928492637492174f926004808401939192918290030181865afa15801562000621573d6000803e3d6000fd5b505050506040513d601f19601f820116820180604052508101906200064791906200235a565b9050816001600160a01b0316639ea6b4f46040518163ffffffff1660e01b8152600401602060405180830381865afa15801562000688573d6000803e3d6000fd5b505050506040513d601f19601f82011682018060405250810190620006ae91906200235a565b6001600160a01b0316336001600160a01b031614620007205760405162461bcd60e51b815260206004820152602360248201527f53656e646572206973206e6f7420636c69656e74206f6620746865207365737360448201526234b7b760e91b60648201526084015b60405180910390fd5b6001600160a01b03811660009081526006602052604090206001015462000748854262002390565b10620007ab5760405162461bcd60e51b815260206004820152602b60248201527f5468697320706861657374757320776f6e2774206265206f6e6c696e6520666f60448201526a722074686174206c6f6e6760a81b606482015260840162000717565b6001546001600160a01b038216600090815260066020526040812060020154909190620007df906200028f908890620023ab565b620007eb9190620023e3565b9050803411620008355760405162461bcd60e51b8152602060048201526014602482015273125b9cdd59999a58da595b9d081c185e5b595b9d60621b604482015260640162000717565b604051630251d10b60e41b8152600481018690526001600160a01b0384169063251d10b09034906024016000604051808303818588803b1580156200087957600080fd5b505af11580156200088e573d6000803e3d6000fd5b50505050505050505050565b6000808080808080808080805b60085481101562000a4a57600060088281548110620008ca57620008ca620023fa565b60009182526020918290206040805161012081018252600690930290910180546001600160a01b038116845260ff600160a01b8204811695850195909552600160a81b900484169183019190915260018101546060830152600281015460808301526003808201549293919260a085019216908111156200094f576200094f62002005565b600381111562000963576200096362002005565b81526020016003820160019054906101000a900460ff1660038111156200098e576200098e62002005565b6003811115620009a257620009a262002005565b8152602001600482015481526020016005820154815250509050806020015160ff1687620009d1919062002390565b9650806040015160ff1686620009e8919062002390565b9550428160600151620009fc919062002410565b62000a08908662002390565b94508060e001518462000a1c919062002390565b93508061010001518362000a31919062002390565b925050808062000a41906200242a565b915050620008a7565b62000a58610e1085620023e3565b959b949a5094985090965094509092505050565b6000339050600060066000836001600160a01b0316637492174f6040518163ffffffff1660e01b8152600401602060405180830381865afa15801562000ab6573d6000803e3d6000fd5b505050506040513d601f19601f8201168201806040525081019062000adc91906200235a565b6001600160a01b03166001600160a01b031681526020019081526020016000209050816001600160a01b03166309b0ca7a6040518163ffffffff1660e01b8152600401602060405180830381865afa15801562000b3d573d6000803e3d6000fd5b505050506040513d601f19601f8201168201806040525081019062000b63919062002446565b8154829060149062000b81908490600160a01b900460ff1662002466565b92506101000a81548160ff021916908360ff160217905550816001600160a01b0316631a63b1006040518163ffffffff1660e01b8152600401602060405180830381865afa15801562000bd8573d6000803e3d6000fd5b505050506040513d601f19601f8201168201806040525081019062000bfe919062002446565b8154829060159062000c1c908490600160a81b900460ff1662002466565b92506101000a81548160ff021916908360ff160217905550816001600160a01b031663dc3612e96040518163ffffffff1660e01b8152600401602060405180830381865afa15801562000c73573d6000803e3d6000fd5b505050506040513d601f19601f8201168201806040525081019062000c9991906200248c565b81600501600082825462000cae919062002410565b92505081905550816001600160a01b031663617325816040518163ffffffff1660e01b8152600401602060405180830381865afa15801562000cf4573d6000803e3d6000fd5b505050506040513d601f19601f8201168201806040525081019062000d1a91906200248c565b81600401600082825462000d2f919062002410565b90915550505050565b60008062000d4f83670de0b6b3a7640000620023ab565b9050600062000d5d620019be565b9050670de0b6b3a76400008162000d758285620023ab565b62000d819190620023e3565b62000d8e90600162002390565b95945050505050565b6008818154811062000da857600080fd5b60009182526020909120600690910201805460018201546002830154600384015460048501546005909501546001600160a01b038516965060ff600160a01b8604811696600160a81b9096048116958382169361010090049091169189565b62000e57604080516101208101825260008082526020820181905291810182905260608101829052608081018290529060a082019081526020016000815260200160008152602001600081525090565b6008828154811062000e6d5762000e6d620023fa565b60009182526020918290206040805161012081018252600690930290910180546001600160a01b038116845260ff600160a01b8204811695850195909552600160a81b900484169183019190915260018101546060830152600281015460808301526003808201549293919260a0850192169081111562000ef25762000ef262002005565b600381111562000f065762000f0662002005565b81526020016003820160019054906101000a900460ff16600381111562000f315762000f3162002005565b600381111562000f455762000f4562002005565b81526004820154602082015260059091015460409091015292915050565b600062000f708262001996565b34101562000fb85760405162461bcd60e51b81526020600482015260146024820152731a5b9cdd59999a58da595b9d081c185e5b595b9d60621b604482015260640162000717565b62000fc38262001a4d565b805462000fd39160039162001f14565b5060035460408051426020808301919091524482840152825180830384018152606090920190925280519101206000916200100e91620024a6565b9050600060088281548110620010285762001028620023fa565b906000526020600020906006020160000160009054906101000a90046001600160a01b0316905060003485600001518660200151876040015188606001518960a001518a60c001518b60800151338a604051620010859062001f69565b6200109999989796959493929190620024bd565b6040518091039082f0905080158015620010b7573d6000803e3d6000fd5b5033600090815260056020908152604080832080546001600160a01b0319166001600160a01b038616179055805192835290820190819052905191925062001103916003919062001f77565b50949350505050565b6000339050600060066000836001600160a01b0316637492174f6040518163ffffffff1660e01b8152600401602060405180830381865afa15801562001156573d6000803e3d6000fd5b505050506040513d601f19601f820116820180604052508101906200117c91906200235a565b6001600160a01b03166001600160a01b031681526020019081526020016000209050816001600160a01b03166309b0ca7a6040518163ffffffff1660e01b8152600401602060405180830381865afa158015620011dd573d6000803e3d6000fd5b505050506040513d601f19601f8201168201806040525081019062001203919062002446565b8154829060149062001221908490600160a01b900460ff166200252d565b92506101000a81548160ff021916908360ff160217905550816001600160a01b0316631a63b1006040518163ffffffff1660e01b8152600401602060405180830381865afa15801562001278573d6000803e3d6000fd5b505050506040513d601f19601f820116820180604052508101906200129e919062002446565b81548290601590620012bc908490600160a81b900460ff166200252d565b92506101000a81548160ff021916908360ff160217905550816001600160a01b031663dc3612e96040518163ffffffff1660e01b8152600401602060405180830381865afa15801562001313573d6000803e3d6000fd5b505050506040513d601f19601f820116820180604052508101906200133991906200248c565b8160050160008282546200134e919062002390565b92505081905550816001600160a01b031663617325816040518163ffffffff1660e01b8152600401602060405180830381865afa15801562001394573d6000803e3d6000fd5b505050506040513d601f19601f82011682018060405250810190620013ba91906200248c565b81600401600082825462000d2f919062002390565b600080620013dc620019be565b90506000670de0b6b3a7640000620013f58584620023ab565b620014019190620023e3565b949350505050565b60018860ff1610156200145f5760405162461bcd60e51b815260206004820152601e60248201527f4d7573742068617665206174206c6561737420322043505520636f7265730000604482015260640162000717565b6200146d42611c2062002390565b8611620014d25760405162461bcd60e51b815260206004820152602c60248201527f5068616573747573206d757374206265206f6e6c696e6520666f72206174206c60448201526b65617374203220686f75727360a01b606482015260840162000717565b60ff8716156200154e576000846003811115620014f357620014f362002005565b036200154e5760405162461bcd60e51b815260206004820152602360248201527f596f7520686176652061204750552e2053706563696679207479706520706c6560448201526261736560e81b606482015260840162000717565b6008604051806101200160405280336001600160a01b031681526020018a60ff1681526020018960ff1681526020018881526020018781526020018660038111156200159e576200159e62002005565b8152602001856003811115620015b857620015b862002005565b81526020808201869052604091820185905283546001818101865560009586529482902084516006909202018054928501519385015160ff908116600160a81b0260ff60a81b1991909516600160a01b026001600160a81b03199094166001600160a01b039093169290921792909217169190911781556060820151818401556080820151600282015560a082015160038083018054949593949293909260ff19169184908111156200166f576200166f62002005565b021790555060c08201518160030160016101000a81548160ff02191690836003811115620016a157620016a162002005565b021790555060e082015160048201556101009091015160059091015560088054620016cf9060019062002410565b81548110620016e257620016e2620023fa565b6000918252602080832033845260069182905260409093209102909101805482546001600160a01b039091166001600160a01b031982168117845582546001600160a81b031990921617600160a01b9182900460ff90811690920217808455825460ff60a81b19909116600160a81b9182900483169091021783556001808301548185015560028084015490850155600380840154818601805495969591909416939260ff19909116918490811115620017a057620017a062002005565b0217905550600382810154828201805460ff610100938490041693919261ff0019909116918490811115620017d957620017d962002005565b0217905550600482810154908201556005918201549101555050336000908152600760205260409020805460ff19169055505050505050565b60606008805480602002602001604051908101604052809291908181526020016000905b828210156200193e57600084815260209081902060408051610120810182526006860290920180546001600160a01b038116845260ff600160a01b8204811695850195909552600160a81b900484169183019190915260018101546060830152600281015460808301526003808201549293919260a08501921690811115620018c357620018c362002005565b6003811115620018d757620018d762002005565b81526020016003820160019054906101000a900460ff16600381111562001902576200190262002005565b600381111562001916576200191662002005565b8152602001600482015481526020016005820154815250508152602001906001019062001836565b50505050905090565b600080620019558362001ce6565b90506000836040015161ffff1660088381548110620019785762001978620023fa565b906000526020600020906006020160020154620014019190620023ab565b600080600154620019ab6200028f8562001947565b620019b79190620023e3565b9392505050565b6004805460408051633fabe5a360e21b8152905160009384936001600160a01b03169263feaf968c928183019260a0928290030181865afa15801562001a08573d6000803e3d6000fd5b505050506040513d601f19601f8201168201806040525081019062001a2e919062002570565b505050915050806402540be40062001a479190620025c5565b91505090565b60008062001a5b8362001ce6565b905060006008828154811062001a755762001a75620023fa565b60009182526020918290206040805161012081018252600690930290910180546001600160a01b038116845260ff600160a01b8204811695850195909552600160a81b900484169183019190915260018101546060830152600281015460808301526003808201549293919260a0850192169081111562001afa5762001afa62002005565b600381111562001b0e5762001b0e62002005565b81526020016003820160019054906101000a900460ff16600381111562001b395762001b3962002005565b600381111562001b4d5762001b4d62002005565b815260200160048201548152602001600582015481525050905060005b60085481101562001cdb5760006008828154811062001b8d5762001b8d620023fa565b60009182526020918290206040805161012081018252600690930290910180546001600160a01b038116845260ff600160a01b8204811695850195909552600160a81b900484169183019190915260018101546060830152600281015460808301526003808201549293919260a0850192169081111562001c125762001c1262002005565b600381111562001c265762001c2662002005565b81526020016003820160019054906101000a900460ff16600381111562001c515762001c5162002005565b600381111562001c655762001c6562002005565b8152602001600482015481526020016005820154815250509050826080015181608001510362001cc557600380546001810182556000919091527fc2575a0e9e593c00f959f8c92f12db2869c3395a3b0502d05e2516446f71f85b018290555b508062001cd2816200242a565b91505062001b6a565b506003949350505050565b60025460009080825b60085481101562001f0b5760006008828154811062001d125762001d12620023fa565b60009182526020918290206040805161012081018252600690930290910180546001600160a01b038116845260ff600160a01b8204811695850195909552600160a81b900484169183019190915260018101546060830152600281015460808301526003808201549293919260a0850192169081111562001d975762001d9762002005565b600381111562001dab5762001dab62002005565b81526020016003820160019054906101000a900460ff16600381111562001dd65762001dd662002005565b600381111562001dea5762001dea62002005565b8152602001600482015481526020016005820154815250509050856000015160ff16816020015160ff161015801562001e315750856020015160ff16816040015160ff1610155b801562001e4657508560a001518160e0015110155b801562001e5c57508560c0015181610100015110155b801562001e9857508560600151600381111562001e7d5762001e7d62002005565b8160a00151600381111562001e965762001e9662002005565b145b801562001ed457508560800151600381111562001eb95762001eb962002005565b8160c00151600381111562001ed25762001ed262002005565b145b801562001ee45750806080015183115b1562001ef557806080015192508193505b508062001f02816200242a565b91505062001cef565b50909392505050565b82805482825590600052602060002090810192821562001f575760005260206000209182015b8281111562001f5757825482559160010191906001019062001f3a565b5062001f6592915062001fb5565b5090565b611693806200265783390190565b82805482825590600052602060002090810192821562001f57579160200282015b8281111562001f5757825182559160200191906001019062001f98565b5b8082111562001f65576000815560010162001fb6565b6001600160a01b038116811462001fe257600080fd5b50565b60006020828403121562001ff857600080fd5b8135620019b78162001fcc565b634e487b7160e01b600052602160045260246000fd5b6004811062001fe257634e487b7160e01b600052602160045260246000fd5b62002045816200201b565b9052565b6001600160a01b038a16815260ff8981166020830152881660408201526060810187905260808101869052610120810162002084866200201b565b8560a083015262002095856200201b565b8460c08301528360e0830152826101008301529a9950505050505050505050565b600060208284031215620020c957600080fd5b5035919050565b80516001600160a01b0316825260208082015160ff169083015260408082015190620021009084018260ff169052565b50606081015160608301526080810151608083015260a08101516200212960a08401826200203a565b5060c08101516200213e60c08401826200203a565b5060e0818101519083015261010090810151910152565b6101208101620021668284620020d0565b92915050565b60ff8116811462001fe257600080fd5b803562002189816200216c565b919050565b803561ffff811681146200218957600080fd5b6004811062001fe257600080fd5b80356200218981620021a1565b600060e08284031215620021cf57600080fd5b60405160e0810181811067ffffffffffffffff821117156200220157634e487b7160e01b600052604160045260246000fd5b6040526200220f836200217c565b81526200221f602084016200217c565b602082015262002232604084016200218e565b60408201526200224560608401620021af565b60608201526200225860808401620021af565b608082015260a083013560a082015260c083013560c08201528091505092915050565b600080600080600080600080610100898b0312156200229957600080fd5b8835620022a6816200216c565b97506020890135620022b8816200216c565b965060408901359550606089013594506080890135620022d881620021a1565b935060a0890135620022ea81620021a1565b979a969950949793969295929450505060c08201359160e0013590565b6020808252825182820181905260009190848201906040850190845b818110156200234e5762002339838551620020d0565b92840192610120929092019160010162002323565b50909695505050505050565b6000602082840312156200236d57600080fd5b8151620019b78162001fcc565b634e487b7160e01b600052601160045260246000fd5b60008219821115620023a657620023a66200237a565b500190565b6000816000190483118215151615620023c857620023c86200237a565b500290565b634e487b7160e01b600052601260045260246000fd5b600082620023f557620023f5620023cd565b500490565b634e487b7160e01b600052603260045260246000fd5b6000828210156200242557620024256200237a565b500390565b6000600182016200243f576200243f6200237a565b5060010190565b6000602082840312156200245957600080fd5b8151620019b7816200216c565b600060ff821660ff8416808210156200248357620024836200237a565b90039392505050565b6000602082840312156200249f57600080fd5b5051919050565b600082620024b857620024b8620023cd565b500690565b60ff8a811682528916602082015261ffff881660408201526101208101620024e5886200201b565b8760608301528660808301528560a083015262002502856200201b565b60c08201949094526001600160a01b0392831660e08201529116610100909101529695505050505050565b600060ff821660ff84168060ff038211156200254d576200254d6200237a565b019392505050565b805169ffffffffffffffffffff811681146200218957600080fd5b600080600080600060a086880312156200258957600080fd5b620025948662002555565b9450602086015193506040860151925060608601519150620025b96080870162002555565b90509295509295909350565b60006001600160ff1b0381841382841380821686840486111615620025ee57620025ee6200237a565b600160ff1b60008712828116878305891216156200261057620026106200237a565b600087129250878205871284841616156200262f576200262f6200237a565b878505871281841616156200264857620026486200237a565b50505092909302939250505056fe6080604052600360065560405162001693380380620016938339810160408190526200002b91620002ac565b62000036336200014a565b6000805460ff8a8116600160a81b0260ff60a81b19918d16600160a01b029190911661ffff60a01b1990921691909117179055600185905560028490556005879055600780546001600160a01b038085166001600160a01b03199283168117909355600880549185169190921617905586908490620000b5906200019a565b600c80546001600160a01b0319163390811790915534600b55600854604051631623e6b360e21b81526001600160a01b03909116600482015263588f9acc90602401600060405180830381600087803b1580156200011257600080fd5b505af115801562000127573d6000803e3d6000fd5b5050600c805460ff60a01b1916905550620003529b505050505050505050505050565b600080546001600160a01b038381166001600160a01b0319831681178455604051919092169283917f8be0079c531659141344cd1fd0a4f28419497f9722a3daafe3b4186f6b6457e09190a35050565b6000546001600160a01b03163314620001fa5760405162461bcd60e51b815260206004820181905260248201527f4f776e61626c653a2063616c6c6572206973206e6f7420746865206f776e657260448201526064015b60405180910390fd5b6001600160a01b038116620002615760405162461bcd60e51b815260206004820152602660248201527f4f776e61626c653a206e6577206f776e657220697320746865207a65726f206160448201526564647265737360d01b6064820152608401620001f1565b6200026c816200014a565b50565b805160ff811681146200028157600080fd5b919050565b600481106200026c57600080fd5b80516001600160a01b03811681146200028157600080fd5b60008060008060008060008060006101208a8c031215620002cc57600080fd5b620002d78a6200026f565b9850620002e760208b016200026f565b975060408a0151965060608a0151620003008162000286565b8096505060808a0151945060a08a0151935060c08a0151620003228162000286565b92506200033260e08b0162000294565b9150620003436101008b0162000294565b90509295985092959850929598565b61133180620003626000396000f3fe6080604052600436106100e85760003560e01c80637492174f1161008a578063dc3612e911610059578063dc3612e914610257578063e237a3fc1461026d578063f2fde38b14610282578063fe0ae165146102a257600080fd5b80637492174f146101e25780638da5cb5b1461020f5780639ea6b4f41461022d578063c41c28a91461024257600080fd5b8063251d10b0116100c6578063251d10b0146101745780636173258114610189578063715018a6146101ad57806372dd4084146101c257600080fd5b806309b0ca7a146100ed5780631a63b10014610125578063200d2ed214610146575b600080fd5b3480156100f957600080fd5b5060005461010e90600160a01b900460ff1681565b60405160ff90911681526020015b60405180910390f35b34801561013157600080fd5b5060005461010e90600160a81b900460ff1681565b34801561015257600080fd5b50600c5461016790600160a01b900460ff1681565b60405161011c9190610ebc565b610187610182366004610ee4565b6102c5565b005b34801561019557600080fd5b5061019f60015481565b60405190815260200161011c565b3480156101b957600080fd5b5061018761032b565b3480156101ce57600080fd5b506101876101dd366004610fa0565b610361565b3480156101ee57600080fd5b506101f761048f565b6040516001600160a01b03909116815260200161011c565b34801561021b57600080fd5b506000546001600160a01b03166101f7565b34801561023957600080fd5b506101f76104cc565b34801561024e57600080fd5b50610187610509565b34801561026357600080fd5b5061019f60025481565b34801561027957600080fd5b5061018761059f565b34801561028e57600080fd5b5061018761029d366004611004565b6105c9565b3480156102ae57600080fd5b506102b7610664565b60405161011c92919061107a565b600c546001600160a01b031633146102f85760405162461bcd60e51b81526004016102ef906110a8565b60405180910390fd5b806004600082825461030a91906110f5565b92505081905550806005600082825461032391906110f5565b909155505050565b6000546001600160a01b031633146103555760405162461bcd60e51b81526004016102ef9061110d565b61035f600061074a565b565b6008546001600160a01b0316331461038b5760405162461bcd60e51b81526004016102ef90611142565b600c60009054906101000a90046001600160a01b03166001600160a01b0316632c8f85f46040518163ffffffff1660e01b8152600401600060405180830381600087803b1580156103db57600080fd5b505af11580156103ef573d6000803e3d6000fd5b505050506103fc8261079a565b610405816107db565b426003819055600554610417916110f5565b6004908155600c8054600160a01b60ff60a01b19821617909155604051631623e6b360e21b815233928101929092526001600160a01b03169063588f9acc90602401600060405180830381600087803b15801561047357600080fd5b505af1158015610487573d6000803e3d6000fd5b505050505050565b600c546000906001600160a01b031633146104bc5760405162461bcd60e51b81526004016102ef906110a8565b506008546001600160a01b031690565b600c546000906001600160a01b031633146104f95760405162461bcd60e51b81526004016102ef906110a8565b506007546001600160a01b031690565b6008546001600160a01b031633146105335760405162461bcd60e51b81526004016102ef90611142565b60045442116105845760405162461bcd60e51b815260206004820152601760248201527f53657373696f6e206973206e6f74206f76657274696d6500000000000000000060448201526064016102ef565b600c805460ff60a01b1916600360a01b17905561035f6108b5565b6000546001600160a01b031633146105845760405162461bcd60e51b81526004016102ef9061110d565b6000546001600160a01b031633146105f35760405162461bcd60e51b81526004016102ef9061110d565b6001600160a01b0381166106585760405162461bcd60e51b815260206004820152602660248201527f4f776e61626c653a206e6577206f776e657220697320746865207a65726f206160448201526564647265737360d01b60648201526084016102ef565b6106618161074a565b50565b606080336001600160a01b03166106836000546001600160a01b031690565b6001600160a01b0316146106a95760405162461bcd60e51b81526004016102ef9061110d565b6001600c54600160a01b900460ff1660048111156106c9576106c9610ea6565b146107165760405162461bcd60e51b815260206004820152601960248201527f53657373696f6e206973206e6f7420636f6e666967757265640000000000000060448201526064016102ef565b6000610720610a99565b9050600061072c610b56565b600c805460ff60a01b1916600160a11b179055919491935090915050565b600080546001600160a01b038381166001600160a01b0319831681178455604051919092169283917f8be0079c531659141344cd1fd0a4f28419497f9722a3daafe3b4186f6b6457e09190a35050565b6008546001600160a01b031633146107c45760405162461bcd60e51b81526004016102ef90611142565b80516107d7906009906020840190610e0d565b5050565b6008546001600160a01b031633146108055760405162461bcd60e51b81526004016102ef90611142565b6000600c54600160a01b900460ff16600481111561082557610825610ea6565b146108725760405162461bcd60e51b815260206004820152601b60248201527f53657373696f6e206973206e6f7420696e697469616c6973696e67000000000060448201526064016102ef565b60075460009061088c9033906001600160a01b0316610d12565b6000818152600a6020908152604090912084519293506108b0929091850190610e0d565b505050565b6003600c54600160a01b900460ff1660048111156108d5576108d5610ea6565b146109225760405162461bcd60e51b815260206004820152601960248201527f53657373696f6e20686173206e6f7420656e646564207965740000000000000060448201526064016102ef565b600061092c610da9565b9050600654600161093d9190611179565b81111561098657600854600b546040516001600160a01b039092169181156108fc0291906000818181858888f19350505050158015610980573d6000803e3d6000fd5b50610a1b565b6000600654600b54836109999190611179565b6109a39190611198565b6008546040519192506001600160a01b03169082156108fc029083906000818181858888f193505050501580156109de573d6000803e3d6000fd5b506007546040516001600160a01b03909116904780156108fc02916000818181858888f19350505050158015610a18573d6000803e3d6000fd5b50505b600c60009054906101000a90046001600160a01b03166001600160a01b0316638a7cadf16040518163ffffffff1660e01b8152600401600060405180830381600087803b158015610a6b57600080fd5b505af1158015610a7f573d6000803e3d6000fd5b5050600c805460ff60a01b1916600160a21b179055505050565b6000546060906001600160a01b03163314610ac65760405162461bcd60e51b81526004016102ef9061110d565b60098054610ad3906111ba565b80601f0160208091040260200160405190810160405280929190818152602001828054610aff906111ba565b8015610b4c5780601f10610b2157610100808354040283529160200191610b4c565b820191906000526020600020905b815481529060010190602001808311610b2f57829003601f168201915b5050505050905090565b6000546060906001600160a01b03163314610b835760405162461bcd60e51b81526004016102ef9061110d565b6001600c54600160a01b900460ff166004811115610ba357610ba3610ea6565b1015610bf15760405162461bcd60e51b815260206004820152601d60248201527f53657373696f6e206973207061737420636f6e66696775726174696f6e00000060448201526064016102ef565b6004600c54600160a01b900460ff166004811115610c1157610c11610ea6565b10610c545760405162461bcd60e51b815260206004820152601360248201527214d95cdcda5bdb881a5cc81c995cdbdb1d9959606a1b60448201526064016102ef565b600854600090610c6e9033906001600160a01b0316610d12565b6000818152600a6020526040812080549293509091610c8c906111ba565b80601f0160208091040260200160405190810160405280929190818152602001828054610cb8906111ba565b8015610d055780601f10610cda57610100808354040283529160200191610d05565b820191906000526020600020905b815481529060010190602001808311610ce857829003601f168201915b5093965050505050505090565b6000816001600160a01b0316836001600160a01b03161015610d75576040516bffffffffffffffffffffffff19606085811b8216602084015284901b1660348201526048015b604051602081830303815290604052805190602001209050610da3565b6040516bffffffffffffffffffffffff19606084811b8216602084015285901b166034820152604801610d58565b92915050565b6000806006546001610dbb91906110f5565b610dc690600a6112d8565b600354610dd390426112e4565b610ddd9190611179565b90506000600a60055483610df19190611198565b610dfc9060056110f5565b610e069190611198565b9392505050565b828054610e19906111ba565b90600052602060002090601f016020900481019282610e3b5760008555610e81565b82601f10610e5457805160ff1916838001178555610e81565b82800160010185558215610e81579182015b82811115610e81578251825591602001919060010190610e66565b50610e8d929150610e91565b5090565b5b80821115610e8d5760008155600101610e92565b634e487b7160e01b600052602160045260246000fd5b6020810160058310610ede57634e487b7160e01b600052602160045260246000fd5b91905290565b600060208284031215610ef657600080fd5b5035919050565b634e487b7160e01b600052604160045260246000fd5b600082601f830112610f2457600080fd5b813567ffffffffffffffff80821115610f3f57610f3f610efd565b604051601f8301601f19908116603f01168101908282118183101715610f6757610f67610efd565b81604052838152866020858801011115610f8057600080fd5b836020870160208301376000602085830101528094505050505092915050565b60008060408385031215610fb357600080fd5b823567ffffffffffffffff80821115610fcb57600080fd5b610fd786838701610f13565b93506020850135915080821115610fed57600080fd5b50610ffa85828601610f13565b9150509250929050565b60006020828403121561101657600080fd5b81356001600160a01b0381168114610e0657600080fd5b6000815180845260005b8181101561105357602081850181015186830182015201611037565b81811115611065576000602083870101525b50601f01601f19169290920160200192915050565b60408152600061108d604083018561102d565b828103602084015261109f818561102d565b95945050505050565b60208082526017908201527f596f7520617265206e6f742074686520666163746f7279000000000000000000604082015260600190565b634e487b7160e01b600052601160045260246000fd5b60008219821115611108576111086110df565b500190565b6020808252818101527f4f776e61626c653a2063616c6c6572206973206e6f7420746865206f776e6572604082015260600190565b6020808252601d908201527f596f7520617265206e6f742073657373696f6e73205068616573747573000000604082015260600190565b6000816000190483118215151615611193576111936110df565b500290565b6000826111b557634e487b7160e01b600052601260045260246000fd5b500490565b600181811c908216806111ce57607f821691505b6020821081036111ee57634e487b7160e01b600052602260045260246000fd5b50919050565b600181815b8085111561122f578160001904821115611215576112156110df565b8085161561122257918102915b93841c93908002906111f9565b509250929050565b60008261124657506001610da3565b8161125357506000610da3565b816001811461126957600281146112735761128f565b6001915050610da3565b60ff841115611284576112846110df565b50506001821b610da3565b5060208310610133831016604e8410600b84101617156112b2575081810a610da3565b6112bc83836111f4565b80600019048211156112d0576112d06110df565b029392505050565b6000610e068383611237565b6000828210156112f6576112f66110df565b50039056fea2646970667358221220971d03286d497030567c234291ed8cd5ca609a32911394558dd91fb4cf0f1b5764736f6c634300080e0033a264697066735822122086ec59b736f0995a2bf524c5c734b81c15a9909a9ef98f7b71cebf69961a3c6464736f6c634300080e0033",
  "bytecodeSha1": "1ccd39851c677a9b9f514a41400bb00a369feb49",
  "compiler": {
    "evm_version": "istanbul",
    "optimizer": {
      "enabled": true,
      "runs": 200
    },
    "version": "0.8.14+commit.80d49f37"
  },
  "contractName": "TorpedoFactory",
  "language": "Solidity",
  "natspec": {
    "kind": "dev",
    "methods": {},
    "version": 1
  },
  "opcodes": "PUSH1 0x80 PUSH1 0x40 MSTORE PUSH1 0x4 CALLDATASIZE LT PUSH3 0x15B JUMPI PUSH1 0x0 CALLDATALOAD PUSH1 0xE0 SHR DUP1 PUSH4 0x741BEF1A GT PUSH3 0xC5 JUMPI DUP1 PUSH4 0xBC9F797F GT PUSH3 0x78 JUMPI DUP1 PUSH4 0xBC9F797F EQ PUSH3 0x4D0 JUMPI DUP1 PUSH4 0xC3B23D75 EQ PUSH3 0x4F5 JUMPI DUP1 PUSH4 0xC5383EF1 EQ PUSH3 0x527 JUMPI DUP1 PUSH4 0xC6BC6846 EQ PUSH3 0x54E JUMPI DUP1 PUSH4 0xCD94B43D EQ PUSH3 0x57B JUMPI DUP1 PUSH4 0xF7E67DBC EQ PUSH3 0x5A0 JUMPI PUSH1 0x0 DUP1 REVERT JUMPDEST DUP1 PUSH4 0x741BEF1A EQ PUSH3 0x423 JUMPI DUP1 PUSH4 0x8A2B13A7 EQ PUSH3 0x445 JUMPI DUP1 PUSH4 0x8A7CADF1 EQ PUSH3 0x45C JUMPI DUP1 PUSH4 0x8DA5CB5B EQ PUSH3 0x474 JUMPI DUP1 PUSH4 0xA7143CCF EQ PUSH3 0x496 JUMPI DUP1 PUSH4 0xBBE4FD50 EQ PUSH3 0x4BB JUMPI PUSH1 0x0 DUP1 REVERT JUMPDEST DUP1 PUSH4 0x36D2107D GT PUSH3 0x11E JUMPI DUP1 PUSH4 0x36D2107D EQ PUSH3 0x2A4 JUMPI DUP1 PUSH4 0x3E2F8FF7 EQ PUSH3 0x308 JUMPI DUP1 PUSH4 0x465E0499 EQ PUSH3 0x354 JUMPI DUP1 PUSH4 0x4D9FDD3E EQ PUSH3 0x379 JUMPI DUP1 PUSH4 0x588F9ACC EQ PUSH3 0x3AD JUMPI DUP1 PUSH4 0x73595502 EQ PUSH3 0x40C JUMPI PUSH1 0x0 DUP1 REVERT JUMPDEST DUP1 PUSH4 0x228EFF42 EQ PUSH3 0x160 JUMPI DUP1 PUSH4 0x251D10B0 EQ PUSH3 0x1FE JUMPI DUP1 PUSH4 0x26BE90BF EQ PUSH3 0x217 JUMPI DUP1 PUSH4 0x2C8F85F4 EQ PUSH3 0x258 JUMPI DUP1 PUSH4 0x2D913140 EQ PUSH3 0x270 JUMPI JUMPDEST PUSH1 0x0 DUP1 REVERT JUMPDEST CALLVALUE DUP1 ISZERO PUSH3 0x16D JUMPI PUSH1 0x0 DUP1 REVERT JUMPDEST POP PUSH3 0x1DE PUSH3 0x17F CALLDATASIZE PUSH1 0x4 PUSH3 0x1FE5 JUMP JUMPDEST PUSH1 0x6 PUSH1 0x20 MSTORE PUSH1 0x0 SWAP1 DUP2 MSTORE PUSH1 0x40 SWAP1 KECCAK256 DUP1 SLOAD PUSH1 0x1 DUP3 ADD SLOAD PUSH1 0x2 DUP4 ADD SLOAD PUSH1 0x3 DUP5 ADD SLOAD PUSH1 0x4 DUP6 ADD SLOAD PUSH1 0x5 SWAP1 SWAP6 ADD SLOAD PUSH1 0x1 PUSH1 0x1 PUSH1 0xA0 SHL SUB DUP6 AND SWAP6 PUSH1 0xFF PUSH1 0x1 PUSH1 0xA0 SHL DUP8 DIV DUP2 AND SWAP7 PUSH1 0x1 PUSH1 0xA8 SHL SWAP1 DIV DUP2 AND SWAP6 SWAP5 SWAP4 DUP1 DUP3 AND SWAP4 PUSH2 0x100 SWAP1 SWAP2 DIV SWAP1 SWAP2 AND SWAP2 SWAP1 DUP10 JUMP JUMPDEST PUSH1 0x40 MLOAD PUSH3 0x1F5 SWAP10 SWAP9 SWAP8 SWAP7 SWAP6 SWAP5 SWAP4 SWAP3 SWAP2 SWAP1 PUSH3 0x2049 JUMP JUMPDEST PUSH1 0x40 MLOAD DUP1 SWAP2 SUB SWAP1 RETURN JUMPDEST PUSH3 0x215 PUSH3 0x20F CALLDATASIZE PUSH1 0x4 PUSH3 0x20B6 JUMP JUMPDEST PUSH3 0x5C5 JUMP JUMPDEST STOP JUMPDEST CALLVALUE DUP1 ISZERO PUSH3 0x224 JUMPI PUSH1 0x0 DUP1 REVERT JUMPDEST POP PUSH3 0x22F PUSH3 0x89A JUMP JUMPDEST PUSH1 0x40 DUP1 MLOAD SWAP6 DUP7 MSTORE PUSH1 0x20 DUP7 ADD SWAP5 SWAP1 SWAP5 MSTORE SWAP3 DUP5 ADD SWAP2 SWAP1 SWAP2 MSTORE PUSH1 0x60 DUP4 ADD MSTORE PUSH1 0x80 DUP3 ADD MSTORE PUSH1 0xA0 ADD PUSH3 0x1F5 JUMP JUMPDEST CALLVALUE DUP1 ISZERO PUSH3 0x265 JUMPI PUSH1 0x0 DUP1 REVERT JUMPDEST POP PUSH3 0x215 PUSH3 0xA6C JUMP JUMPDEST CALLVALUE DUP1 ISZERO PUSH3 0x27D JUMPI PUSH1 0x0 DUP1 REVERT JUMPDEST POP PUSH3 0x295 PUSH3 0x28F CALLDATASIZE PUSH1 0x4 PUSH3 0x20B6 JUMP JUMPDEST PUSH3 0xD38 JUMP JUMPDEST PUSH1 0x40 MLOAD SWAP1 DUP2 MSTORE PUSH1 0x20 ADD PUSH3 0x1F5 JUMP JUMPDEST CALLVALUE DUP1 ISZERO PUSH3 0x2B1 JUMPI PUSH1 0x0 DUP1 REVERT JUMPDEST POP PUSH3 0x2E8 PUSH3 0x2C3 CALLDATASIZE PUSH1 0x4 PUSH3 0x1FE5 JUMP JUMPDEST PUSH1 0x7 PUSH1 0x20 MSTORE PUSH1 0x0 SWAP1 DUP2 MSTORE PUSH1 0x40 SWAP1 KECCAK256 SLOAD PUSH1 0xFF DUP2 AND SWAP1 PUSH2 0x100 SWAP1 DIV PUSH1 0x1 PUSH1 0x1 PUSH1 0xA0 SHL SUB AND DUP3 JUMP JUMPDEST PUSH1 0x40 DUP1 MLOAD SWAP3 ISZERO ISZERO DUP4 MSTORE PUSH1 0x1 PUSH1 0x1 PUSH1 0xA0 SHL SUB SWAP1 SWAP2 AND PUSH1 0x20 DUP4 ADD MSTORE ADD PUSH3 0x1F5 JUMP JUMPDEST CALLVALUE DUP1 ISZERO PUSH3 0x315 JUMPI PUSH1 0x0 DUP1 REVERT JUMPDEST POP PUSH3 0x33B CALLER PUSH1 0x0 SWAP1 DUP2 MSTORE PUSH1 0x7 PUSH1 0x20 MSTORE PUSH1 0x40 SWAP1 KECCAK256 SLOAD PUSH2 0x100 SWAP1 DIV PUSH1 0x1 PUSH1 0x1 PUSH1 0xA0 SHL SUB AND SWAP1 JUMP JUMPDEST PUSH1 0x40 MLOAD PUSH1 0x1 PUSH1 0x1 PUSH1 0xA0 SHL SUB SWAP1 SWAP2 AND DUP2 MSTORE PUSH1 0x20 ADD PUSH3 0x1F5 JUMP JUMPDEST CALLVALUE DUP1 ISZERO PUSH3 0x361 JUMPI PUSH1 0x0 DUP1 REVERT JUMPDEST POP PUSH3 0x1DE PUSH3 0x373 CALLDATASIZE PUSH1 0x4 PUSH3 0x20B6 JUMP JUMPDEST PUSH3 0xD97 JUMP JUMPDEST CALLVALUE DUP1 ISZERO PUSH3 0x386 JUMPI PUSH1 0x0 DUP1 REVERT JUMPDEST POP PUSH3 0x39E PUSH3 0x398 CALLDATASIZE PUSH1 0x4 PUSH3 0x20B6 JUMP JUMPDEST PUSH3 0xE07 JUMP JUMPDEST PUSH1 0x40 MLOAD PUSH3 0x1F5 SWAP2 SWAP1 PUSH3 0x2155 JUMP JUMPDEST CALLVALUE DUP1 ISZERO PUSH3 0x3BA JUMPI PUSH1 0x0 DUP1 REVERT JUMPDEST POP PUSH3 0x215 PUSH3 0x3CC CALLDATASIZE PUSH1 0x4 PUSH3 0x1FE5 JUMP JUMPDEST PUSH1 0x1 PUSH1 0x1 PUSH1 0xA0 SHL SUB AND PUSH1 0x0 SWAP1 DUP2 MSTORE PUSH1 0x7 PUSH1 0x20 MSTORE PUSH1 0x40 SWAP1 KECCAK256 DUP1 SLOAD PUSH1 0xFF NOT PUSH2 0x100 CALLER MUL SWAP1 DUP2 AND PUSH1 0x1 PUSH1 0x1 PUSH1 0xA8 SHL SUB NOT DUP4 AND OR PUSH1 0xFF SWAP2 DUP3 AND SWAP2 SWAP1 SWAP3 AND OR ISZERO OR SWAP1 SSTORE JUMP JUMPDEST CALLVALUE DUP1 ISZERO PUSH3 0x419 JUMPI PUSH1 0x0 DUP1 REVERT JUMPDEST POP PUSH1 0x1 SLOAD PUSH3 0x295 JUMP JUMPDEST CALLVALUE DUP1 ISZERO PUSH3 0x430 JUMPI PUSH1 0x0 DUP1 REVERT JUMPDEST POP PUSH1 0x4 SLOAD PUSH3 0x33B SWAP1 PUSH1 0x1 PUSH1 0x1 PUSH1 0xA0 SHL SUB AND DUP2 JUMP JUMPDEST PUSH3 0x33B PUSH3 0x456 CALLDATASIZE PUSH1 0x4 PUSH3 0x21BC JUMP JUMPDEST PUSH3 0xF63 JUMP JUMPDEST CALLVALUE DUP1 ISZERO PUSH3 0x469 JUMPI PUSH1 0x0 DUP1 REVERT JUMPDEST POP PUSH3 0x215 PUSH3 0x110C JUMP JUMPDEST CALLVALUE DUP1 ISZERO PUSH3 0x481 JUMPI PUSH1 0x0 DUP1 REVERT JUMPDEST POP PUSH1 0x0 SLOAD PUSH3 0x33B SWAP1 PUSH1 0x1 PUSH1 0x1 PUSH1 0xA0 SHL SUB AND DUP2 JUMP JUMPDEST CALLVALUE DUP1 ISZERO PUSH3 0x4A3 JUMPI PUSH1 0x0 DUP1 REVERT JUMPDEST POP PUSH3 0x295 PUSH3 0x4B5 CALLDATASIZE PUSH1 0x4 PUSH3 0x20B6 JUMP JUMPDEST PUSH3 0x13CF JUMP JUMPDEST CALLVALUE DUP1 ISZERO PUSH3 0x4C8 JUMPI PUSH1 0x0 DUP1 REVERT JUMPDEST POP TIMESTAMP PUSH3 0x295 JUMP JUMPDEST CALLVALUE DUP1 ISZERO PUSH3 0x4DD JUMPI PUSH1 0x0 DUP1 REVERT JUMPDEST POP PUSH3 0x215 PUSH3 0x4EF CALLDATASIZE PUSH1 0x4 PUSH3 0x227B JUMP JUMPDEST PUSH3 0x1409 JUMP JUMPDEST CALLVALUE DUP1 ISZERO PUSH3 0x502 JUMPI PUSH1 0x0 DUP1 REVERT JUMPDEST POP CALLER PUSH1 0x0 SWAP1 DUP2 MSTORE PUSH1 0x7 PUSH1 0x20 MSTORE PUSH1 0x40 SWAP1 KECCAK256 SLOAD PUSH1 0xFF AND PUSH1 0x40 MLOAD SWAP1 ISZERO ISZERO DUP2 MSTORE PUSH1 0x20 ADD PUSH3 0x1F5 JUMP JUMPDEST CALLVALUE DUP1 ISZERO PUSH3 0x534 JUMPI PUSH1 0x0 DUP1 REVERT JUMPDEST POP PUSH3 0x53F PUSH3 0x1812 JUMP JUMPDEST PUSH1 0x40 MLOAD PUSH3 0x1F5 SWAP2 SWAP1 PUSH3 0x2307 JUMP JUMPDEST CALLVALUE DUP1 ISZERO PUSH3 0x55B JUMPI PUSH1 0x0 DUP1 REVERT JUMPDEST POP CALLER PUSH1 0x0 SWAP1 DUP2 MSTORE PUSH1 0x5 PUSH1 0x20 MSTORE PUSH1 0x40 SWAP1 KECCAK256 SLOAD PUSH1 0x1 PUSH1 0x1 PUSH1 0xA0 SHL SUB AND PUSH3 0x33B JUMP JUMPDEST CALLVALUE DUP1 ISZERO PUSH3 0x588 JUMPI PUSH1 0x0 DUP1 REVERT JUMPDEST POP PUSH3 0x295 PUSH3 0x59A CALLDATASIZE PUSH1 0x4 PUSH3 0x21BC JUMP JUMPDEST PUSH3 0x1947 JUMP JUMPDEST CALLVALUE DUP1 ISZERO PUSH3 0x5AD JUMPI PUSH1 0x0 DUP1 REVERT JUMPDEST POP PUSH3 0x295 PUSH3 0x5BF CALLDATASIZE PUSH1 0x4 PUSH3 0x21BC JUMP JUMPDEST PUSH3 0x1996 JUMP JUMPDEST CALLER PUSH1 0x0 SWAP1 DUP2 MSTORE PUSH1 0x5 PUSH1 0x20 SWAP1 DUP2 MSTORE PUSH1 0x40 DUP1 DUP4 KECCAK256 SLOAD DUP2 MLOAD PUSH4 0x7492174F PUSH1 0xE0 SHL DUP2 MSTORE SWAP2 MLOAD PUSH1 0x1 PUSH1 0x1 PUSH1 0xA0 SHL SUB SWAP1 SWAP2 AND SWAP4 DUP5 SWAP4 SWAP1 SWAP3 DUP5 SWAP3 PUSH4 0x7492174F SWAP3 PUSH1 0x4 DUP1 DUP5 ADD SWAP4 SWAP2 SWAP3 SWAP2 DUP3 SWAP1 SUB ADD DUP2 DUP7 GAS STATICCALL ISZERO DUP1 ISZERO PUSH3 0x621 JUMPI RETURNDATASIZE PUSH1 0x0 DUP1 RETURNDATACOPY RETURNDATASIZE PUSH1 0x0 REVERT JUMPDEST POP POP POP POP PUSH1 0x40 MLOAD RETURNDATASIZE PUSH1 0x1F NOT PUSH1 0x1F DUP3 ADD AND DUP3 ADD DUP1 PUSH1 0x40 MSTORE POP DUP2 ADD SWAP1 PUSH3 0x647 SWAP2 SWAP1 PUSH3 0x235A JUMP JUMPDEST SWAP1 POP DUP2 PUSH1 0x1 PUSH1 0x1 PUSH1 0xA0 SHL SUB AND PUSH4 0x9EA6B4F4 PUSH1 0x40 MLOAD DUP2 PUSH4 0xFFFFFFFF AND PUSH1 0xE0 SHL DUP2 MSTORE PUSH1 0x4 ADD PUSH1 0x20 PUSH1 0x40 MLOAD DUP1 DUP4 SUB DUP2 DUP7 GAS STATICCALL ISZERO DUP1 ISZERO PUSH3 0x688 JUMPI RETURNDATASIZE PUSH1 0x0 DUP1 RETURNDATACOPY RETURNDATASIZE PUSH1 0x0 REVERT JUMPDEST POP POP POP POP PUSH1 0x40 MLOAD RETURNDATASIZE PUSH1 0x1F NOT PUSH1 0x1F DUP3 ADD AND DUP3 ADD DUP1 PUSH1 0x40 MSTORE POP DUP2 ADD SWAP1 PUSH3 0x6AE SWAP2 SWAP1 PUSH3 0x235A JUMP JUMPDEST PUSH1 0x1 PUSH1 0x1 PUSH1 0xA0 SHL SUB AND CALLER PUSH1 0x1 PUSH1 0x1 PUSH1 0xA0 SHL SUB AND EQ PUSH3 0x720 JUMPI PUSH1 0x40 MLOAD PUSH3 0x461BCD PUSH1 0xE5 SHL DUP2 MSTORE PUSH1 0x20 PUSH1 0x4 DUP3 ADD MSTORE PUSH1 0x23 PUSH1 0x24 DUP3 ADD MSTORE PUSH32 0x53656E646572206973206E6F7420636C69656E74206F66207468652073657373 PUSH1 0x44 DUP3 ADD MSTORE PUSH3 0x34B7B7 PUSH1 0xE9 SHL PUSH1 0x64 DUP3 ADD MSTORE PUSH1 0x84 ADD JUMPDEST PUSH1 0x40 MLOAD DUP1 SWAP2 SUB SWAP1 REVERT JUMPDEST PUSH1 0x1 PUSH1 0x1 PUSH1 0xA0 SHL SUB DUP2 AND PUSH1 0x0 SWAP1 DUP2 MSTORE PUSH1 0x6 PUSH1 0x20 MSTORE PUSH1 0x40 SWAP1 KECCAK256 PUSH1 0x1 ADD SLOAD PUSH3 0x748 DUP6 TIMESTAMP PUSH3 0x2390 JUMP JUMPDEST LT PUSH3 0x7AB JUMPI PUSH1 0x40 MLOAD PUSH3 0x461BCD PUSH1 0xE5 SHL DUP2 MSTORE PUSH1 0x20 PUSH1 0x4 DUP3 ADD MSTORE PUSH1 0x2B PUSH1 0x24 DUP3 ADD MSTORE PUSH32 0x5468697320706861657374757320776F6E2774206265206F6E6C696E6520666F PUSH1 0x44 DUP3 ADD MSTORE PUSH11 0x722074686174206C6F6E67 PUSH1 0xA8 SHL PUSH1 0x64 DUP3 ADD MSTORE PUSH1 0x84 ADD PUSH3 0x717 JUMP JUMPDEST PUSH1 0x1 SLOAD PUSH1 0x1 PUSH1 0x1 PUSH1 0xA0 SHL SUB DUP3 AND PUSH1 0x0 SWAP1 DUP2 MSTORE PUSH1 0x6 PUSH1 0x20 MSTORE PUSH1 0x40 DUP2 KECCAK256 PUSH1 0x2 ADD SLOAD SWAP1 SWAP2 SWAP1 PUSH3 0x7DF SWAP1 PUSH3 0x28F SWAP1 DUP9 SWAP1 PUSH3 0x23AB JUMP JUMPDEST PUSH3 0x7EB SWAP2 SWAP1 PUSH3 0x23E3 JUMP JUMPDEST SWAP1 POP DUP1 CALLVALUE GT PUSH3 0x835 JUMPI PUSH1 0x40 MLOAD PUSH3 0x461BCD PUSH1 0xE5 SHL DUP2 MSTORE PUSH1 0x20 PUSH1 0x4 DUP3 ADD MSTORE PUSH1 0x14 PUSH1 0x24 DUP3 ADD MSTORE PUSH20 0x125B9CDD59999A58DA595B9D081C185E5B595B9D PUSH1 0x62 SHL PUSH1 0x44 DUP3 ADD MSTORE PUSH1 0x64 ADD PUSH3 0x717 JUMP JUMPDEST PUSH1 0x40 MLOAD PUSH4 0x251D10B PUSH1 0xE4 SHL DUP2 MSTORE PUSH1 0x4 DUP2 ADD DUP7 SWAP1 MSTORE PUSH1 0x1 PUSH1 0x1 PUSH1 0xA0 SHL SUB DUP5 AND SWAP1 PUSH4 0x251D10B0 SWAP1 CALLVALUE SWAP1 PUSH1 0x24 ADD PUSH1 0x0 PUSH1 0x40 MLOAD DUP1 DUP4 SUB DUP2 DUP6 DUP9 DUP1 EXTCODESIZE ISZERO DUP1 ISZERO PUSH3 0x879 JUMPI PUSH1 0x0 DUP1 REVERT JUMPDEST POP GAS CALL ISZERO DUP1 ISZERO PUSH3 0x88E JUMPI RETURNDATASIZE PUSH1 0x0 DUP1 RETURNDATACOPY RETURNDATASIZE PUSH1 0x0 REVERT JUMPDEST POP POP POP POP POP POP POP POP POP POP JUMP JUMPDEST PUSH1 0x0 DUP1 DUP1 DUP1 DUP1 DUP1 DUP1 DUP1 DUP1 DUP1 DUP1 JUMPDEST PUSH1 0x8 SLOAD DUP2 LT ISZERO PUSH3 0xA4A JUMPI PUSH1 0x0 PUSH1 0x8 DUP3 DUP2 SLOAD DUP2 LT PUSH3 0x8CA JUMPI PUSH3 0x8CA PUSH3 0x23FA JUMP JUMPDEST PUSH1 0x0 SWAP2 DUP3 MSTORE PUSH1 0x20 SWAP2 DUP3 SWAP1 KECCAK256 PUSH1 0x40 DUP1 MLOAD PUSH2 0x120 DUP2 ADD DUP3 MSTORE PUSH1 0x6 SWAP1 SWAP4 MUL SWAP1 SWAP2 ADD DUP1 SLOAD PUSH1 0x1 PUSH1 0x1 PUSH1 0xA0 SHL SUB DUP2 AND DUP5 MSTORE PUSH1 0xFF PUSH1 0x1 PUSH1 0xA0 SHL DUP3 DIV DUP2 AND SWAP6 DUP6 ADD SWAP6 SWAP1 SWAP6 MSTORE PUSH1 0x1 PUSH1 0xA8 SHL SWAP1 DIV DUP5 AND SWAP2 DUP4 ADD SWAP2 SWAP1 SWAP2 MSTORE PUSH1 0x1 DUP2 ADD SLOAD PUSH1 0x60 DUP4 ADD MSTORE PUSH1 0x2 DUP2 ADD SLOAD PUSH1 0x80 DUP4 ADD MSTORE PUSH1 0x3 DUP1 DUP3 ADD SLOAD SWAP3 SWAP4 SWAP2 SWAP3 PUSH1 0xA0 DUP6 ADD SWAP3 AND SWAP1 DUP2 GT ISZERO PUSH3 0x94F JUMPI PUSH3 0x94F PUSH3 0x2005 JUMP JUMPDEST PUSH1 0x3 DUP2 GT ISZERO PUSH3 0x963 JUMPI PUSH3 0x963 PUSH3 0x2005 JUMP JUMPDEST DUP2 MSTORE PUSH1 0x20 ADD PUSH1 0x3 DUP3 ADD PUSH1 0x1 SWAP1 SLOAD SWAP1 PUSH2 0x100 EXP SWAP1 DIV PUSH1 0xFF AND PUSH1 0x3 DUP2 GT ISZERO PUSH3 0x98E JUMPI PUSH3 0x98E PUSH3 0x2005 JUMP JUMPDEST PUSH1 0x3 DUP2 GT ISZERO PUSH3 0x9A2 JUMPI PUSH3 0x9A2 PUSH3 0x2005 JUMP JUMPDEST DUP2 MSTORE PUSH1 0x20 ADD PUSH1 0x4 DUP3 ADD SLOAD DUP2 MSTORE PUSH1 0x20 ADD PUSH1 0x5 DUP3 ADD SLOAD DUP2 MSTORE POP POP SWAP1 POP DUP1 PUSH1 0x20 ADD MLOAD PUSH1 0xFF AND DUP8 PUSH3 0x9D1 SWAP2 SWAP1 PUSH3 0x2390 JUMP JUMPDEST SWAP7 POP DUP1 PUSH1 0x40 ADD MLOAD PUSH1 0xFF AND DUP7 PUSH3 0x9E8 SWAP2 SWAP1 PUSH3 0x2390 JUMP JUMPDEST SWAP6 POP TIMESTAMP DUP2 PUSH1 0x60 ADD MLOAD PUSH3 0x9FC SWAP2 SWAP1 PUSH3 0x2410 JUMP JUMPDEST PUSH3 0xA08 SWAP1 DUP7 PUSH3 0x2390 JUMP JUMPDEST SWAP5 POP DUP1 PUSH1 0xE0 ADD MLOAD DUP5 PUSH3 0xA1C SWAP2 SWAP1 PUSH3 0x2390 JUMP JUMPDEST SWAP4 POP DUP1 PUSH2 0x100 ADD MLOAD DUP4 PUSH3 0xA31 SWAP2 SWAP1 PUSH3 0x2390 JUMP JUMPDEST SWAP3 POP POP DUP1 DUP1 PUSH3 0xA41 SWAP1 PUSH3 0x242A JUMP JUMPDEST SWAP2 POP POP PUSH3 0x8A7 JUMP JUMPDEST PUSH3 0xA58 PUSH2 0xE10 DUP6 PUSH3 0x23E3 JUMP JUMPDEST SWAP6 SWAP12 SWAP5 SWAP11 POP SWAP5 SWAP9 POP SWAP1 SWAP7 POP SWAP5 POP SWAP1 SWAP3 POP POP POP JUMP JUMPDEST PUSH1 0x0 CALLER SWAP1 POP PUSH1 0x0 PUSH1 0x6 PUSH1 0x0 DUP4 PUSH1 0x1 PUSH1 0x1 PUSH1 0xA0 SHL SUB AND PUSH4 0x7492174F PUSH1 0x40 MLOAD DUP2 PUSH4 0xFFFFFFFF AND PUSH1 0xE0 SHL DUP2 MSTORE PUSH1 0x4 ADD PUSH1 0x20 PUSH1 0x40 MLOAD DUP1 DUP4 SUB DUP2 DUP7 GAS STATICCALL ISZERO DUP1 ISZERO PUSH3 0xAB6 JUMPI RETURNDATASIZE PUSH1 0x0 DUP1 RETURNDATACOPY RETURNDATASIZE PUSH1 0x0 REVERT JUMPDEST POP POP POP POP PUSH1 0x40 MLOAD RETURNDATASIZE PUSH1 0x1F NOT PUSH1 0x1F DUP3 ADD AND DUP3 ADD DUP1 PUSH1 0x40 MSTORE POP DUP2 ADD SWAP1 PUSH3 0xADC SWAP2 SWAP1 PUSH3 0x235A JUMP JUMPDEST PUSH1 0x1 PUSH1 0x1 PUSH1 0xA0 SHL SUB AND PUSH1 0x1 PUSH1 0x1 PUSH1 0xA0 SHL SUB AND DUP2 MSTORE PUSH1 0x20 ADD SWAP1 DUP2 MSTORE PUSH1 0x20 ADD PUSH1 0x0 KECCAK256 SWAP1 POP DUP2 PUSH1 0x1 PUSH1 0x1 PUSH1 0xA0 SHL SUB AND PUSH4 0x9B0CA7A PUSH1 0x40 MLOAD DUP2 PUSH4 0xFFFFFFFF AND PUSH1 0xE0 SHL DUP2 MSTORE PUSH1 0x4 ADD PUSH1 0x20 PUSH1 0x40 MLOAD DUP1 DUP4 SUB DUP2 DUP7 GAS STATICCALL ISZERO DUP1 ISZERO PUSH3 0xB3D JUMPI RETURNDATASIZE PUSH1 0x0 DUP1 RETURNDATACOPY RETURNDATASIZE PUSH1 0x0 REVERT JUMPDEST POP POP POP POP PUSH1 0x40 MLOAD RETURNDATASIZE PUSH1 0x1F NOT PUSH1 0x1F DUP3 ADD AND DUP3 ADD DUP1 PUSH1 0x40 MSTORE POP DUP2 ADD SWAP1 PUSH3 0xB63 SWAP2 SWAP1 PUSH3 0x2446 JUMP JUMPDEST DUP2 SLOAD DUP3 SWAP1 PUSH1 0x14 SWAP1 PUSH3 0xB81 SWAP1 DUP5 SWAP1 PUSH1 0x1 PUSH1 0xA0 SHL SWAP1 DIV PUSH1 0xFF AND PUSH3 0x2466 JUMP JUMPDEST SWAP3 POP PUSH2 0x100 EXP DUP2 SLOAD DUP2 PUSH1 0xFF MUL NOT AND SWAP1 DUP4 PUSH1 0xFF AND MUL OR SWAP1 SSTORE POP DUP2 PUSH1 0x1 PUSH1 0x1 PUSH1 0xA0 SHL SUB AND PUSH4 0x1A63B100 PUSH1 0x40 MLOAD DUP2 PUSH4 0xFFFFFFFF AND PUSH1 0xE0 SHL DUP2 MSTORE PUSH1 0x4 ADD PUSH1 0x20 PUSH1 0x40 MLOAD DUP1 DUP4 SUB DUP2 DUP7 GAS STATICCALL ISZERO DUP1 ISZERO PUSH3 0xBD8 JUMPI RETURNDATASIZE PUSH1 0x0 DUP1 RETURNDATACOPY RETURNDATASIZE PUSH1 0x0 REVERT JUMPDEST POP POP POP POP PUSH1 0x40 MLOAD RETURNDATASIZE PUSH1 0x1F NOT PUSH1 0x1F DUP3 ADD AND DUP3 ADD DUP1 PUSH1 0x40 MSTORE POP DUP2 ADD SWAP1 PUSH3 0xBFE SWAP2 SWAP1 PUSH3 0x2446 JUMP JUMPDEST DUP2 SLOAD DUP3 SWAP1 PUSH1 0x15 SWAP1 PUSH3 0xC1C SWAP1 DUP5 SWAP1 PUSH1 0x1 PUSH1 0xA8 SHL SWAP1 DIV PUSH1 0xFF AND PUSH3 0x2466 JUMP JUMPDEST SWAP3 POP PUSH2 0x100 EXP DUP2 SLOAD DUP2 PUSH1 0xFF MUL NOT AND SWAP1 DUP4 PUSH1 0xFF AND MUL OR SWAP1 SSTORE POP DUP2 PUSH1 0x1 PUSH1 0x1 PUSH1 0xA0 SHL SUB AND PUSH4 0xDC3612E9 PUSH1 0x40 MLOAD DUP2 PUSH4 0xFFFFFFFF AND PUSH1 0xE0 SHL DUP2 MSTORE PUSH1 0x4 ADD PUSH1 0x20 PUSH1 0x40 MLOAD DUP1 DUP4 SUB DUP2 DUP7 GAS STATICCALL ISZERO DUP1 ISZERO PUSH3 0xC73 JUMPI RETURNDATASIZE PUSH1 0x0 DUP1 RETURNDATACOPY RETURNDATASIZE PUSH1 0x0 REVERT JUMPDEST POP POP POP POP PUSH1 0x40 MLOAD RETURNDATASIZE PUSH1 0x1F NOT PUSH1 0x1F DUP3 ADD AND DUP3 ADD DUP1 PUSH1 0x40 MSTORE POP DUP2 ADD SWAP1 PUSH3 0xC99 SWAP2 SWAP1 PUSH3 0x248C JUMP JUMPDEST DUP2 PUSH1 0x5 ADD PUSH1 0x0 DUP3 DUP3 SLOAD PUSH3 0xCAE SWAP2 SWAP1 PUSH3 0x2410 JUMP JUMPDEST SWAP3 POP POP DUP2 SWAP1 SSTORE POP DUP2 PUSH1 0x1 PUSH1 0x1 PUSH1 0xA0 SHL SUB AND PUSH4 0x61732581 PUSH1 0x40 MLOAD DUP2 PUSH4 0xFFFFFFFF AND PUSH1 0xE0 SHL DUP2 MSTORE PUSH1 0x4 ADD PUSH1 0x20 PUSH1 0x40 MLOAD DUP1 DUP4 SUB DUP2 DUP7 GAS STATICCALL ISZERO DUP1 ISZERO PUSH3 0xCF4 JUMPI RETURNDATASIZE PUSH1 0x0 DUP1 RETURNDATACOPY RETURNDATASIZE PUSH1 0x0 REVERT JUMPDEST POP POP POP POP PUSH1 0x40 MLOAD RETURNDATASIZE PUSH1 0x1F NOT PUSH1 0x1F DUP3 ADD AND DUP3 ADD DUP1 PUSH1 0x40 MSTORE POP DUP2 ADD SWAP1 PUSH3 0xD1A SWAP2 SWAP1 PUSH3 0x248C JUMP JUMPDEST DUP2 PUSH1 0x4 ADD PUSH1 0x0 DUP3 DUP3 SLOAD PUSH3 0xD2F SWAP2 SWAP1 PUSH3 0x2410 JUMP JUMPDEST SWAP1 SWAP2 SSTORE POP POP POP POP JUMP JUMPDEST PUSH1 0x0 DUP1 PUSH3 0xD4F DUP4 PUSH8 0xDE0B6B3A7640000 PUSH3 0x23AB JUMP JUMPDEST SWAP1 POP PUSH1 0x0 PUSH3 0xD5D PUSH3 0x19BE JUMP JUMPDEST SWAP1 POP PUSH8 0xDE0B6B3A7640000 DUP2 PUSH3 0xD75 DUP3 DUP6 PUSH3 0x23AB JUMP JUMPDEST PUSH3 0xD81 SWAP2 SWAP1 PUSH3 0x23E3 JUMP JUMPDEST PUSH3 0xD8E SWAP1 PUSH1 0x1 PUSH3 0x2390 JUMP JUMPDEST SWAP6 SWAP5 POP POP POP POP POP JUMP JUMPDEST PUSH1 0x8 DUP2 DUP2 SLOAD DUP2 LT PUSH3 0xDA8 JUMPI PUSH1 0x0 DUP1 REVERT JUMPDEST PUSH1 0x0 SWAP2 DUP3 MSTORE PUSH1 0x20 SWAP1 SWAP2 KECCAK256 PUSH1 0x6 SWAP1 SWAP2 MUL ADD DUP1 SLOAD PUSH1 0x1 DUP3 ADD SLOAD PUSH1 0x2 DUP4 ADD SLOAD PUSH1 0x3 DUP5 ADD SLOAD PUSH1 0x4 DUP6 ADD SLOAD PUSH1 0x5 SWAP1 SWAP6 ADD SLOAD PUSH1 0x1 PUSH1 0x1 PUSH1 0xA0 SHL SUB DUP6 AND SWAP7 POP PUSH1 0xFF PUSH1 0x1 PUSH1 0xA0 SHL DUP7 DIV DUP2 AND SWAP7 PUSH1 0x1 PUSH1 0xA8 SHL SWAP1 SWAP7 DIV DUP2 AND SWAP6 DUP4 DUP3 AND SWAP4 PUSH2 0x100 SWAP1 DIV SWAP1 SWAP2 AND SWAP2 DUP10 JUMP JUMPDEST PUSH3 0xE57 PUSH1 0x40 DUP1 MLOAD PUSH2 0x120 DUP2 ADD DUP3 MSTORE PUSH1 0x0 DUP1 DUP3 MSTORE PUSH1 0x20 DUP3 ADD DUP2 SWAP1 MSTORE SWAP2 DUP2 ADD DUP3 SWAP1 MSTORE PUSH1 0x60 DUP2 ADD DUP3 SWAP1 MSTORE PUSH1 0x80 DUP2 ADD DUP3 SWAP1 MSTORE SWAP1 PUSH1 0xA0 DUP3 ADD SWAP1 DUP2 MSTORE PUSH1 0x20 ADD PUSH1 0x0 DUP2 MSTORE PUSH1 0x20 ADD PUSH1 0x0 DUP2 MSTORE PUSH1 0x20 ADD PUSH1 0x0 DUP2 MSTORE POP SWAP1 JUMP JUMPDEST PUSH1 0x8 DUP3 DUP2 SLOAD DUP2 LT PUSH3 0xE6D JUMPI PUSH3 0xE6D PUSH3 0x23FA JUMP JUMPDEST PUSH1 0x0 SWAP2 DUP3 MSTORE PUSH1 0x20 SWAP2 DUP3 SWAP1 KECCAK256 PUSH1 0x40 DUP1 MLOAD PUSH2 0x120 DUP2 ADD DUP3 MSTORE PUSH1 0x6 SWAP1 SWAP4 MUL SWAP1 SWAP2 ADD DUP1 SLOAD PUSH1 0x1 PUSH1 0x1 PUSH1 0xA0 SHL SUB DUP2 AND DUP5 MSTORE PUSH1 0xFF PUSH1 0x1 PUSH1 0xA0 SHL DUP3 DIV DUP2 AND SWAP6 DUP6 ADD SWAP6 SWAP1 SWAP6 MSTORE PUSH1 0x1 PUSH1 0xA8 SHL SWAP1 DIV DUP5 AND SWAP2 DUP4 ADD SWAP2 SWAP1 SWAP2 MSTORE PUSH1 0x1 DUP2 ADD SLOAD PUSH1 0x60 DUP4 ADD MSTORE PUSH1 0x2 DUP2 ADD SLOAD PUSH1 0x80 DUP4 ADD MSTORE PUSH1 0x3 DUP1 DUP3 ADD SLOAD SWAP3 SWAP4 SWAP2 SWAP3 PUSH1 0xA0 DUP6 ADD SWAP3 AND SWAP1 DUP2 GT ISZERO PUSH3 0xEF2 JUMPI PUSH3 0xEF2 PUSH3 0x2005 JUMP JUMPDEST PUSH1 0x3 DUP2 GT ISZERO PUSH3 0xF06 JUMPI PUSH3 0xF06 PUSH3 0x2005 JUMP JUMPDEST DUP2 MSTORE PUSH1 0x20 ADD PUSH1 0x3 DUP3 ADD PUSH1 0x1 SWAP1 SLOAD SWAP1 PUSH2 0x100 EXP SWAP1 DIV PUSH1 0xFF AND PUSH1 0x3 DUP2 GT ISZERO PUSH3 0xF31 JUMPI PUSH3 0xF31 PUSH3 0x2005 JUMP JUMPDEST PUSH1 0x3 DUP2 GT ISZERO PUSH3 0xF45 JUMPI PUSH3 0xF45 PUSH3 0x2005 JUMP JUMPDEST DUP2 MSTORE PUSH1 0x4 DUP3 ADD SLOAD PUSH1 0x20 DUP3 ADD MSTORE PUSH1 0x5 SWAP1 SWAP2 ADD SLOAD PUSH1 0x40 SWAP1 SWAP2 ADD MSTORE SWAP3 SWAP2 POP POP JUMP JUMPDEST PUSH1 0x0 PUSH3 0xF70 DUP3 PUSH3 0x1996 JUMP JUMPDEST CALLVALUE LT ISZERO PUSH3 0xFB8 JUMPI PUSH1 0x40 MLOAD PUSH3 0x461BCD PUSH1 0xE5 SHL DUP2 MSTORE PUSH1 0x20 PUSH1 0x4 DUP3 ADD MSTORE PUSH1 0x14 PUSH1 0x24 DUP3 ADD MSTORE PUSH20 0x1A5B9CDD59999A58DA595B9D081C185E5B595B9D PUSH1 0x62 SHL PUSH1 0x44 DUP3 ADD MSTORE PUSH1 0x64 ADD PUSH3 0x717 JUMP JUMPDEST PUSH3 0xFC3 DUP3 PUSH3 0x1A4D JUMP JUMPDEST DUP1 SLOAD PUSH3 0xFD3 SWAP2 PUSH1 0x3 SWAP2 PUSH3 0x1F14 JUMP JUMPDEST POP PUSH1 0x3 SLOAD PUSH1 0x40 DUP1 MLOAD TIMESTAMP PUSH1 0x20 DUP1 DUP4 ADD SWAP2 SWAP1 SWAP2 MSTORE DIFFICULTY DUP3 DUP5 ADD MSTORE DUP3 MLOAD DUP1 DUP4 SUB DUP5 ADD DUP2 MSTORE PUSH1 0x60 SWAP1 SWAP3 ADD SWAP1 SWAP3 MSTORE DUP1 MLOAD SWAP2 ADD KECCAK256 PUSH1 0x0 SWAP2 PUSH3 0x100E SWAP2 PUSH3 0x24A6 JUMP JUMPDEST SWAP1 POP PUSH1 0x0 PUSH1 0x8 DUP3 DUP2 SLOAD DUP2 LT PUSH3 0x1028 JUMPI PUSH3 0x1028 PUSH3 0x23FA JUMP JUMPDEST SWAP1 PUSH1 0x0 MSTORE PUSH1 0x20 PUSH1 0x0 KECCAK256 SWAP1 PUSH1 0x6 MUL ADD PUSH1 0x0 ADD PUSH1 0x0 SWAP1 SLOAD SWAP1 PUSH2 0x100 EXP SWAP1 DIV PUSH1 0x1 PUSH1 0x1 PUSH1 0xA0 SHL SUB AND SWAP1 POP PUSH1 0x0 CALLVALUE DUP6 PUSH1 0x0 ADD MLOAD DUP7 PUSH1 0x20 ADD MLOAD DUP8 PUSH1 0x40 ADD MLOAD DUP9 PUSH1 0x60 ADD MLOAD DUP10 PUSH1 0xA0 ADD MLOAD DUP11 PUSH1 0xC0 ADD MLOAD DUP12 PUSH1 0x80 ADD MLOAD CALLER DUP11 PUSH1 0x40 MLOAD PUSH3 0x1085 SWAP1 PUSH3 0x1F69 JUMP JUMPDEST PUSH3 0x1099 SWAP10 SWAP9 SWAP8 SWAP7 SWAP6 SWAP5 SWAP4 SWAP3 SWAP2 SWAP1 PUSH3 0x24BD JUMP JUMPDEST PUSH1 0x40 MLOAD DUP1 SWAP2 SUB SWAP1 DUP3 CREATE SWAP1 POP DUP1 ISZERO DUP1 ISZERO PUSH3 0x10B7 JUMPI RETURNDATASIZE PUSH1 0x0 DUP1 RETURNDATACOPY RETURNDATASIZE PUSH1 0x0 REVERT JUMPDEST POP CALLER PUSH1 0x0 SWAP1 DUP2 MSTORE PUSH1 0x5 PUSH1 0x20 SWAP1 DUP2 MSTORE PUSH1 0x40 DUP1 DUP4 KECCAK256 DUP1 SLOAD PUSH1 0x1 PUSH1 0x1 PUSH1 0xA0 SHL SUB NOT AND PUSH1 0x1 PUSH1 0x1 PUSH1 0xA0 SHL SUB DUP7 AND OR SWAP1 SSTORE DUP1 MLOAD SWAP3 DUP4 MSTORE SWAP1 DUP3 ADD SWAP1 DUP2 SWAP1 MSTORE SWAP1 MLOAD SWAP2 SWAP3 POP PUSH3 0x1103 SWAP2 PUSH1 0x3 SWAP2 SWAP1 PUSH3 0x1F77 JUMP JUMPDEST POP SWAP5 SWAP4 POP POP POP POP JUMP JUMPDEST PUSH1 0x0 CALLER SWAP1 POP PUSH1 0x0 PUSH1 0x6 PUSH1 0x0 DUP4 PUSH1 0x1 PUSH1 0x1 PUSH1 0xA0 SHL SUB AND PUSH4 0x7492174F PUSH1 0x40 MLOAD DUP2 PUSH4 0xFFFFFFFF AND PUSH1 0xE0 SHL DUP2 MSTORE PUSH1 0x4 ADD PUSH1 0x20 PUSH1 0x40 MLOAD DUP1 DUP4 SUB DUP2 DUP7 GAS STATICCALL ISZERO DUP1 ISZERO PUSH3 0x1156 JUMPI RETURNDATASIZE PUSH1 0x0 DUP1 RETURNDATACOPY RETURNDATASIZE PUSH1 0x0 REVERT JUMPDEST POP POP POP POP PUSH1 0x40 MLOAD RETURNDATASIZE PUSH1 0x1F NOT PUSH1 0x1F DUP3 ADD AND DUP3 ADD DUP1 PUSH1 0x40 MSTORE POP DUP2 ADD SWAP1 PUSH3 0x117C SWAP2 SWAP1 PUSH3 0x235A JUMP JUMPDEST PUSH1 0x1 PUSH1 0x1 PUSH1 0xA0 SHL SUB AND PUSH1 0x1 PUSH1 0x1 PUSH1 0xA0 SHL SUB AND DUP2 MSTORE PUSH1 0x20 ADD SWAP1 DUP2 MSTORE PUSH1 0x20 ADD PUSH1 0x0 KECCAK256 SWAP1 POP DUP2 PUSH1 0x1 PUSH1 0x1 PUSH1 0xA0 SHL SUB AND PUSH4 0x9B0CA7A PUSH1 0x40 MLOAD DUP2 PUSH4 0xFFFFFFFF AND PUSH1 0xE0 SHL DUP2 MSTORE PUSH1 0x4 ADD PUSH1 0x20 PUSH1 0x40 MLOAD DUP1 DUP4 SUB DUP2 DUP7 GAS STATICCALL ISZERO DUP1 ISZERO PUSH3 0x11DD JUMPI RETURNDATASIZE PUSH1 0x0 DUP1 RETURNDATACOPY RETURNDATASIZE PUSH1 0x0 REVERT JUMPDEST POP POP POP POP PUSH1 0x40 MLOAD RETURNDATASIZE PUSH1 0x1F NOT PUSH1 0x1F DUP3 ADD AND DUP3 ADD DUP1 PUSH1 0x40 MSTORE POP DUP2 ADD SWAP1 PUSH3 0x1203 SWAP2 SWAP1 PUSH3 0x2446 JUMP JUMPDEST DUP2 SLOAD DUP3 SWAP1 PUSH1 0x14 SWAP1 PUSH3 0x1221 SWAP1 DUP5 SWAP1 PUSH1 0x1 PUSH1 0xA0 SHL SWAP1 DIV PUSH1 0xFF AND PUSH3 0x252D JUMP JUMPDEST SWAP3 POP PUSH2 0x100 EXP DUP2 SLOAD DUP2 PUSH1 0xFF MUL NOT AND SWAP1 DUP4 PUSH1 0xFF AND MUL OR SWAP1 SSTORE POP DUP2 PUSH1 0x1 PUSH1 0x1 PUSH1 0xA0 SHL SUB AND PUSH4 0x1A63B100 PUSH1 0x40 MLOAD DUP2 PUSH4 0xFFFFFFFF AND PUSH1 0xE0 SHL DUP2 MSTORE PUSH1 0x4 ADD PUSH1 0x20 PUSH1 0x40 MLOAD DUP1 DUP4 SUB DUP2 DUP7 GAS STATICCALL ISZERO DUP1 ISZERO PUSH3 0x1278 JUMPI RETURNDATASIZE PUSH1 0x0 DUP1 RETURNDATACOPY RETURNDATASIZE PUSH1 0x0 REVERT JUMPDEST POP POP POP POP PUSH1 0x40 MLOAD RETURNDATASIZE PUSH1 0x1F NOT PUSH1 0x1F DUP3 ADD AND DUP3 ADD DUP1 PUSH1 0x40 MSTORE POP DUP2 ADD SWAP1 PUSH3 0x129E SWAP2 SWAP1 PUSH3 0x2446 JUMP JUMPDEST DUP2 SLOAD DUP3 SWAP1 PUSH1 0x15 SWAP1 PUSH3 0x12BC SWAP1 DUP5 SWAP1 PUSH1 0x1 PUSH1 0xA8 SHL SWAP1 DIV PUSH1 0xFF AND PUSH3 0x252D JUMP JUMPDEST SWAP3 POP PUSH2 0x100 EXP DUP2 SLOAD DUP2 PUSH1 0xFF MUL NOT AND SWAP1 DUP4 PUSH1 0xFF AND MUL OR SWAP1 SSTORE POP DUP2 PUSH1 0x1 PUSH1 0x1 PUSH1 0xA0 SHL SUB AND PUSH4 0xDC3612E9 PUSH1 0x40 MLOAD DUP2 PUSH4 0xFFFFFFFF AND PUSH1 0xE0 SHL DUP2 MSTORE PUSH1 0x4 ADD PUSH1 0x20 PUSH1 0x40 MLOAD DUP1 DUP4 SUB DUP2 DUP7 GAS STATICCALL ISZERO DUP1 ISZERO PUSH3 0x1313 JUMPI RETURNDATASIZE PUSH1 0x0 DUP1 RETURNDATACOPY RETURNDATASIZE PUSH1 0x0 REVERT JUMPDEST POP POP POP POP PUSH1 0x40 MLOAD RETURNDATASIZE PUSH1 0x1F NOT PUSH1 0x1F DUP3 ADD AND DUP3 ADD DUP1 PUSH1 0x40 MSTORE POP DUP2 ADD SWAP1 PUSH3 0x1339 SWAP2 SWAP1 PUSH3 0x248C JUMP JUMPDEST DUP2 PUSH1 0x5 ADD PUSH1 0x0 DUP3 DUP3 SLOAD PUSH3 0x134E SWAP2 SWAP1 PUSH3 0x2390 JUMP JUMPDEST SWAP3 POP POP DUP2 SWAP1 SSTORE POP DUP2 PUSH1 0x1 PUSH1 0x1 PUSH1 0xA0 SHL SUB AND PUSH4 0x61732581 PUSH1 0x40 MLOAD DUP2 PUSH4 0xFFFFFFFF AND PUSH1 0xE0 SHL DUP2 MSTORE PUSH1 0x4 ADD PUSH1 0x20 PUSH1 0x40 MLOAD DUP1 DUP4 SUB DUP2 DUP7 GAS STATICCALL ISZERO DUP1 ISZERO PUSH3 0x1394 JUMPI RETURNDATASIZE PUSH1 0x0 DUP1 RETURNDATACOPY RETURNDATASIZE PUSH1 0x0 REVERT JUMPDEST POP POP POP POP PUSH1 0x40 MLOAD RETURNDATASIZE PUSH1 0x1F NOT PUSH1 0x1F DUP3 ADD AND DUP3 ADD DUP1 PUSH1 0x40 MSTORE POP DUP2 ADD SWAP1 PUSH3 0x13BA SWAP2 SWAP1 PUSH3 0x248C JUMP JUMPDEST DUP2 PUSH1 0x4 ADD PUSH1 0x0 DUP3 DUP3 SLOAD PUSH3 0xD2F SWAP2 SWAP1 PUSH3 0x2390 JUMP JUMPDEST PUSH1 0x0 DUP1 PUSH3 0x13DC PUSH3 0x19BE JUMP JUMPDEST SWAP1 POP PUSH1 0x0 PUSH8 0xDE0B6B3A7640000 PUSH3 0x13F5 DUP6 DUP5 PUSH3 0x23AB JUMP JUMPDEST PUSH3 0x1401 SWAP2 SWAP1 PUSH3 0x23E3 JUMP JUMPDEST SWAP5 SWAP4 POP POP POP POP JUMP JUMPDEST PUSH1 0x1 DUP9 PUSH1 0xFF AND LT ISZERO PUSH3 0x145F JUMPI PUSH1 0x40 MLOAD PUSH3 0x461BCD PUSH1 0xE5 SHL DUP2 MSTORE PUSH1 0x20 PUSH1 0x4 DUP3 ADD MSTORE PUSH1 0x1E PUSH1 0x24 DUP3 ADD MSTORE PUSH32 0x4D7573742068617665206174206C6561737420322043505520636F7265730000 PUSH1 0x44 DUP3 ADD MSTORE PUSH1 0x64 ADD PUSH3 0x717 JUMP JUMPDEST PUSH3 0x146D TIMESTAMP PUSH2 0x1C20 PUSH3 0x2390 JUMP JUMPDEST DUP7 GT PUSH3 0x14D2 JUMPI PUSH1 0x40 MLOAD PUSH3 0x461BCD PUSH1 0xE5 SHL DUP2 MSTORE PUSH1 0x20 PUSH1 0x4 DUP3 ADD MSTORE PUSH1 0x2C PUSH1 0x24 DUP3 ADD MSTORE PUSH32 0x5068616573747573206D757374206265206F6E6C696E6520666F72206174206C PUSH1 0x44 DUP3 ADD MSTORE PUSH12 0x65617374203220686F757273 PUSH1 0xA0 SHL PUSH1 0x64 DUP3 ADD MSTORE PUSH1 0x84 ADD PUSH3 0x717 JUMP JUMPDEST PUSH1 0xFF DUP8 AND ISZERO PUSH3 0x154E JUMPI PUSH1 0x0 DUP5 PUSH1 0x3 DUP2 GT ISZERO PUSH3 0x14F3 JUMPI PUSH3 0x14F3 PUSH3 0x2005 JUMP JUMPDEST SUB PUSH3 0x154E JUMPI PUSH1 0x40 MLOAD PUSH3 0x461BCD PUSH1 0xE5 SHL DUP2 MSTORE PUSH1 0x20 PUSH1 0x4 DUP3 ADD MSTORE PUSH1 0x23 PUSH1 0x24 DUP3 ADD MSTORE PUSH32 0x596F7520686176652061204750552E2053706563696679207479706520706C65 PUSH1 0x44 DUP3 ADD MSTORE PUSH3 0x617365 PUSH1 0xE8 SHL PUSH1 0x64 DUP3 ADD MSTORE PUSH1 0x84 ADD PUSH3 0x717 JUMP JUMPDEST PUSH1 0x8 PUSH1 0x40 MLOAD DUP1 PUSH2 0x120 ADD PUSH1 0x40 MSTORE DUP1 CALLER PUSH1 0x1 PUSH1 0x1 PUSH1 0xA0 SHL SUB AND DUP2 MSTORE PUSH1 0x20 ADD DUP11 PUSH1 0xFF AND DUP2 MSTORE PUSH1 0x20 ADD DUP10 PUSH1 0xFF AND DUP2 MSTORE PUSH1 0x20 ADD DUP9 DUP2 MSTORE PUSH1 0x20 ADD DUP8 DUP2 MSTORE PUSH1 0x20 ADD DUP7 PUSH1 0x3 DUP2 GT ISZERO PUSH3 0x159E JUMPI PUSH3 0x159E PUSH3 0x2005 JUMP JUMPDEST DUP2 MSTORE PUSH1 0x20 ADD DUP6 PUSH1 0x3 DUP2 GT ISZERO PUSH3 0x15B8 JUMPI PUSH3 0x15B8 PUSH3 0x2005 JUMP JUMPDEST DUP2 MSTORE PUSH1 0x20 DUP1 DUP3 ADD DUP7 SWAP1 MSTORE PUSH1 0x40 SWAP2 DUP3 ADD DUP6 SWAP1 MSTORE DUP4 SLOAD PUSH1 0x1 DUP2 DUP2 ADD DUP7 SSTORE PUSH1 0x0 SWAP6 DUP7 MSTORE SWAP5 DUP3 SWAP1 KECCAK256 DUP5 MLOAD PUSH1 0x6 SWAP1 SWAP3 MUL ADD DUP1 SLOAD SWAP3 DUP6 ADD MLOAD SWAP4 DUP6 ADD MLOAD PUSH1 0xFF SWAP1 DUP2 AND PUSH1 0x1 PUSH1 0xA8 SHL MUL PUSH1 0xFF PUSH1 0xA8 SHL NOT SWAP2 SWAP1 SWAP6 AND PUSH1 0x1 PUSH1 0xA0 SHL MUL PUSH1 0x1 PUSH1 0x1 PUSH1 0xA8 SHL SUB NOT SWAP1 SWAP5 AND PUSH1 0x1 PUSH1 0x1 PUSH1 0xA0 SHL SUB SWAP1 SWAP4 AND SWAP3 SWAP1 SWAP3 OR SWAP3 SWAP1 SWAP3 OR AND SWAP2 SWAP1 SWAP2 OR DUP2 SSTORE PUSH1 0x60 DUP3 ADD MLOAD DUP2 DUP5 ADD SSTORE PUSH1 0x80 DUP3 ADD MLOAD PUSH1 0x2 DUP3 ADD SSTORE PUSH1 0xA0 DUP3 ADD MLOAD PUSH1 0x3 DUP1 DUP4 ADD DUP1 SLOAD SWAP5 SWAP6 SWAP4 SWAP5 SWAP3 SWAP4 SWAP1 SWAP3 PUSH1 0xFF NOT AND SWAP2 DUP5 SWAP1 DUP2 GT ISZERO PUSH3 0x166F JUMPI PUSH3 0x166F PUSH3 0x2005 JUMP JUMPDEST MUL OR SWAP1 SSTORE POP PUSH1 0xC0 DUP3 ADD MLOAD DUP2 PUSH1 0x3 ADD PUSH1 0x1 PUSH2 0x100 EXP DUP2 SLOAD DUP2 PUSH1 0xFF MUL NOT AND SWAP1 DUP4 PUSH1 0x3 DUP2 GT ISZERO PUSH3 0x16A1 JUMPI PUSH3 0x16A1 PUSH3 0x2005 JUMP JUMPDEST MUL OR SWAP1 SSTORE POP PUSH1 0xE0 DUP3 ADD MLOAD PUSH1 0x4 DUP3 ADD SSTORE PUSH2 0x100 SWAP1 SWAP2 ADD MLOAD PUSH1 0x5 SWAP1 SWAP2 ADD SSTORE PUSH1 0x8 DUP1 SLOAD PUSH3 0x16CF SWAP1 PUSH1 0x1 SWAP1 PUSH3 0x2410 JUMP JUMPDEST DUP2 SLOAD DUP2 LT PUSH3 0x16E2 JUMPI PUSH3 0x16E2 PUSH3 0x23FA JUMP JUMPDEST PUSH1 0x0 SWAP2 DUP3 MSTORE PUSH1 0x20 DUP1 DUP4 KECCAK256 CALLER DUP5 MSTORE PUSH1 0x6 SWAP2 DUP3 SWAP1 MSTORE PUSH1 0x40 SWAP1 SWAP4 KECCAK256 SWAP2 MUL SWAP1 SWAP2 ADD DUP1 SLOAD DUP3 SLOAD PUSH1 0x1 PUSH1 0x1 PUSH1 0xA0 SHL SUB SWAP1 SWAP2 AND PUSH1 0x1 PUSH1 0x1 PUSH1 0xA0 SHL SUB NOT DUP3 AND DUP2 OR DUP5 SSTORE DUP3 SLOAD PUSH1 0x1 PUSH1 0x1 PUSH1 0xA8 SHL SUB NOT SWAP1 SWAP3 AND OR PUSH1 0x1 PUSH1 0xA0 SHL SWAP2 DUP3 SWAP1 DIV PUSH1 0xFF SWAP1 DUP2 AND SWAP1 SWAP3 MUL OR DUP1 DUP5 SSTORE DUP3 SLOAD PUSH1 0xFF PUSH1 0xA8 SHL NOT SWAP1 SWAP2 AND PUSH1 0x1 PUSH1 0xA8 SHL SWAP2 DUP3 SWAP1 DIV DUP4 AND SWAP1 SWAP2 MUL OR DUP4 SSTORE PUSH1 0x1 DUP1 DUP4 ADD SLOAD DUP2 DUP6 ADD SSTORE PUSH1 0x2 DUP1 DUP5 ADD SLOAD SWAP1 DUP6 ADD SSTORE PUSH1 0x3 DUP1 DUP5 ADD SLOAD DUP2 DUP7 ADD DUP1 SLOAD SWAP6 SWAP7 SWAP6 SWAP2 SWAP1 SWAP5 AND SWAP4 SWAP3 PUSH1 0xFF NOT SWAP1 SWAP2 AND SWAP2 DUP5 SWAP1 DUP2 GT ISZERO PUSH3 0x17A0 JUMPI PUSH3 0x17A0 PUSH3 0x2005 JUMP JUMPDEST MUL OR SWAP1 SSTORE POP PUSH1 0x3 DUP3 DUP2 ADD SLOAD DUP3 DUP3 ADD DUP1 SLOAD PUSH1 0xFF PUSH2 0x100 SWAP4 DUP5 SWAP1 DIV AND SWAP4 SWAP2 SWAP3 PUSH2 0xFF00 NOT SWAP1 SWAP2 AND SWAP2 DUP5 SWAP1 DUP2 GT ISZERO PUSH3 0x17D9 JUMPI PUSH3 0x17D9 PUSH3 0x2005 JUMP JUMPDEST MUL OR SWAP1 SSTORE POP PUSH1 0x4 DUP3 DUP2 ADD SLOAD SWAP1 DUP3 ADD SSTORE PUSH1 0x5 SWAP2 DUP3 ADD SLOAD SWAP2 ADD SSTORE POP POP CALLER PUSH1 0x0 SWAP1 DUP2 MSTORE PUSH1 0x7 PUSH1 0x20 MSTORE PUSH1 0x40 SWAP1 KECCAK256 DUP1 SLOAD PUSH1 0xFF NOT AND SWAP1 SSTORE POP POP POP POP POP POP JUMP JUMPDEST PUSH1 0x60 PUSH1 0x8 DUP1 SLOAD DUP1 PUSH1 0x20 MUL PUSH1 0x20 ADD PUSH1 0x40 MLOAD SWAP1 DUP2 ADD PUSH1 0x40 MSTORE DUP1 SWAP3 SWAP2 SWAP1 DUP2 DUP2 MSTORE PUSH1 0x20 ADD PUSH1 0x0 SWAP1 JUMPDEST DUP3 DUP3 LT ISZERO PUSH3 0x193E JUMPI PUSH1 0x0 DUP5 DUP2 MSTORE PUSH1 0x20 SWAP1 DUP2 SWAP1 KECCAK256 PUSH1 0x40 DUP1 MLOAD PUSH2 0x120 DUP2 ADD DUP3 MSTORE PUSH1 0x6 DUP7 MUL SWAP1 SWAP3 ADD DUP1 SLOAD PUSH1 0x1 PUSH1 0x1 PUSH1 0xA0 SHL SUB DUP2 AND DUP5 MSTORE PUSH1 0xFF PUSH1 0x1 PUSH1 0xA0 SHL DUP3 DIV DUP2 AND SWAP6 DUP6 ADD SWAP6 SWAP1 SWAP6 MSTORE PUSH1 0x1 PUSH1 0xA8 SHL SWAP1 DIV DUP5 AND SWAP2 DUP4 ADD SWAP2 SWAP1 SWAP2 MSTORE PUSH1 0x1 DUP2 ADD SLOAD PUSH1 0x60 DUP4 ADD MSTORE PUSH1 0x2 DUP2 ADD SLOAD PUSH1 0x80 DUP4 ADD MSTORE PUSH1 0x3 DUP1 DUP3 ADD SLOAD SWAP3 SWAP4 SWAP2 SWAP3 PUSH1 0xA0 DUP6 ADD SWAP3 AND SWAP1 DUP2 GT ISZERO PUSH3 0x18C3 JUMPI PUSH3 0x18C3 PUSH3 0x2005 JUMP JUMPDEST PUSH1 0x3 DUP2 GT ISZERO PUSH3 0x18D7 JUMPI PUSH3 0x18D7 PUSH3 0x2005 JUMP JUMPDEST DUP2 MSTORE PUSH1 0x20 ADD PUSH1 0x3 DUP3 ADD PUSH1 0x1 SWAP1 SLOAD SWAP1 PUSH2 0x100 EXP SWAP1 DIV PUSH1 0xFF AND PUSH1 0x3 DUP2 GT ISZERO PUSH3 0x1902 JUMPI PUSH3 0x1902 PUSH3 0x2005 JUMP JUMPDEST PUSH1 0x3 DUP2 GT ISZERO PUSH3 0x1916 JUMPI PUSH3 0x1916 PUSH3 0x2005 JUMP JUMPDEST DUP2 MSTORE PUSH1 0x20 ADD PUSH1 0x4 DUP3 ADD SLOAD DUP2 MSTORE PUSH1 0x20 ADD PUSH1 0x5 DUP3 ADD SLOAD DUP2 MSTORE POP POP DUP2 MSTORE PUSH1 0x20 ADD SWAP1 PUSH1 0x1 ADD SWAP1 PUSH3 0x1836 JUMP JUMPDEST POP POP POP POP SWAP1 POP SWAP1 JUMP JUMPDEST PUSH1 0x0 DUP1 PUSH3 0x1955 DUP4 PUSH3 0x1CE6 JUMP JUMPDEST SWAP1 POP PUSH1 0x0 DUP4 PUSH1 0x40 ADD MLOAD PUSH2 0xFFFF AND PUSH1 0x8 DUP4 DUP2 SLOAD DUP2 LT PUSH3 0x1978 JUMPI PUSH3 0x1978 PUSH3 0x23FA JUMP JUMPDEST SWAP1 PUSH1 0x0 MSTORE PUSH1 0x20 PUSH1 0x0 KECCAK256 SWAP1 PUSH1 0x6 MUL ADD PUSH1 0x2 ADD SLOAD PUSH3 0x1401 SWAP2 SWAP1 PUSH3 0x23AB JUMP JUMPDEST PUSH1 0x0 DUP1 PUSH1 0x1 SLOAD PUSH3 0x19AB PUSH3 0x28F DUP6 PUSH3 0x1947 JUMP JUMPDEST PUSH3 0x19B7 SWAP2 SWAP1 PUSH3 0x23E3 JUMP JUMPDEST SWAP4 SWAP3 POP POP POP JUMP JUMPDEST PUSH1 0x4 DUP1 SLOAD PUSH1 0x40 DUP1 MLOAD PUSH4 0x3FABE5A3 PUSH1 0xE2 SHL DUP2 MSTORE SWAP1 MLOAD PUSH1 0x0 SWAP4 DUP5 SWAP4 PUSH1 0x1 PUSH1 0x1 PUSH1 0xA0 SHL SUB AND SWAP3 PUSH4 0xFEAF968C SWAP3 DUP2 DUP4 ADD SWAP3 PUSH1 0xA0 SWAP3 DUP3 SWAP1 SUB ADD DUP2 DUP7 GAS STATICCALL ISZERO DUP1 ISZERO PUSH3 0x1A08 JUMPI RETURNDATASIZE PUSH1 0x0 DUP1 RETURNDATACOPY RETURNDATASIZE PUSH1 0x0 REVERT JUMPDEST POP POP POP POP PUSH1 0x40 MLOAD RETURNDATASIZE PUSH1 0x1F NOT PUSH1 0x1F DUP3 ADD AND DUP3 ADD DUP1 PUSH1 0x40 MSTORE POP DUP2 ADD SWAP1 PUSH3 0x1A2E SWAP2 SWAP1 PUSH3 0x2570 JUMP JUMPDEST POP POP POP SWAP2 POP POP DUP1 PUSH5 0x2540BE400 PUSH3 0x1A47 SWAP2 SWAP1 PUSH3 0x25C5 JUMP JUMPDEST SWAP2 POP POP SWAP1 JUMP JUMPDEST PUSH1 0x0 DUP1 PUSH3 0x1A5B DUP4 PUSH3 0x1CE6 JUMP JUMPDEST SWAP1 POP PUSH1 0x0 PUSH1 0x8 DUP3 DUP2 SLOAD DUP2 LT PUSH3 0x1A75 JUMPI PUSH3 0x1A75 PUSH3 0x23FA JUMP JUMPDEST PUSH1 0x0 SWAP2 DUP3 MSTORE PUSH1 0x20 SWAP2 DUP3 SWAP1 KECCAK256 PUSH1 0x40 DUP1 MLOAD PUSH2 0x120 DUP2 ADD DUP3 MSTORE PUSH1 0x6 SWAP1 SWAP4 MUL SWAP1 SWAP2 ADD DUP1 SLOAD PUSH1 0x1 PUSH1 0x1 PUSH1 0xA0 SHL SUB DUP2 AND DUP5 MSTORE PUSH1 0xFF PUSH1 0x1 PUSH1 0xA0 SHL DUP3 DIV DUP2 AND SWAP6 DUP6 ADD SWAP6 SWAP1 SWAP6 MSTORE PUSH1 0x1 PUSH1 0xA8 SHL SWAP1 DIV DUP5 AND SWAP2 DUP4 ADD SWAP2 SWAP1 SWAP2 MSTORE PUSH1 0x1 DUP2 ADD SLOAD PUSH1 0x60 DUP4 ADD MSTORE PUSH1 0x2 DUP2 ADD SLOAD PUSH1 0x80 DUP4 ADD MSTORE PUSH1 0x3 DUP1 DUP3 ADD SLOAD SWAP3 SWAP4 SWAP2 SWAP3 PUSH1 0xA0 DUP6 ADD SWAP3 AND SWAP1 DUP2 GT ISZERO PUSH3 0x1AFA JUMPI PUSH3 0x1AFA PUSH3 0x2005 JUMP JUMPDEST PUSH1 0x3 DUP2 GT ISZERO PUSH3 0x1B0E JUMPI PUSH3 0x1B0E PUSH3 0x2005 JUMP JUMPDEST DUP2 MSTORE PUSH1 0x20 ADD PUSH1 0x3 DUP3 ADD PUSH1 0x1 SWAP1 SLOAD SWAP1 PUSH2 0x100 EXP SWAP1 DIV PUSH1 0xFF AND PUSH1 0x3 DUP2 GT ISZERO PUSH3 0x1B39 JUMPI PUSH3 0x1B39 PUSH3 0x2005 JUMP JUMPDEST PUSH1 0x3 DUP2 GT ISZERO PUSH3 0x1B4D JUMPI PUSH3 0x1B4D PUSH3 0x2005 JUMP JUMPDEST DUP2 MSTORE PUSH1 0x20 ADD PUSH1 0x4 DUP3 ADD SLOAD DUP2 MSTORE PUSH1 0x20 ADD PUSH1 0x5 DUP3 ADD SLOAD DUP2 MSTORE POP POP SWAP1 POP PUSH1 0x0 JUMPDEST PUSH1 0x8 SLOAD DUP2 LT ISZERO PUSH3 0x1CDB JUMPI PUSH1 0x0 PUSH1 0x8 DUP3 DUP2 SLOAD DUP2 LT PUSH3 0x1B8D JUMPI PUSH3 0x1B8D PUSH3 0x23FA JUMP JUMPDEST PUSH1 0x0 SWAP2 DUP3 MSTORE PUSH1 0x20 SWAP2 DUP3 SWAP1 KECCAK256 PUSH1 0x40 DUP1 MLOAD PUSH2 0x120 DUP2 ADD DUP3 MSTORE PUSH1 0x6 SWAP1 SWAP4 MUL SWAP1 SWAP2 ADD DUP1 SLOAD PUSH1 0x1 PUSH1 0x1 PUSH1 0xA0 SHL SUB DUP2 AND DUP5 MSTORE PUSH1 0xFF PUSH1 0x1 PUSH1 0xA0 SHL DUP3 DIV DUP2 AND SWAP6 DUP6 ADD SWAP6 SWAP1 SWAP6 MSTORE PUSH1 0x1 PUSH1 0xA8 SHL SWAP1 DIV DUP5 AND SWAP2 DUP4 ADD SWAP2 SWAP1 SWAP2 MSTORE PUSH1 0x1 DUP2 ADD SLOAD PUSH1 0x60 DUP4 ADD MSTORE PUSH1 0x2 DUP2 ADD SLOAD PUSH1 0x80 DUP4 ADD MSTORE PUSH1 0x3 DUP1 DUP3 ADD SLOAD SWAP3 SWAP4 SWAP2 SWAP3 PUSH1 0xA0 DUP6 ADD SWAP3 AND SWAP1 DUP2 GT ISZERO PUSH3 0x1C12 JUMPI PUSH3 0x1C12 PUSH3 0x2005 JUMP JUMPDEST PUSH1 0x3 DUP2 GT ISZERO PUSH3 0x1C26 JUMPI PUSH3 0x1C26 PUSH3 0x2005 JUMP JUMPDEST DUP2 MSTORE PUSH1 0x20 ADD PUSH1 0x3 DUP3 ADD PUSH1 0x1 SWAP1 SLOAD SWAP1 PUSH2 0x100 EXP SWAP1 DIV PUSH1 0xFF AND PUSH1 0x3 DUP2 GT ISZERO PUSH3 0x1C51 JUMPI PUSH3 0x1C51 PUSH3 0x2005 JUMP JUMPDEST PUSH1 0x3 DUP2 GT ISZERO PUSH3 0x1C65 JUMPI PUSH3 0x1C65 PUSH3 0x2005 JUMP JUMPDEST DUP2 MSTORE PUSH1 0x20 ADD PUSH1 0x4 DUP3 ADD SLOAD DUP2 MSTORE PUSH1 0x20 ADD PUSH1 0x5 DUP3 ADD SLOAD DUP2 MSTORE POP POP SWAP1 POP DUP3 PUSH1 0x80 ADD MLOAD DUP2 PUSH1 0x80 ADD MLOAD SUB PUSH3 0x1CC5 JUMPI PUSH1 0x3 DUP1 SLOAD PUSH1 0x1 DUP2 ADD DUP3 SSTORE PUSH1 0x0 SWAP2 SWAP1 SWAP2 MSTORE PUSH32 0xC2575A0E9E593C00F959F8C92F12DB2869C3395A3B0502D05E2516446F71F85B ADD DUP3 SWAP1 SSTORE JUMPDEST POP DUP1 PUSH3 0x1CD2 DUP2 PUSH3 0x242A JUMP JUMPDEST SWAP2 POP POP PUSH3 0x1B6A JUMP JUMPDEST POP PUSH1 0x3 SWAP5 SWAP4 POP POP POP POP JUMP JUMPDEST PUSH1 0x2 SLOAD PUSH1 0x0 SWAP1 DUP1 DUP3 JUMPDEST PUSH1 0x8 SLOAD DUP2 LT ISZERO PUSH3 0x1F0B JUMPI PUSH1 0x0 PUSH1 0x8 DUP3 DUP2 SLOAD DUP2 LT PUSH3 0x1D12 JUMPI PUSH3 0x1D12 PUSH3 0x23FA JUMP JUMPDEST PUSH1 0x0 SWAP2 DUP3 MSTORE PUSH1 0x20 SWAP2 DUP3 SWAP1 KECCAK256 PUSH1 0x40 DUP1 MLOAD PUSH2 0x120 DUP2 ADD DUP3 MSTORE PUSH1 0x6 SWAP1 SWAP4 MUL SWAP1 SWAP2 ADD DUP1 SLOAD PUSH1 0x1 PUSH1 0x1 PUSH1 0xA0 SHL SUB DUP2 AND DUP5 MSTORE PUSH1 0xFF PUSH1 0x1 PUSH1 0xA0 SHL DUP3 DIV DUP2 AND SWAP6 DUP6 ADD SWAP6 SWAP1 SWAP6 MSTORE PUSH1 0x1 PUSH1 0xA8 SHL SWAP1 DIV DUP5 AND SWAP2 DUP4 ADD SWAP2 SWAP1 SWAP2 MSTORE PUSH1 0x1 DUP2 ADD SLOAD PUSH1 0x60 DUP4 ADD MSTORE PUSH1 0x2 DUP2 ADD SLOAD PUSH1 0x80 DUP4 ADD MSTORE PUSH1 0x3 DUP1 DUP3 ADD SLOAD SWAP3 SWAP4 SWAP2 SWAP3 PUSH1 0xA0 DUP6 ADD SWAP3 AND SWAP1 DUP2 GT ISZERO PUSH3 0x1D97 JUMPI PUSH3 0x1D97 PUSH3 0x2005 JUMP JUMPDEST PUSH1 0x3 DUP2 GT ISZERO PUSH3 0x1DAB JUMPI PUSH3 0x1DAB PUSH3 0x2005 JUMP JUMPDEST DUP2 MSTORE PUSH1 0x20 ADD PUSH1 0x3 DUP3 ADD PUSH1 0x1 SWAP1 SLOAD SWAP1 PUSH2 0x100 EXP SWAP1 DIV PUSH1 0xFF AND PUSH1 0x3 DUP2 GT ISZERO PUSH3 0x1DD6 JUMPI PUSH3 0x1DD6 PUSH3 0x2005 JUMP JUMPDEST PUSH1 0x3 DUP2 GT ISZERO PUSH3 0x1DEA JUMPI PUSH3 0x1DEA PUSH3 0x2005 JUMP JUMPDEST DUP2 MSTORE PUSH1 0x20 ADD PUSH1 0x4 DUP3 ADD SLOAD DUP2 MSTORE PUSH1 0x20 ADD PUSH1 0x5 DUP3 ADD SLOAD DUP2 MSTORE POP POP SWAP1 POP DUP6 PUSH1 0x0 ADD MLOAD PUSH1 0xFF AND DUP2 PUSH1 0x20 ADD MLOAD PUSH1 0xFF AND LT ISZERO DUP1 ISZERO PUSH3 0x1E31 JUMPI POP DUP6 PUSH1 0x20 ADD MLOAD PUSH1 0xFF AND DUP2 PUSH1 0x40 ADD MLOAD PUSH1 0xFF AND LT ISZERO JUMPDEST DUP1 ISZERO PUSH3 0x1E46 JUMPI POP DUP6 PUSH1 0xA0 ADD MLOAD DUP2 PUSH1 0xE0 ADD MLOAD LT ISZERO JUMPDEST DUP1 ISZERO PUSH3 0x1E5C JUMPI POP DUP6 PUSH1 0xC0 ADD MLOAD DUP2 PUSH2 0x100 ADD MLOAD LT ISZERO JUMPDEST DUP1 ISZERO PUSH3 0x1E98 JUMPI POP DUP6 PUSH1 0x60 ADD MLOAD PUSH1 0x3 DUP2 GT ISZERO PUSH3 0x1E7D JUMPI PUSH3 0x1E7D PUSH3 0x2005 JUMP JUMPDEST DUP2 PUSH1 0xA0 ADD MLOAD PUSH1 0x3 DUP2 GT ISZERO PUSH3 0x1E96 JUMPI PUSH3 0x1E96 PUSH3 0x2005 JUMP JUMPDEST EQ JUMPDEST DUP1 ISZERO PUSH3 0x1ED4 JUMPI POP DUP6 PUSH1 0x80 ADD MLOAD PUSH1 0x3 DUP2 GT ISZERO PUSH3 0x1EB9 JUMPI PUSH3 0x1EB9 PUSH3 0x2005 JUMP JUMPDEST DUP2 PUSH1 0xC0 ADD MLOAD PUSH1 0x3 DUP2 GT ISZERO PUSH3 0x1ED2 JUMPI PUSH3 0x1ED2 PUSH3 0x2005 JUMP JUMPDEST EQ JUMPDEST DUP1 ISZERO PUSH3 0x1EE4 JUMPI POP DUP1 PUSH1 0x80 ADD MLOAD DUP4 GT JUMPDEST ISZERO PUSH3 0x1EF5 JUMPI DUP1 PUSH1 0x80 ADD MLOAD SWAP3 POP DUP2 SWAP4 POP JUMPDEST POP DUP1 PUSH3 0x1F02 DUP2 PUSH3 0x242A JUMP JUMPDEST SWAP2 POP POP PUSH3 0x1CEF JUMP JUMPDEST POP SWAP1 SWAP4 SWAP3 POP POP POP JUMP JUMPDEST DUP3 DUP1 SLOAD DUP3 DUP3 SSTORE SWAP1 PUSH1 0x0 MSTORE PUSH1 0x20 PUSH1 0x0 KECCAK256 SWAP1 DUP2 ADD SWAP3 DUP3 ISZERO PUSH3 0x1F57 JUMPI PUSH1 0x0 MSTORE PUSH1 0x20 PUSH1 0x0 KECCAK256 SWAP2 DUP3 ADD JUMPDEST DUP3 DUP2 GT ISZERO PUSH3 0x1F57 JUMPI DUP3 SLOAD DUP3 SSTORE SWAP2 PUSH1 0x1 ADD SWAP2 SWAP1 PUSH1 0x1 ADD SWAP1 PUSH3 0x1F3A JUMP JUMPDEST POP PUSH3 0x1F65 SWAP3 SWAP2 POP PUSH3 0x1FB5 JUMP JUMPDEST POP SWAP1 JUMP JUMPDEST PUSH2 0x1693 DUP1 PUSH3 0x2657 DUP4 CODECOPY ADD SWAP1 JUMP JUMPDEST DUP3 DUP1 SLOAD DUP3 DUP3 SSTORE SWAP1 PUSH1 0x0 MSTORE PUSH1 0x20 PUSH1 0x0 KECCAK256 SWAP1 DUP2 ADD SWAP3 DUP3 ISZERO PUSH3 0x1F57 JUMPI SWAP2 PUSH1 0x20 MUL DUP3 ADD JUMPDEST DUP3 DUP2 GT ISZERO PUSH3 0x1F57 JUMPI DUP3 MLOAD DUP3 SSTORE SWAP2 PUSH1 0x20 ADD SWAP2 SWAP1 PUSH1 0x1 ADD SWAP1 PUSH3 0x1F98 JUMP JUMPDEST JUMPDEST DUP1 DUP3 GT ISZERO PUSH3 0x1F65 JUMPI PUSH1 0x0 DUP2 SSTORE PUSH1 0x1 ADD PUSH3 0x1FB6 JUMP JUMPDEST PUSH1 0x1 PUSH1 0x1 PUSH1 0xA0 SHL SUB DUP2 AND DUP2 EQ PUSH3 0x1FE2 JUMPI PUSH1 0x0 DUP1 REVERT JUMPDEST POP JUMP JUMPDEST PUSH1 0x0 PUSH1 0x20 DUP3 DUP5 SUB SLT ISZERO PUSH3 0x1FF8 JUMPI PUSH1 0x0 DUP1 REVERT JUMPDEST DUP2 CALLDATALOAD PUSH3 0x19B7 DUP2 PUSH3 0x1FCC JUMP JUMPDEST PUSH4 0x4E487B71 PUSH1 0xE0 SHL PUSH1 0x0 MSTORE PUSH1 0x21 PUSH1 0x4 MSTORE PUSH1 0x24 PUSH1 0x0 REVERT JUMPDEST PUSH1 0x4 DUP2 LT PUSH3 0x1FE2 JUMPI PUSH4 0x4E487B71 PUSH1 0xE0 SHL PUSH1 0x0 MSTORE PUSH1 0x21 PUSH1 0x4 MSTORE PUSH1 0x24 PUSH1 0x0 REVERT JUMPDEST PUSH3 0x2045 DUP2 PUSH3 0x201B JUMP JUMPDEST SWAP1 MSTORE JUMP JUMPDEST PUSH1 0x1 PUSH1 0x1 PUSH1 0xA0 SHL SUB DUP11 AND DUP2 MSTORE PUSH1 0xFF DUP10 DUP2 AND PUSH1 0x20 DUP4 ADD MSTORE DUP9 AND PUSH1 0x40 DUP3 ADD MSTORE PUSH1 0x60 DUP2 ADD DUP8 SWAP1 MSTORE PUSH1 0x80 DUP2 ADD DUP7 SWAP1 MSTORE PUSH2 0x120 DUP2 ADD PUSH3 0x2084 DUP7 PUSH3 0x201B JUMP JUMPDEST DUP6 PUSH1 0xA0 DUP4 ADD MSTORE PUSH3 0x2095 DUP6 PUSH3 0x201B JUMP JUMPDEST DUP5 PUSH1 0xC0 DUP4 ADD MSTORE DUP4 PUSH1 0xE0 DUP4 ADD MSTORE DUP3 PUSH2 0x100 DUP4 ADD MSTORE SWAP11 SWAP10 POP POP POP POP POP POP POP POP POP POP JUMP JUMPDEST PUSH1 0x0 PUSH1 0x20 DUP3 DUP5 SUB SLT ISZERO PUSH3 0x20C9 JUMPI PUSH1 0x0 DUP1 REVERT JUMPDEST POP CALLDATALOAD SWAP2 SWAP1 POP JUMP JUMPDEST DUP1 MLOAD PUSH1 0x1 PUSH1 0x1 PUSH1 0xA0 SHL SUB AND DUP3 MSTORE PUSH1 0x20 DUP1 DUP3 ADD MLOAD PUSH1 0xFF AND SWAP1 DUP4 ADD MSTORE PUSH1 0x40 DUP1 DUP3 ADD MLOAD SWAP1 PUSH3 0x2100 SWAP1 DUP5 ADD DUP3 PUSH1 0xFF AND SWAP1 MSTORE JUMP JUMPDEST POP PUSH1 0x60 DUP2 ADD MLOAD PUSH1 0x60 DUP4 ADD MSTORE PUSH1 0x80 DUP2 ADD MLOAD PUSH1 0x80 DUP4 ADD MSTORE PUSH1 0xA0 DUP2 ADD MLOAD PUSH3 0x2129 PUSH1 0xA0 DUP5 ADD DUP3 PUSH3 0x203A JUMP JUMPDEST POP PUSH1 0xC0 DUP2 ADD MLOAD PUSH3 0x213E PUSH1 0xC0 DUP5 ADD DUP3 PUSH3 0x203A JUMP JUMPDEST POP PUSH1 0xE0 DUP2 DUP2 ADD MLOAD SWAP1 DUP4 ADD MSTORE PUSH2 0x100 SWAP1 DUP2 ADD MLOAD SWAP2 ADD MSTORE JUMP JUMPDEST PUSH2 0x120 DUP2 ADD PUSH3 0x2166 DUP3 DUP5 PUSH3 0x20D0 JUMP JUMPDEST SWAP3 SWAP2 POP POP JUMP JUMPDEST PUSH1 0xFF DUP2 AND DUP2 EQ PUSH3 0x1FE2 JUMPI PUSH1 0x0 DUP1 REVERT JUMPDEST DUP1 CALLDATALOAD PUSH3 0x2189 DUP2 PUSH3 0x216C JUMP JUMPDEST SWAP2 SWAP1 POP JUMP JUMPDEST DUP1 CALLDATALOAD PUSH2 0xFFFF DUP2 AND DUP2 EQ PUSH3 0x2189 JUMPI PUSH1 0x0 DUP1 REVERT JUMPDEST PUSH1 0x4 DUP2 LT PUSH3 0x1FE2 JUMPI PUSH1 0x0 DUP1 REVERT JUMPDEST DUP1 CALLDATALOAD PUSH3 0x2189 DUP2 PUSH3 0x21A1 JUMP JUMPDEST PUSH1 0x0 PUSH1 0xE0 DUP3 DUP5 SUB SLT ISZERO PUSH3 0x21CF JUMPI PUSH1 0x0 DUP1 REVERT JUMPDEST PUSH1 0x40 MLOAD PUSH1 0xE0 DUP2 ADD DUP2 DUP2 LT PUSH8 0xFFFFFFFFFFFFFFFF DUP3 GT OR ISZERO PUSH3 0x2201 JUMPI PUSH4 0x4E487B71 PUSH1 0xE0 SHL PUSH1 0x0 MSTORE PUSH1 0x41 PUSH1 0x4 MSTORE PUSH1 0x24 PUSH1 0x0 REVERT JUMPDEST PUSH1 0x40 MSTORE PUSH3 0x220F DUP4 PUSH3 0x217C JUMP JUMPDEST DUP2 MSTORE PUSH3 0x221F PUSH1 0x20 DUP5 ADD PUSH3 0x217C JUMP JUMPDEST PUSH1 0x20 DUP3 ADD MSTORE PUSH3 0x2232 PUSH1 0x40 DUP5 ADD PUSH3 0x218E JUMP JUMPDEST PUSH1 0x40 DUP3 ADD MSTORE PUSH3 0x2245 PUSH1 0x60 DUP5 ADD PUSH3 0x21AF JUMP JUMPDEST PUSH1 0x60 DUP3 ADD MSTORE PUSH3 0x2258 PUSH1 0x80 DUP5 ADD PUSH3 0x21AF JUMP JUMPDEST PUSH1 0x80 DUP3 ADD MSTORE PUSH1 0xA0 DUP4 ADD CALLDATALOAD PUSH1 0xA0 DUP3 ADD MSTORE PUSH1 0xC0 DUP4 ADD CALLDATALOAD PUSH1 0xC0 DUP3 ADD MSTORE DUP1 SWAP2 POP POP SWAP3 SWAP2 POP POP JUMP JUMPDEST PUSH1 0x0 DUP1 PUSH1 0x0 DUP1 PUSH1 0x0 DUP1 PUSH1 0x0 DUP1 PUSH2 0x100 DUP10 DUP12 SUB SLT ISZERO PUSH3 0x2299 JUMPI PUSH1 0x0 DUP1 REVERT JUMPDEST DUP9 CALLDATALOAD PUSH3 0x22A6 DUP2 PUSH3 0x216C JUMP JUMPDEST SWAP8 POP PUSH1 0x20 DUP10 ADD CALLDATALOAD PUSH3 0x22B8 DUP2 PUSH3 0x216C JUMP JUMPDEST SWAP7 POP PUSH1 0x40 DUP10 ADD CALLDATALOAD SWAP6 POP PUSH1 0x60 DUP10 ADD CALLDATALOAD SWAP5 POP PUSH1 0x80 DUP10 ADD CALLDATALOAD PUSH3 0x22D8 DUP2 PUSH3 0x21A1 JUMP JUMPDEST SWAP4 POP PUSH1 0xA0 DUP10 ADD CALLDATALOAD PUSH3 0x22EA DUP2 PUSH3 0x21A1 JUMP JUMPDEST SWAP8 SWAP11 SWAP7 SWAP10 POP SWAP5 SWAP8 SWAP4 SWAP7 SWAP3 SWAP6 SWAP3 SWAP5 POP POP POP PUSH1 0xC0 DUP3 ADD CALLDATALOAD SWAP2 PUSH1 0xE0 ADD CALLDATALOAD SWAP1 JUMP JUMPDEST PUSH1 0x20 DUP1 DUP3 MSTORE DUP3 MLOAD DUP3 DUP3 ADD DUP2 SWAP1 MSTORE PUSH1 0x0 SWAP2 SWAP1 DUP5 DUP3 ADD SWAP1 PUSH1 0x40 DUP6 ADD SWAP1 DUP5 JUMPDEST DUP2 DUP2 LT ISZERO PUSH3 0x234E JUMPI PUSH3 0x2339 DUP4 DUP6 MLOAD PUSH3 0x20D0 JUMP JUMPDEST SWAP3 DUP5 ADD SWAP3 PUSH2 0x120 SWAP3 SWAP1 SWAP3 ADD SWAP2 PUSH1 0x1 ADD PUSH3 0x2323 JUMP JUMPDEST POP SWAP1 SWAP7 SWAP6 POP POP POP POP POP POP JUMP JUMPDEST PUSH1 0x0 PUSH1 0x20 DUP3 DUP5 SUB SLT ISZERO PUSH3 0x236D JUMPI PUSH1 0x0 DUP1 REVERT JUMPDEST DUP2 MLOAD PUSH3 0x19B7 DUP2 PUSH3 0x1FCC JUMP JUMPDEST PUSH4 0x4E487B71 PUSH1 0xE0 SHL PUSH1 0x0 MSTORE PUSH1 0x11 PUSH1 0x4 MSTORE PUSH1 0x24 PUSH1 0x0 REVERT JUMPDEST PUSH1 0x0 DUP3 NOT DUP3 GT ISZERO PUSH3 0x23A6 JUMPI PUSH3 0x23A6 PUSH3 0x237A JUMP JUMPDEST POP ADD SWAP1 JUMP JUMPDEST PUSH1 0x0 DUP2 PUSH1 0x0 NOT DIV DUP4 GT DUP3 ISZERO ISZERO AND ISZERO PUSH3 0x23C8 JUMPI PUSH3 0x23C8 PUSH3 0x237A JUMP JUMPDEST POP MUL SWAP1 JUMP JUMPDEST PUSH4 0x4E487B71 PUSH1 0xE0 SHL PUSH1 0x0 MSTORE PUSH1 0x12 PUSH1 0x4 MSTORE PUSH1 0x24 PUSH1 0x0 REVERT JUMPDEST PUSH1 0x0 DUP3 PUSH3 0x23F5 JUMPI PUSH3 0x23F5 PUSH3 0x23CD JUMP JUMPDEST POP DIV SWAP1 JUMP JUMPDEST PUSH4 0x4E487B71 PUSH1 0xE0 SHL PUSH1 0x0 MSTORE PUSH1 0x32 PUSH1 0x4 MSTORE PUSH1 0x24 PUSH1 0x0 REVERT JUMPDEST PUSH1 0x0 DUP3 DUP3 LT ISZERO PUSH3 0x2425 JUMPI PUSH3 0x2425 PUSH3 0x237A JUMP JUMPDEST POP SUB SWAP1 JUMP JUMPDEST PUSH1 0x0 PUSH1 0x1 DUP3 ADD PUSH3 0x243F JUMPI PUSH3 0x243F PUSH3 0x237A JUMP JUMPDEST POP PUSH1 0x1 ADD SWAP1 JUMP JUMPDEST PUSH1 0x0 PUSH1 0x20 DUP3 DUP5 SUB SLT ISZERO PUSH3 0x2459 JUMPI PUSH1 0x0 DUP1 REVERT JUMPDEST DUP2 MLOAD PUSH3 0x19B7 DUP2 PUSH3 0x216C JUMP JUMPDEST PUSH1 0x0 PUSH1 0xFF DUP3 AND PUSH1 0xFF DUP5 AND DUP1 DUP3 LT ISZERO PUSH3 0x2483 JUMPI PUSH3 0x2483 PUSH3 0x237A JUMP JUMPDEST SWAP1 SUB SWAP4 SWAP3 POP POP POP JUMP JUMPDEST PUSH1 0x0 PUSH1 0x20 DUP3 DUP5 SUB SLT ISZERO PUSH3 0x249F JUMPI PUSH1 0x0 DUP1 REVERT JUMPDEST POP MLOAD SWAP2 SWAP1 POP JUMP JUMPDEST PUSH1 0x0 DUP3 PUSH3 0x24B8 JUMPI PUSH3 0x24B8 PUSH3 0x23CD JUMP JUMPDEST POP MOD SWAP1 JUMP JUMPDEST PUSH1 0xFF DUP11 DUP2 AND DUP3 MSTORE DUP10 AND PUSH1 0x20 DUP3 ADD MSTORE PUSH2 0xFFFF DUP9 AND PUSH1 0x40 DUP3 ADD MSTORE PUSH2 0x120 DUP2 ADD PUSH3 0x24E5 DUP9 PUSH3 0x201B JUMP JUMPDEST DUP8 PUSH1 0x60 DUP4 ADD MSTORE DUP7 PUSH1 0x80 DUP4 ADD MSTORE DUP6 PUSH1 0xA0 DUP4 ADD MSTORE PUSH3 0x2502 DUP6 PUSH3 0x201B JUMP JUMPDEST PUSH1 0xC0 DUP3 ADD SWAP5 SWAP1 SWAP5 MSTORE PUSH1 0x1 PUSH1 0x1 PUSH1 0xA0 SHL SUB SWAP3 DUP4 AND PUSH1 0xE0 DUP3 ADD MSTORE SWAP2 AND PUSH2 0x100 SWAP1 SWAP2 ADD MSTORE SWAP7 SWAP6 POP POP POP POP POP POP JUMP JUMPDEST PUSH1 0x0 PUSH1 0xFF DUP3 AND PUSH1 0xFF DUP5 AND DUP1 PUSH1 0xFF SUB DUP3 GT ISZERO PUSH3 0x254D JUMPI PUSH3 0x254D PUSH3 0x237A JUMP JUMPDEST ADD SWAP4 SWAP3 POP POP POP JUMP JUMPDEST DUP1 MLOAD PUSH10 0xFFFFFFFFFFFFFFFFFFFF DUP2 AND DUP2 EQ PUSH3 0x2189 JUMPI PUSH1 0x0 DUP1 REVERT JUMPDEST PUSH1 0x0 DUP1 PUSH1 0x0 DUP1 PUSH1 0x0 PUSH1 0xA0 DUP7 DUP9 SUB SLT ISZERO PUSH3 0x2589 JUMPI PUSH1 0x0 DUP1 REVERT JUMPDEST PUSH3 0x2594 DUP7 PUSH3 0x2555 JUMP JUMPDEST SWAP5 POP PUSH1 0x20 DUP7 ADD MLOAD SWAP4 POP PUSH1 0x40 DUP7 ADD MLOAD SWAP3 POP PUSH1 0x60 DUP7 ADD MLOAD SWAP2 POP PUSH3 0x25B9 PUSH1 0x80 DUP8 ADD PUSH3 0x2555 JUMP JUMPDEST SWAP1 POP SWAP3 SWAP6 POP SWAP3 SWAP6 SWAP1 SWAP4 POP JUMP JUMPDEST PUSH1 0x0 PUSH1 0x1 PUSH1 0x1 PUSH1 0xFF SHL SUB DUP2 DUP5 SGT DUP3 DUP5 SGT DUP1 DUP3 AND DUP7 DUP5 DIV DUP7 GT AND ISZERO PUSH3 0x25EE JUMPI PUSH3 0x25EE PUSH3 0x237A JUMP JUMPDEST PUSH1 0x1 PUSH1 0xFF SHL PUSH1 0x0 DUP8 SLT DUP3 DUP2 AND DUP8 DUP4 SDIV DUP10 SLT AND ISZERO PUSH3 0x2610 JUMPI PUSH3 0x2610 PUSH3 0x237A JUMP JUMPDEST PUSH1 0x0 DUP8 SLT SWAP3 POP DUP8 DUP3 SDIV DUP8 SLT DUP5 DUP5 AND AND ISZERO PUSH3 0x262F JUMPI PUSH3 0x262F PUSH3 0x237A JUMP JUMPDEST DUP8 DUP6 SDIV DUP8 SLT DUP2 DUP5 AND AND ISZERO PUSH3 0x2648 JUMPI PUSH3 0x2648 PUSH3 0x237A JUMP JUMPDEST POP POP POP SWAP3 SWAP1 SWAP4 MUL SWAP4 SWAP3 POP POP POP JUMP INVALID PUSH1 0x80 PUSH1 0x40 MSTORE PUSH1 0x3 PUSH1 0x6 SSTORE PUSH1 0x40 MLOAD PUSH3 0x1693 CODESIZE SUB DUP1 PUSH3 0x1693 DUP4 CODECOPY DUP2 ADD PUSH1 0x40 DUP2 SWAP1 MSTORE PUSH3 0x2B SWAP2 PUSH3 0x2AC JUMP JUMPDEST PUSH3 0x36 CALLER PUSH3 0x14A JUMP JUMPDEST PUSH1 0x0 DUP1 SLOAD PUSH1 0xFF DUP11 DUP2 AND PUSH1 0x1 PUSH1 0xA8 SHL MUL PUSH1 0xFF PUSH1 0xA8 SHL NOT SWAP2 DUP14 AND PUSH1 0x1 PUSH1 0xA0 SHL MUL SWAP2 SWAP1 SWAP2 AND PUSH2 0xFFFF PUSH1 0xA0 SHL NOT SWAP1 SWAP3 AND SWAP2 SWAP1 SWAP2 OR OR SWAP1 SSTORE PUSH1 0x1 DUP6 SWAP1 SSTORE PUSH1 0x2 DUP5 SWAP1 SSTORE PUSH1 0x5 DUP8 SWAP1 SSTORE PUSH1 0x7 DUP1 SLOAD PUSH1 0x1 PUSH1 0x1 PUSH1 0xA0 SHL SUB DUP1 DUP6 AND PUSH1 0x1 PUSH1 0x1 PUSH1 0xA0 SHL SUB NOT SWAP3 DUP4 AND DUP2 OR SWAP1 SWAP4 SSTORE PUSH1 0x8 DUP1 SLOAD SWAP2 DUP6 AND SWAP2 SWAP1 SWAP3 AND OR SWAP1 SSTORE DUP7 SWAP1 DUP5 SWAP1 PUSH3 0xB5 SWAP1 PUSH3 0x19A JUMP JUMPDEST PUSH1 0xC DUP1 SLOAD PUSH1 0x1 PUSH1 0x1 PUSH1 0xA0 SHL SUB NOT AND CALLER SWAP1 DUP2 OR SWAP1 SWAP2 SSTORE CALLVALUE PUSH1 0xB SSTORE PUSH1 0x8 SLOAD PUSH1 0x40 MLOAD PUSH4 0x1623E6B3 PUSH1 0xE2 SHL DUP2 MSTORE PUSH1 0x1 PUSH1 0x1 PUSH1 0xA0 SHL SUB SWAP1 SWAP2 AND PUSH1 0x4 DUP3 ADD MSTORE PUSH4 0x588F9ACC SWAP1 PUSH1 0x24 ADD PUSH1 0x0 PUSH1 0x40 MLOAD DUP1 DUP4 SUB DUP2 PUSH1 0x0 DUP8 DUP1 EXTCODESIZE ISZERO DUP1 ISZERO PUSH3 0x112 JUMPI PUSH1 0x0 DUP1 REVERT JUMPDEST POP GAS CALL ISZERO DUP1 ISZERO PUSH3 0x127 JUMPI RETURNDATASIZE PUSH1 0x0 DUP1 RETURNDATACOPY RETURNDATASIZE PUSH1 0x0 REVERT JUMPDEST POP POP PUSH1 0xC DUP1 SLOAD PUSH1 0xFF PUSH1 0xA0 SHL NOT AND SWAP1 SSTORE POP PUSH3 0x352 SWAP12 POP POP POP POP POP POP POP POP POP POP POP POP JUMP JUMPDEST PUSH1 0x0 DUP1 SLOAD PUSH1 0x1 PUSH1 0x1 PUSH1 0xA0 SHL SUB DUP4 DUP2 AND PUSH1 0x1 PUSH1 0x1 PUSH1 0xA0 SHL SUB NOT DUP4 AND DUP2 OR DUP5 SSTORE PUSH1 0x40 MLOAD SWAP2 SWAP1 SWAP3 AND SWAP3 DUP4 SWAP2 PUSH32 0x8BE0079C531659141344CD1FD0A4F28419497F9722A3DAAFE3B4186F6B6457E0 SWAP2 SWAP1 LOG3 POP POP JUMP JUMPDEST PUSH1 0x0 SLOAD PUSH1 0x1 PUSH1 0x1 PUSH1 0xA0 SHL SUB AND CALLER EQ PUSH3 0x1FA JUMPI PUSH1 0x40 MLOAD PUSH3 0x461BCD PUSH1 0xE5 SHL DUP2 MSTORE PUSH1 0x20 PUSH1 0x4 DUP3 ADD DUP2 SWAP1 MSTORE PUSH1 0x24 DUP3 ADD MSTORE PUSH32 0x4F776E61626C653A2063616C6C6572206973206E6F7420746865206F776E6572 PUSH1 0x44 DUP3 ADD MSTORE PUSH1 0x64 ADD JUMPDEST PUSH1 0x40 MLOAD DUP1 SWAP2 SUB SWAP1 REVERT JUMPDEST PUSH1 0x1 PUSH1 0x1 PUSH1 0xA0 SHL SUB DUP2 AND PUSH3 0x261 JUMPI PUSH1 0x40 MLOAD PUSH3 0x461BCD PUSH1 0xE5 SHL DUP2 MSTORE PUSH1 0x20 PUSH1 0x4 DUP3 ADD MSTORE PUSH1 0x26 PUSH1 0x24 DUP3 ADD MSTORE PUSH32 0x4F776E61626C653A206E6577206F776E657220697320746865207A65726F2061 PUSH1 0x44 DUP3 ADD MSTORE PUSH6 0x646472657373 PUSH1 0xD0 SHL PUSH1 0x64 DUP3 ADD MSTORE PUSH1 0x84 ADD PUSH3 0x1F1 JUMP JUMPDEST PUSH3 0x26C DUP2 PUSH3 0x14A JUMP JUMPDEST POP JUMP JUMPDEST DUP1 MLOAD PUSH1 0xFF DUP2 AND DUP2 EQ PUSH3 0x281 JUMPI PUSH1 0x0 DUP1 REVERT JUMPDEST SWAP2 SWAP1 POP JUMP JUMPDEST PUSH1 0x4 DUP2 LT PUSH3 0x26C JUMPI PUSH1 0x0 DUP1 REVERT JUMPDEST DUP1 MLOAD PUSH1 0x1 PUSH1 0x1 PUSH1 0xA0 SHL SUB DUP2 AND DUP2 EQ PUSH3 0x281 JUMPI PUSH1 0x0 DUP1 REVERT JUMPDEST PUSH1 0x0 DUP1 PUSH1 0x0 DUP1 PUSH1 0x0 DUP1 PUSH1 0x0 DUP1 PUSH1 0x0 PUSH2 0x120 DUP11 DUP13 SUB SLT ISZERO PUSH3 0x2CC JUMPI PUSH1 0x0 DUP1 REVERT JUMPDEST PUSH3 0x2D7 DUP11 PUSH3 0x26F JUMP JUMPDEST SWAP9 POP PUSH3 0x2E7 PUSH1 0x20 DUP12 ADD PUSH3 0x26F JUMP JUMPDEST SWAP8 POP PUSH1 0x40 DUP11 ADD MLOAD SWAP7 POP PUSH1 0x60 DUP11 ADD MLOAD PUSH3 0x300 DUP2 PUSH3 0x286 JUMP JUMPDEST DUP1 SWAP7 POP POP PUSH1 0x80 DUP11 ADD MLOAD SWAP5 POP PUSH1 0xA0 DUP11 ADD MLOAD SWAP4 POP PUSH1 0xC0 DUP11 ADD MLOAD PUSH3 0x322 DUP2 PUSH3 0x286 JUMP JUMPDEST SWAP3 POP PUSH3 0x332 PUSH1 0xE0 DUP12 ADD PUSH3 0x294 JUMP JUMPDEST SWAP2 POP PUSH3 0x343 PUSH2 0x100 DUP12 ADD PUSH3 0x294 JUMP JUMPDEST SWAP1 POP SWAP3 SWAP6 SWAP9 POP SWAP3 SWAP6 SWAP9 POP SWAP3 SWAP6 SWAP9 JUMP JUMPDEST PUSH2 0x1331 DUP1 PUSH3 0x362 PUSH1 0x0 CODECOPY PUSH1 0x0 RETURN INVALID PUSH1 0x80 PUSH1 0x40 MSTORE PUSH1 0x4 CALLDATASIZE LT PUSH2 0xE8 JUMPI PUSH1 0x0 CALLDATALOAD PUSH1 0xE0 SHR DUP1 PUSH4 0x7492174F GT PUSH2 0x8A JUMPI DUP1 PUSH4 0xDC3612E9 GT PUSH2 0x59 JUMPI DUP1 PUSH4 0xDC3612E9 EQ PUSH2 0x257 JUMPI DUP1 PUSH4 0xE237A3FC EQ PUSH2 0x26D JUMPI DUP1 PUSH4 0xF2FDE38B EQ PUSH2 0x282 JUMPI DUP1 PUSH4 0xFE0AE165 EQ PUSH2 0x2A2 JUMPI PUSH1 0x0 DUP1 REVERT JUMPDEST DUP1 PUSH4 0x7492174F EQ PUSH2 0x1E2 JUMPI DUP1 PUSH4 0x8DA5CB5B EQ PUSH2 0x20F JUMPI DUP1 PUSH4 0x9EA6B4F4 EQ PUSH2 0x22D JUMPI DUP1 PUSH4 0xC41C28A9 EQ PUSH2 0x242 JUMPI PUSH1 0x0 DUP1 REVERT JUMPDEST DUP1 PUSH4 0x251D10B0 GT PUSH2 0xC6 JUMPI DUP1 PUSH4 0x251D10B0 EQ PUSH2 0x174 JUMPI DUP1 PUSH4 0x61732581 EQ PUSH2 0x189 JUMPI DUP1 PUSH4 0x715018A6 EQ PUSH2 0x1AD JUMPI DUP1 PUSH4 0x72DD4084 EQ PUSH2 0x1C2 JUMPI PUSH1 0x0 DUP1 REVERT JUMPDEST DUP1 PUSH4 0x9B0CA7A EQ PUSH2 0xED JUMPI DUP1 PUSH4 0x1A63B100 EQ PUSH2 0x125 JUMPI DUP1 PUSH4 0x200D2ED2 EQ PUSH2 0x146 JUMPI JUMPDEST PUSH1 0x0 DUP1 REVERT JUMPDEST CALLVALUE DUP1 ISZERO PUSH2 0xF9 JUMPI PUSH1 0x0 DUP1 REVERT JUMPDEST POP PUSH1 0x0 SLOAD PUSH2 0x10E SWAP1 PUSH1 0x1 PUSH1 0xA0 SHL SWAP1 DIV PUSH1 0xFF AND DUP2 JUMP JUMPDEST PUSH1 0x40 MLOAD PUSH1 0xFF SWAP1 SWAP2 AND DUP2 MSTORE PUSH1 0x20 ADD JUMPDEST PUSH1 0x40 MLOAD DUP1 SWAP2 SUB SWAP1 RETURN JUMPDEST CALLVALUE DUP1 ISZERO PUSH2 0x131 JUMPI PUSH1 0x0 DUP1 REVERT JUMPDEST POP PUSH1 0x0 SLOAD PUSH2 0x10E SWAP1 PUSH1 0x1 PUSH1 0xA8 SHL SWAP1 DIV PUSH1 0xFF AND DUP2 JUMP JUMPDEST CALLVALUE DUP1 ISZERO PUSH2 0x152 JUMPI PUSH1 0x0 DUP1 REVERT JUMPDEST POP PUSH1 0xC SLOAD PUSH2 0x167 SWAP1 PUSH1 0x1 PUSH1 0xA0 SHL SWAP1 DIV PUSH1 0xFF AND DUP2 JUMP JUMPDEST PUSH1 0x40 MLOAD PUSH2 0x11C SWAP2 SWAP1 PUSH2 0xEBC JUMP JUMPDEST PUSH2 0x187 PUSH2 0x182 CALLDATASIZE PUSH1 0x4 PUSH2 0xEE4 JUMP JUMPDEST PUSH2 0x2C5 JUMP JUMPDEST STOP JUMPDEST CALLVALUE DUP1 ISZERO PUSH2 0x195 JUMPI PUSH1 0x0 DUP1 REVERT JUMPDEST POP PUSH2 0x19F PUSH1 0x1 SLOAD DUP2 JUMP JUMPDEST PUSH1 0x40 MLOAD SWAP1 DUP2 MSTORE PUSH1 0x20 ADD PUSH2 0x11C JUMP JUMPDEST CALLVALUE DUP1 ISZERO PUSH2 0x1B9 JUMPI PUSH1 0x0 DUP1 REVERT JUMPDEST POP PUSH2 0x187 PUSH2 0x32B JUMP JUMPDEST CALLVALUE DUP1 ISZERO PUSH2 0x1CE JUMPI PUSH1 0x0 DUP1 REVERT JUMPDEST POP PUSH2 0x187 PUSH2 0x1DD CALLDATASIZE PUSH1 0x4 PUSH2 0xFA0 JUMP JUMPDEST PUSH2 0x361 JUMP JUMPDEST CALLVALUE DUP1 ISZERO PUSH2 0x1EE JUMPI PUSH1 0x0 DUP1 REVERT JUMPDEST POP PUSH2 0x1F7 PUSH2 0x48F JUMP JUMPDEST PUSH1 0x40 MLOAD PUSH1 0x1 PUSH1 0x1 PUSH1 0xA0 SHL SUB SWAP1 SWAP2 AND DUP2 MSTORE PUSH1 0x20 ADD PUSH2 0x11C JUMP JUMPDEST CALLVALUE DUP1 ISZERO PUSH2 0x21B JUMPI PUSH1 0x0 DUP1 REVERT JUMPDEST POP PUSH1 0x0 SLOAD PUSH1 0x1 PUSH1 0x1 PUSH1 0xA0 SHL SUB AND PUSH2 0x1F7 JUMP JUMPDEST CALLVALUE DUP1 ISZERO PUSH2 0x239 JUMPI PUSH1 0x0 DUP1 REVERT JUMPDEST POP PUSH2 0x1F7 PUSH2 0x4CC JUMP JUMPDEST CALLVALUE DUP1 ISZERO PUSH2 0x24E JUMPI PUSH1 0x0 DUP1 REVERT JUMPDEST POP PUSH2 0x187 PUSH2 0x509 JUMP JUMPDEST CALLVALUE DUP1 ISZERO PUSH2 0x263 JUMPI PUSH1 0x0 DUP1 REVERT JUMPDEST POP PUSH2 0x19F PUSH1 0x2 SLOAD DUP2 JUMP JUMPDEST CALLVALUE DUP1 ISZERO PUSH2 0x279 JUMPI PUSH1 0x0 DUP1 REVERT JUMPDEST POP PUSH2 0x187 PUSH2 0x59F JUMP JUMPDEST CALLVALUE DUP1 ISZERO PUSH2 0x28E JUMPI PUSH1 0x0 DUP1 REVERT JUMPDEST POP PUSH2 0x187 PUSH2 0x29D CALLDATASIZE PUSH1 0x4 PUSH2 0x1004 JUMP JUMPDEST PUSH2 0x5C9 JUMP JUMPDEST CALLVALUE DUP1 ISZERO PUSH2 0x2AE JUMPI PUSH1 0x0 DUP1 REVERT JUMPDEST POP PUSH2 0x2B7 PUSH2 0x664 JUMP JUMPDEST PUSH1 0x40 MLOAD PUSH2 0x11C SWAP3 SWAP2 SWAP1 PUSH2 0x107A JUMP JUMPDEST PUSH1 0xC SLOAD PUSH1 0x1 PUSH1 0x1 PUSH1 0xA0 SHL SUB AND CALLER EQ PUSH2 0x2F8 JUMPI PUSH1 0x40 MLOAD PUSH3 0x461BCD PUSH1 0xE5 SHL DUP2 MSTORE PUSH1 0x4 ADD PUSH2 0x2EF SWAP1 PUSH2 0x10A8 JUMP JUMPDEST PUSH1 0x40 MLOAD DUP1 SWAP2 SUB SWAP1 REVERT JUMPDEST DUP1 PUSH1 0x4 PUSH1 0x0 DUP3 DUP3 SLOAD PUSH2 0x30A SWAP2 SWAP1 PUSH2 0x10F5 JUMP JUMPDEST SWAP3 POP POP DUP2 SWAP1 SSTORE POP DUP1 PUSH1 0x5 PUSH1 0x0 DUP3 DUP3 SLOAD PUSH2 0x323 SWAP2 SWAP1 PUSH2 0x10F5 JUMP JUMPDEST SWAP1 SWAP2 SSTORE POP POP POP JUMP JUMPDEST PUSH1 0x0 SLOAD PUSH1 0x1 PUSH1 0x1 PUSH1 0xA0 SHL SUB AND CALLER EQ PUSH2 0x355 JUMPI PUSH1 0x40 MLOAD PUSH3 0x461BCD PUSH1 0xE5 SHL DUP2 MSTORE PUSH1 0x4 ADD PUSH2 0x2EF SWAP1 PUSH2 0x110D JUMP JUMPDEST PUSH2 0x35F PUSH1 0x0 PUSH2 0x74A JUMP JUMPDEST JUMP JUMPDEST PUSH1 0x8 SLOAD PUSH1 0x1 PUSH1 0x1 PUSH1 0xA0 SHL SUB AND CALLER EQ PUSH2 0x38B JUMPI PUSH1 0x40 MLOAD PUSH3 0x461BCD PUSH1 0xE5 SHL DUP2 MSTORE PUSH1 0x4 ADD PUSH2 0x2EF SWAP1 PUSH2 0x1142 JUMP JUMPDEST PUSH1 0xC PUSH1 0x0 SWAP1 SLOAD SWAP1 PUSH2 0x100 EXP SWAP1 DIV PUSH1 0x1 PUSH1 0x1 PUSH1 0xA0 SHL SUB AND PUSH1 0x1 PUSH1 0x1 PUSH1 0xA0 SHL SUB AND PUSH4 0x2C8F85F4 PUSH1 0x40 MLOAD DUP2 PUSH4 0xFFFFFFFF AND PUSH1 0xE0 SHL DUP2 MSTORE PUSH1 0x4 ADD PUSH1 0x0 PUSH1 0x40 MLOAD DUP1 DUP4 SUB DUP2 PUSH1 0x0 DUP8 DUP1 EXTCODESIZE ISZERO DUP1 ISZERO PUSH2 0x3DB JUMPI PUSH1 0x0 DUP1 REVERT JUMPDEST POP GAS CALL ISZERO DUP1 ISZERO PUSH2 0x3EF JUMPI RETURNDATASIZE PUSH1 0x0 DUP1 RETURNDATACOPY RETURNDATASIZE PUSH1 0x0 REVERT JUMPDEST POP POP POP POP PUSH2 0x3FC DUP3 PUSH2 0x79A JUMP JUMPDEST PUSH2 0x405 DUP2 PUSH2 0x7DB JUMP JUMPDEST TIMESTAMP PUSH1 0x3 DUP2 SWAP1 SSTORE PUSH1 0x5 SLOAD PUSH2 0x417 SWAP2 PUSH2 0x10F5 JUMP JUMPDEST PUSH1 0x4 SWAP1 DUP2 SSTORE PUSH1 0xC DUP1 SLOAD PUSH1 0x1 PUSH1 0xA0 SHL PUSH1 0xFF PUSH1 0xA0 SHL NOT DUP3 AND OR SWAP1 SWAP2 SSTORE PUSH1 0x40 MLOAD PUSH4 0x1623E6B3 PUSH1 0xE2 SHL DUP2 MSTORE CALLER SWAP3 DUP2 ADD SWAP3 SWAP1 SWAP3 MSTORE PUSH1 0x1 PUSH1 0x1 PUSH1 0xA0 SHL SUB AND SWAP1 PUSH4 0x588F9ACC SWAP1 PUSH1 0x24 ADD PUSH1 0x0 PUSH1 0x40 MLOAD DUP1 DUP4 SUB DUP2 PUSH1 0x0 DUP8 DUP1 EXTCODESIZE ISZERO DUP1 ISZERO PUSH2 0x473 JUMPI PUSH1 0x0 DUP1 REVERT JUMPDEST POP GAS CALL ISZERO DUP1 ISZERO PUSH2 0x487 JUMPI RETURNDATASIZE PUSH1 0x0 DUP1 RETURNDATACOPY RETURNDATASIZE PUSH1 0x0 REVERT JUMPDEST POP POP POP POP POP POP JUMP JUMPDEST PUSH1 0xC SLOAD PUSH1 0x0 SWAP1 PUSH1 0x1 PUSH1 0x1 PUSH1 0xA0 SHL SUB AND CALLER EQ PUSH2 0x4BC JUMPI PUSH1 0x40 MLOAD PUSH3 0x461BCD PUSH1 0xE5 SHL DUP2 MSTORE PUSH1 0x4 ADD PUSH2 0x2EF SWAP1 PUSH2 0x10A8 JUMP JUMPDEST POP PUSH1 0x8 SLOAD PUSH1 0x1 PUSH1 0x1 PUSH1 0xA0 SHL SUB AND SWAP1 JUMP JUMPDEST PUSH1 0xC SLOAD PUSH1 0x0 SWAP1 PUSH1 0x1 PUSH1 0x1 PUSH1 0xA0 SHL SUB AND CALLER EQ PUSH2 0x4F9 JUMPI PUSH1 0x40 MLOAD PUSH3 0x461BCD PUSH1 0xE5 SHL DUP2 MSTORE PUSH1 0x4 ADD PUSH2 0x2EF SWAP1 PUSH2 0x10A8 JUMP JUMPDEST POP PUSH1 0x7 SLOAD PUSH1 0x1 PUSH1 0x1 PUSH1 0xA0 SHL SUB AND SWAP1 JUMP JUMPDEST PUSH1 0x8 SLOAD PUSH1 0x1 PUSH1 0x1 PUSH1 0xA0 SHL SUB AND CALLER EQ PUSH2 0x533 JUMPI PUSH1 0x40 MLOAD PUSH3 0x461BCD PUSH1 0xE5 SHL DUP2 MSTORE PUSH1 0x4 ADD PUSH2 0x2EF SWAP1 PUSH2 0x1142 JUMP JUMPDEST PUSH1 0x4 SLOAD TIMESTAMP GT PUSH2 0x584 JUMPI PUSH1 0x40 MLOAD PUSH3 0x461BCD PUSH1 0xE5 SHL DUP2 MSTORE PUSH1 0x20 PUSH1 0x4 DUP3 ADD MSTORE PUSH1 0x17 PUSH1 0x24 DUP3 ADD MSTORE PUSH32 0x53657373696F6E206973206E6F74206F76657274696D65000000000000000000 PUSH1 0x44 DUP3 ADD MSTORE PUSH1 0x64 ADD PUSH2 0x2EF JUMP JUMPDEST PUSH1 0xC DUP1 SLOAD PUSH1 0xFF PUSH1 0xA0 SHL NOT AND PUSH1 0x3 PUSH1 0xA0 SHL OR SWAP1 SSTORE PUSH2 0x35F PUSH2 0x8B5 JUMP JUMPDEST PUSH1 0x0 SLOAD PUSH1 0x1 PUSH1 0x1 PUSH1 0xA0 SHL SUB AND CALLER EQ PUSH2 0x584 JUMPI PUSH1 0x40 MLOAD PUSH3 0x461BCD PUSH1 0xE5 SHL DUP2 MSTORE PUSH1 0x4 ADD PUSH2 0x2EF SWAP1 PUSH2 0x110D JUMP JUMPDEST PUSH1 0x0 SLOAD PUSH1 0x1 PUSH1 0x1 PUSH1 0xA0 SHL SUB AND CALLER EQ PUSH2 0x5F3 JUMPI PUSH1 0x40 MLOAD PUSH3 0x461BCD PUSH1 0xE5 SHL DUP2 MSTORE PUSH1 0x4 ADD PUSH2 0x2EF SWAP1 PUSH2 0x110D JUMP JUMPDEST PUSH1 0x1 PUSH1 0x1 PUSH1 0xA0 SHL SUB DUP2 AND PUSH2 0x658 JUMPI PUSH1 0x40 MLOAD PUSH3 0x461BCD PUSH1 0xE5 SHL DUP2 MSTORE PUSH1 0x20 PUSH1 0x4 DUP3 ADD MSTORE PUSH1 0x26 PUSH1 0x24 DUP3 ADD MSTORE PUSH32 0x4F776E61626C653A206E6577206F776E657220697320746865207A65726F2061 PUSH1 0x44 DUP3 ADD MSTORE PUSH6 0x646472657373 PUSH1 0xD0 SHL PUSH1 0x64 DUP3 ADD MSTORE PUSH1 0x84 ADD PUSH2 0x2EF JUMP JUMPDEST PUSH2 0x661 DUP2 PUSH2 0x74A JUMP JUMPDEST POP JUMP JUMPDEST PUSH1 0x60 DUP1 CALLER PUSH1 0x1 PUSH1 0x1 PUSH1 0xA0 SHL SUB AND PUSH2 0x683 PUSH1 0x0 SLOAD PUSH1 0x1 PUSH1 0x1 PUSH1 0xA0 SHL SUB AND SWAP1 JUMP JUMPDEST PUSH1 0x1 PUSH1 0x1 PUSH1 0xA0 SHL SUB AND EQ PUSH2 0x6A9 JUMPI PUSH1 0x40 MLOAD PUSH3 0x461BCD PUSH1 0xE5 SHL DUP2 MSTORE PUSH1 0x4 ADD PUSH2 0x2EF SWAP1 PUSH2 0x110D JUMP JUMPDEST PUSH1 0x1 PUSH1 0xC SLOAD PUSH1 0x1 PUSH1 0xA0 SHL SWAP1 DIV PUSH1 0xFF AND PUSH1 0x4 DUP2 GT ISZERO PUSH2 0x6C9 JUMPI PUSH2 0x6C9 PUSH2 0xEA6 JUMP JUMPDEST EQ PUSH2 0x716 JUMPI PUSH1 0x40 MLOAD PUSH3 0x461BCD PUSH1 0xE5 SHL DUP2 MSTORE PUSH1 0x20 PUSH1 0x4 DUP3 ADD MSTORE PUSH1 0x19 PUSH1 0x24 DUP3 ADD MSTORE PUSH32 0x53657373696F6E206973206E6F7420636F6E6669677572656400000000000000 PUSH1 0x44 DUP3 ADD MSTORE PUSH1 0x64 ADD PUSH2 0x2EF JUMP JUMPDEST PUSH1 0x0 PUSH2 0x720 PUSH2 0xA99 JUMP JUMPDEST SWAP1 POP PUSH1 0x0 PUSH2 0x72C PUSH2 0xB56 JUMP JUMPDEST PUSH1 0xC DUP1 SLOAD PUSH1 0xFF PUSH1 0xA0 SHL NOT AND PUSH1 0x1 PUSH1 0xA1 SHL OR SWAP1 SSTORE SWAP2 SWAP5 SWAP2 SWAP4 POP SWAP1 SWAP2 POP POP JUMP JUMPDEST PUSH1 0x0 DUP1 SLOAD PUSH1 0x1 PUSH1 0x1 PUSH1 0xA0 SHL SUB DUP4 DUP2 AND PUSH1 0x1 PUSH1 0x1 PUSH1 0xA0 SHL SUB NOT DUP4 AND DUP2 OR DUP5 SSTORE PUSH1 0x40 MLOAD SWAP2 SWAP1 SWAP3 AND SWAP3 DUP4 SWAP2 PUSH32 0x8BE0079C531659141344CD1FD0A4F28419497F9722A3DAAFE3B4186F6B6457E0 SWAP2 SWAP1 LOG3 POP POP JUMP JUMPDEST PUSH1 0x8 SLOAD PUSH1 0x1 PUSH1 0x1 PUSH1 0xA0 SHL SUB AND CALLER EQ PUSH2 0x7C4 JUMPI PUSH1 0x40 MLOAD PUSH3 0x461BCD PUSH1 0xE5 SHL DUP2 MSTORE PUSH1 0x4 ADD PUSH2 0x2EF SWAP1 PUSH2 0x1142 JUMP JUMPDEST DUP1 MLOAD PUSH2 0x7D7 SWAP1 PUSH1 0x9 SWAP1 PUSH1 0x20 DUP5 ADD SWAP1 PUSH2 0xE0D JUMP JUMPDEST POP POP JUMP JUMPDEST PUSH1 0x8 SLOAD PUSH1 0x1 PUSH1 0x1 PUSH1 0xA0 SHL SUB AND CALLER EQ PUSH2 0x805 JUMPI PUSH1 0x40 MLOAD PUSH3 0x461BCD PUSH1 0xE5 SHL DUP2 MSTORE PUSH1 0x4 ADD PUSH2 0x2EF SWAP1 PUSH2 0x1142 JUMP JUMPDEST PUSH1 0x0 PUSH1 0xC SLOAD PUSH1 0x1 PUSH1 0xA0 SHL SWAP1 DIV PUSH1 0xFF AND PUSH1 0x4 DUP2 GT ISZERO PUSH2 0x825 JUMPI PUSH2 0x825 PUSH2 0xEA6 JUMP JUMPDEST EQ PUSH2 0x872 JUMPI PUSH1 0x40 MLOAD PUSH3 0x461BCD PUSH1 0xE5 SHL DUP2 MSTORE PUSH1 0x20 PUSH1 0x4 DUP3 ADD MSTORE PUSH1 0x1B PUSH1 0x24 DUP3 ADD MSTORE PUSH32 0x53657373696F6E206973206E6F7420696E697469616C6973696E670000000000 PUSH1 0x44 DUP3 ADD MSTORE PUSH1 0x64 ADD PUSH2 0x2EF JUMP JUMPDEST PUSH1 0x7 SLOAD PUSH1 0x0 SWAP1 PUSH2 0x88C SWAP1 CALLER SWAP1 PUSH1 0x1 PUSH1 0x1 PUSH1 0xA0 SHL SUB AND PUSH2 0xD12 JUMP JUMPDEST PUSH1 0x0 DUP2 DUP2 MSTORE PUSH1 0xA PUSH1 0x20 SWAP1 DUP2 MSTORE PUSH1 0x40 SWAP1 SWAP2 KECCAK256 DUP5 MLOAD SWAP3 SWAP4 POP PUSH2 0x8B0 SWAP3 SWAP1 SWAP2 DUP6 ADD SWAP1 PUSH2 0xE0D JUMP JUMPDEST POP POP POP JUMP JUMPDEST PUSH1 0x3 PUSH1 0xC SLOAD PUSH1 0x1 PUSH1 0xA0 SHL SWAP1 DIV PUSH1 0xFF AND PUSH1 0x4 DUP2 GT ISZERO PUSH2 0x8D5 JUMPI PUSH2 0x8D5 PUSH2 0xEA6 JUMP JUMPDEST EQ PUSH2 0x922 JUMPI PUSH1 0x40 MLOAD PUSH3 0x461BCD PUSH1 0xE5 SHL DUP2 MSTORE PUSH1 0x20 PUSH1 0x4 DUP3 ADD MSTORE PUSH1 0x19 PUSH1 0x24 DUP3 ADD MSTORE PUSH32 0x53657373696F6E20686173206E6F7420656E6465642079657400000000000000 PUSH1 0x44 DUP3 ADD MSTORE PUSH1 0x64 ADD PUSH2 0x2EF JUMP JUMPDEST PUSH1 0x0 PUSH2 0x92C PUSH2 0xDA9 JUMP JUMPDEST SWAP1 POP PUSH1 0x6 SLOAD PUSH1 0x1 PUSH2 0x93D SWAP2 SWAP1 PUSH2 0x1179 JUMP JUMPDEST DUP2 GT ISZERO PUSH2 0x986 JUMPI PUSH1 0x8 SLOAD PUSH1 0xB SLOAD PUSH1 0x40 MLOAD PUSH1 0x1 PUSH1 0x1 PUSH1 0xA0 SHL SUB SWAP1 SWAP3 AND SWAP2 DUP2 ISZERO PUSH2 0x8FC MUL SWAP2 SWAP1 PUSH1 0x0 DUP2 DUP2 DUP2 DUP6 DUP9 DUP9 CALL SWAP4 POP POP POP POP ISZERO DUP1 ISZERO PUSH2 0x980 JUMPI RETURNDATASIZE PUSH1 0x0 DUP1 RETURNDATACOPY RETURNDATASIZE PUSH1 0x0 REVERT JUMPDEST POP PUSH2 0xA1B JUMP JUMPDEST PUSH1 0x0 PUSH1 0x6 SLOAD PUSH1 0xB SLOAD DUP4 PUSH2 0x999 SWAP2 SWAP1 PUSH2 0x1179 JUMP JUMPDEST PUSH2 0x9A3 SWAP2 SWAP1 PUSH2 0x1198 JUMP JUMPDEST PUSH1 0x8 SLOAD PUSH1 0x40 MLOAD SWAP2 SWAP3 POP PUSH1 0x1 PUSH1 0x1 PUSH1 0xA0 SHL SUB AND SWAP1 DUP3 ISZERO PUSH2 0x8FC MUL SWAP1 DUP4 SWAP1 PUSH1 0x0 DUP2 DUP2 DUP2 DUP6 DUP9 DUP9 CALL SWAP4 POP POP POP POP ISZERO DUP1 ISZERO PUSH2 0x9DE JUMPI RETURNDATASIZE PUSH1 0x0 DUP1 RETURNDATACOPY RETURNDATASIZE PUSH1 0x0 REVERT JUMPDEST POP PUSH1 0x7 SLOAD PUSH1 0x40 MLOAD PUSH1 0x1 PUSH1 0x1 PUSH1 0xA0 SHL SUB SWAP1 SWAP2 AND SWAP1 SELFBALANCE DUP1 ISZERO PUSH2 0x8FC MUL SWAP2 PUSH1 0x0 DUP2 DUP2 DUP2 DUP6 DUP9 DUP9 CALL SWAP4 POP POP POP POP ISZERO DUP1 ISZERO PUSH2 0xA18 JUMPI RETURNDATASIZE PUSH1 0x0 DUP1 RETURNDATACOPY RETURNDATASIZE PUSH1 0x0 REVERT JUMPDEST POP POP JUMPDEST PUSH1 0xC PUSH1 0x0 SWAP1 SLOAD SWAP1 PUSH2 0x100 EXP SWAP1 DIV PUSH1 0x1 PUSH1 0x1 PUSH1 0xA0 SHL SUB AND PUSH1 0x1 PUSH1 0x1 PUSH1 0xA0 SHL SUB AND PUSH4 0x8A7CADF1 PUSH1 0x40 MLOAD DUP2 PUSH4 0xFFFFFFFF AND PUSH1 0xE0 SHL DUP2 MSTORE PUSH1 0x4 ADD PUSH1 0x0 PUSH1 0x40 MLOAD DUP1 DUP4 SUB DUP2 PUSH1 0x0 DUP8 DUP1 EXTCODESIZE ISZERO DUP1 ISZERO PUSH2 0xA6B JUMPI PUSH1 0x0 DUP1 REVERT JUMPDEST POP GAS CALL ISZERO DUP1 ISZERO PUSH2 0xA7F JUMPI RETURNDATASIZE PUSH1 0x0 DUP1 RETURNDATACOPY RETURNDATASIZE PUSH1 0x0 REVERT JUMPDEST POP POP PUSH1 0xC DUP1 SLOAD PUSH1 0xFF PUSH1 0xA0 SHL NOT AND PUSH1 0x1 PUSH1 0xA2 SHL OR SWAP1 SSTORE POP POP POP JUMP JUMPDEST PUSH1 0x0 SLOAD PUSH1 0x60 SWAP1 PUSH1 0x1 PUSH1 0x1 PUSH1 0xA0 SHL SUB AND CALLER EQ PUSH2 0xAC6 JUMPI PUSH1 0x40 MLOAD PUSH3 0x461BCD PUSH1 0xE5 SHL DUP2 MSTORE PUSH1 0x4 ADD PUSH2 0x2EF SWAP1 PUSH2 0x110D JUMP JUMPDEST PUSH1 0x9 DUP1 SLOAD PUSH2 0xAD3 SWAP1 PUSH2 0x11BA JUMP JUMPDEST DUP1 PUSH1 0x1F ADD PUSH1 0x20 DUP1 SWAP2 DIV MUL PUSH1 0x20 ADD PUSH1 0x40 MLOAD SWAP1 DUP2 ADD PUSH1 0x40 MSTORE DUP1 SWAP3 SWAP2 SWAP1 DUP2 DUP2 MSTORE PUSH1 0x20 ADD DUP3 DUP1 SLOAD PUSH2 0xAFF SWAP1 PUSH2 0x11BA JUMP JUMPDEST DUP1 ISZERO PUSH2 0xB4C JUMPI DUP1 PUSH1 0x1F LT PUSH2 0xB21 JUMPI PUSH2 0x100 DUP1 DUP4 SLOAD DIV MUL DUP4 MSTORE SWAP2 PUSH1 0x20 ADD SWAP2 PUSH2 0xB4C JUMP JUMPDEST DUP3 ADD SWAP2 SWAP1 PUSH1 0x0 MSTORE PUSH1 0x20 PUSH1 0x0 KECCAK256 SWAP1 JUMPDEST DUP2 SLOAD DUP2 MSTORE SWAP1 PUSH1 0x1 ADD SWAP1 PUSH1 0x20 ADD DUP1 DUP4 GT PUSH2 0xB2F JUMPI DUP3 SWAP1 SUB PUSH1 0x1F AND DUP3 ADD SWAP2 JUMPDEST POP POP POP POP POP SWAP1 POP SWAP1 JUMP JUMPDEST PUSH1 0x0 SLOAD PUSH1 0x60 SWAP1 PUSH1 0x1 PUSH1 0x1 PUSH1 0xA0 SHL SUB AND CALLER EQ PUSH2 0xB83 JUMPI PUSH1 0x40 MLOAD PUSH3 0x461BCD PUSH1 0xE5 SHL DUP2 MSTORE PUSH1 0x4 ADD PUSH2 0x2EF SWAP1 PUSH2 0x110D JUMP JUMPDEST PUSH1 0x1 PUSH1 0xC SLOAD PUSH1 0x1 PUSH1 0xA0 SHL SWAP1 DIV PUSH1 0xFF AND PUSH1 0x4 DUP2 GT ISZERO PUSH2 0xBA3 JUMPI PUSH2 0xBA3 PUSH2 0xEA6 JUMP JUMPDEST LT ISZERO PUSH2 0xBF1 JUMPI PUSH1 0x40 MLOAD PUSH3 0x461BCD PUSH1 0xE5 SHL DUP2 MSTORE PUSH1 0x20 PUSH1 0x4 DUP3 ADD MSTORE PUSH1 0x1D PUSH1 0x24 DUP3 ADD MSTORE PUSH32 0x53657373696F6E206973207061737420636F6E66696775726174696F6E000000 PUSH1 0x44 DUP3 ADD MSTORE PUSH1 0x64 ADD PUSH2 0x2EF JUMP JUMPDEST PUSH1 0x4 PUSH1 0xC SLOAD PUSH1 0x1 PUSH1 0xA0 SHL SWAP1 DIV PUSH1 0xFF AND PUSH1 0x4 DUP2 GT ISZERO PUSH2 0xC11 JUMPI PUSH2 0xC11 PUSH2 0xEA6 JUMP JUMPDEST LT PUSH2 0xC54 JUMPI PUSH1 0x40 MLOAD PUSH3 0x461BCD PUSH1 0xE5 SHL DUP2 MSTORE PUSH1 0x20 PUSH1 0x4 DUP3 ADD MSTORE PUSH1 0x13 PUSH1 0x24 DUP3 ADD MSTORE PUSH19 0x14D95CDCDA5BDB881A5CC81C995CDBDB1D9959 PUSH1 0x6A SHL PUSH1 0x44 DUP3 ADD MSTORE PUSH1 0x64 ADD PUSH2 0x2EF JUMP JUMPDEST PUSH1 0x8 SLOAD PUSH1 0x0 SWAP1 PUSH2 0xC6E SWAP1 CALLER SWAP1 PUSH1 0x1 PUSH1 0x1 PUSH1 0xA0 SHL SUB AND PUSH2 0xD12 JUMP JUMPDEST PUSH1 0x0 DUP2 DUP2 MSTORE PUSH1 0xA PUSH1 0x20 MSTORE PUSH1 0x40 DUP2 KECCAK256 DUP1 SLOAD SWAP3 SWAP4 POP SWAP1 SWAP2 PUSH2 0xC8C SWAP1 PUSH2 0x11BA JUMP JUMPDEST DUP1 PUSH1 0x1F ADD PUSH1 0x20 DUP1 SWAP2 DIV MUL PUSH1 0x20 ADD PUSH1 0x40 MLOAD SWAP1 DUP2 ADD PUSH1 0x40 MSTORE DUP1 SWAP3 SWAP2 SWAP1 DUP2 DUP2 MSTORE PUSH1 0x20 ADD DUP3 DUP1 SLOAD PUSH2 0xCB8 SWAP1 PUSH2 0x11BA JUMP JUMPDEST DUP1 ISZERO PUSH2 0xD05 JUMPI DUP1 PUSH1 0x1F LT PUSH2 0xCDA JUMPI PUSH2 0x100 DUP1 DUP4 SLOAD DIV MUL DUP4 MSTORE SWAP2 PUSH1 0x20 ADD SWAP2 PUSH2 0xD05 JUMP JUMPDEST DUP3 ADD SWAP2 SWAP1 PUSH1 0x0 MSTORE PUSH1 0x20 PUSH1 0x0 KECCAK256 SWAP1 JUMPDEST DUP2 SLOAD DUP2 MSTORE SWAP1 PUSH1 0x1 ADD SWAP1 PUSH1 0x20 ADD DUP1 DUP4 GT PUSH2 0xCE8 JUMPI DUP3 SWAP1 SUB PUSH1 0x1F AND DUP3 ADD SWAP2 JUMPDEST POP SWAP4 SWAP7 POP POP POP POP POP POP POP SWAP1 JUMP JUMPDEST PUSH1 0x0 DUP2 PUSH1 0x1 PUSH1 0x1 PUSH1 0xA0 SHL SUB AND DUP4 PUSH1 0x1 PUSH1 0x1 PUSH1 0xA0 SHL SUB AND LT ISZERO PUSH2 0xD75 JUMPI PUSH1 0x40 MLOAD PUSH12 0xFFFFFFFFFFFFFFFFFFFFFFFF NOT PUSH1 0x60 DUP6 DUP2 SHL DUP3 AND PUSH1 0x20 DUP5 ADD MSTORE DUP5 SWAP1 SHL AND PUSH1 0x34 DUP3 ADD MSTORE PUSH1 0x48 ADD JUMPDEST PUSH1 0x40 MLOAD PUSH1 0x20 DUP2 DUP4 SUB SUB DUP2 MSTORE SWAP1 PUSH1 0x40 MSTORE DUP1 MLOAD SWAP1 PUSH1 0x20 ADD KECCAK256 SWAP1 POP PUSH2 0xDA3 JUMP JUMPDEST PUSH1 0x40 MLOAD PUSH12 0xFFFFFFFFFFFFFFFFFFFFFFFF NOT PUSH1 0x60 DUP5 DUP2 SHL DUP3 AND PUSH1 0x20 DUP5 ADD MSTORE DUP6 SWAP1 SHL AND PUSH1 0x34 DUP3 ADD MSTORE PUSH1 0x48 ADD PUSH2 0xD58 JUMP JUMPDEST SWAP3 SWAP2 POP POP JUMP JUMPDEST PUSH1 0x0 DUP1 PUSH1 0x6 SLOAD PUSH1 0x1 PUSH2 0xDBB SWAP2 SWAP1 PUSH2 0x10F5 JUMP JUMPDEST PUSH2 0xDC6 SWAP1 PUSH1 0xA PUSH2 0x12D8 JUMP JUMPDEST PUSH1 0x3 SLOAD PUSH2 0xDD3 SWAP1 TIMESTAMP PUSH2 0x12E4 JUMP JUMPDEST PUSH2 0xDDD SWAP2 SWAP1 PUSH2 0x1179 JUMP JUMPDEST SWAP1 POP PUSH1 0x0 PUSH1 0xA PUSH1 0x5 SLOAD DUP4 PUSH2 0xDF1 SWAP2 SWAP1 PUSH2 0x1198 JUMP JUMPDEST PUSH2 0xDFC SWAP1 PUSH1 0x5 PUSH2 0x10F5 JUMP JUMPDEST PUSH2 0xE06 SWAP2 SWAP1 PUSH2 0x1198 JUMP JUMPDEST SWAP4 SWAP3 POP POP POP JUMP JUMPDEST DUP3 DUP1 SLOAD PUSH2 0xE19 SWAP1 PUSH2 0x11BA JUMP JUMPDEST SWAP1 PUSH1 0x0 MSTORE PUSH1 0x20 PUSH1 0x0 KECCAK256 SWAP1 PUSH1 0x1F ADD PUSH1 0x20 SWAP1 DIV DUP2 ADD SWAP3 DUP3 PUSH2 0xE3B JUMPI PUSH1 0x0 DUP6 SSTORE PUSH2 0xE81 JUMP JUMPDEST DUP3 PUSH1 0x1F LT PUSH2 0xE54 JUMPI DUP1 MLOAD PUSH1 0xFF NOT AND DUP4 DUP1 ADD OR DUP6 SSTORE PUSH2 0xE81 JUMP JUMPDEST DUP3 DUP1 ADD PUSH1 0x1 ADD DUP6 SSTORE DUP3 ISZERO PUSH2 0xE81 JUMPI SWAP2 DUP3 ADD JUMPDEST DUP3 DUP2 GT ISZERO PUSH2 0xE81 JUMPI DUP3 MLOAD DUP3 SSTORE SWAP2 PUSH1 0x20 ADD SWAP2 SWAP1 PUSH1 0x1 ADD SWAP1 PUSH2 0xE66 JUMP JUMPDEST POP PUSH2 0xE8D SWAP3 SWAP2 POP PUSH2 0xE91 JUMP JUMPDEST POP SWAP1 JUMP JUMPDEST JUMPDEST DUP1 DUP3 GT ISZERO PUSH2 0xE8D JUMPI PUSH1 0x0 DUP2 SSTORE PUSH1 0x1 ADD PUSH2 0xE92 JUMP JUMPDEST PUSH4 0x4E487B71 PUSH1 0xE0 SHL PUSH1 0x0 MSTORE PUSH1 0x21 PUSH1 0x4 MSTORE PUSH1 0x24 PUSH1 0x0 REVERT JUMPDEST PUSH1 0x20 DUP2 ADD PUSH1 0x5 DUP4 LT PUSH2 0xEDE JUMPI PUSH4 0x4E487B71 PUSH1 0xE0 SHL PUSH1 0x0 MSTORE PUSH1 0x21 PUSH1 0x4 MSTORE PUSH1 0x24 PUSH1 0x0 REVERT JUMPDEST SWAP2 SWAP1 MSTORE SWAP1 JUMP JUMPDEST PUSH1 0x0 PUSH1 0x20 DUP3 DUP5 SUB SLT ISZERO PUSH2 0xEF6 JUMPI PUSH1 0x0 DUP1 REVERT JUMPDEST POP CALLDATALOAD SWAP2 SWAP1 POP JUMP JUMPDEST PUSH4 0x4E487B71 PUSH1 0xE0 SHL PUSH1 0x0 MSTORE PUSH1 0x41 PUSH1 0x4 MSTORE PUSH1 0x24 PUSH1 0x0 REVERT JUMPDEST PUSH1 0x0 DUP3 PUSH1 0x1F DUP4 ADD SLT PUSH2 0xF24 JUMPI PUSH1 0x0 DUP1 REVERT JUMPDEST DUP2 CALLDATALOAD PUSH8 0xFFFFFFFFFFFFFFFF DUP1 DUP3 GT ISZERO PUSH2 0xF3F JUMPI PUSH2 0xF3F PUSH2 0xEFD JUMP JUMPDEST PUSH1 0x40 MLOAD PUSH1 0x1F DUP4 ADD PUSH1 0x1F NOT SWAP1 DUP2 AND PUSH1 0x3F ADD AND DUP2 ADD SWAP1 DUP3 DUP3 GT DUP2 DUP4 LT OR ISZERO PUSH2 0xF67 JUMPI PUSH2 0xF67 PUSH2 0xEFD JUMP JUMPDEST DUP2 PUSH1 0x40 MSTORE DUP4 DUP2 MSTORE DUP7 PUSH1 0x20 DUP6 DUP9 ADD ADD GT ISZERO PUSH2 0xF80 JUMPI PUSH1 0x0 DUP1 REVERT JUMPDEST DUP4 PUSH1 0x20 DUP8 ADD PUSH1 0x20 DUP4 ADD CALLDATACOPY PUSH1 0x0 PUSH1 0x20 DUP6 DUP4 ADD ADD MSTORE DUP1 SWAP5 POP POP POP POP POP SWAP3 SWAP2 POP POP JUMP JUMPDEST PUSH1 0x0 DUP1 PUSH1 0x40 DUP4 DUP6 SUB SLT ISZERO PUSH2 0xFB3 JUMPI PUSH1 0x0 DUP1 REVERT JUMPDEST DUP3 CALLDATALOAD PUSH8 0xFFFFFFFFFFFFFFFF DUP1 DUP3 GT ISZERO PUSH2 0xFCB JUMPI PUSH1 0x0 DUP1 REVERT JUMPDEST PUSH2 0xFD7 DUP7 DUP4 DUP8 ADD PUSH2 0xF13 JUMP JUMPDEST SWAP4 POP PUSH1 0x20 DUP6 ADD CALLDATALOAD SWAP2 POP DUP1 DUP3 GT ISZERO PUSH2 0xFED JUMPI PUSH1 0x0 DUP1 REVERT JUMPDEST POP PUSH2 0xFFA DUP6 DUP3 DUP7 ADD PUSH2 0xF13 JUMP JUMPDEST SWAP2 POP POP SWAP3 POP SWAP3 SWAP1 POP JUMP JUMPDEST PUSH1 0x0 PUSH1 0x20 DUP3 DUP5 SUB SLT ISZERO PUSH2 0x1016 JUMPI PUSH1 0x0 DUP1 REVERT JUMPDEST DUP2 CALLDATALOAD PUSH1 0x1 PUSH1 0x1 PUSH1 0xA0 SHL SUB DUP2 AND DUP2 EQ PUSH2 0xE06 JUMPI PUSH1 0x0 DUP1 REVERT JUMPDEST PUSH1 0x0 DUP2 MLOAD DUP1 DUP5 MSTORE PUSH1 0x0 JUMPDEST DUP2 DUP2 LT ISZERO PUSH2 0x1053 JUMPI PUSH1 0x20 DUP2 DUP6 ADD DUP2 ADD MLOAD DUP7 DUP4 ADD DUP3 ADD MSTORE ADD PUSH2 0x1037 JUMP JUMPDEST DUP2 DUP2 GT ISZERO PUSH2 0x1065 JUMPI PUSH1 0x0 PUSH1 0x20 DUP4 DUP8 ADD ADD MSTORE JUMPDEST POP PUSH1 0x1F ADD PUSH1 0x1F NOT AND SWAP3 SWAP1 SWAP3 ADD PUSH1 0x20 ADD SWAP3 SWAP2 POP POP JUMP JUMPDEST PUSH1 0x40 DUP2 MSTORE PUSH1 0x0 PUSH2 0x108D PUSH1 0x40 DUP4 ADD DUP6 PUSH2 0x102D JUMP JUMPDEST DUP3 DUP2 SUB PUSH1 0x20 DUP5 ADD MSTORE PUSH2 0x109F DUP2 DUP6 PUSH2 0x102D JUMP JUMPDEST SWAP6 SWAP5 POP POP POP POP POP JUMP JUMPDEST PUSH1 0x20 DUP1 DUP3 MSTORE PUSH1 0x17 SWAP1 DUP3 ADD MSTORE PUSH32 0x596F7520617265206E6F742074686520666163746F7279000000000000000000 PUSH1 0x40 DUP3 ADD MSTORE PUSH1 0x60 ADD SWAP1 JUMP JUMPDEST PUSH4 0x4E487B71 PUSH1 0xE0 SHL PUSH1 0x0 MSTORE PUSH1 0x11 PUSH1 0x4 MSTORE PUSH1 0x24 PUSH1 0x0 REVERT JUMPDEST PUSH1 0x0 DUP3 NOT DUP3 GT ISZERO PUSH2 0x1108 JUMPI PUSH2 0x1108 PUSH2 0x10DF JUMP JUMPDEST POP ADD SWAP1 JUMP JUMPDEST PUSH1 0x20 DUP1 DUP3 MSTORE DUP2 DUP2 ADD MSTORE PUSH32 0x4F776E61626C653A2063616C6C6572206973206E6F7420746865206F776E6572 PUSH1 0x40 DUP3 ADD MSTORE PUSH1 0x60 ADD SWAP1 JUMP JUMPDEST PUSH1 0x20 DUP1 DUP3 MSTORE PUSH1 0x1D SWAP1 DUP3 ADD MSTORE PUSH32 0x596F7520617265206E6F742073657373696F6E73205068616573747573000000 PUSH1 0x40 DUP3 ADD MSTORE PUSH1 0x60 ADD SWAP1 JUMP JUMPDEST PUSH1 0x0 DUP2 PUSH1 0x0 NOT DIV DUP4 GT DUP3 ISZERO ISZERO AND ISZERO PUSH2 0x1193 JUMPI PUSH2 0x1193 PUSH2 0x10DF JUMP JUMPDEST POP MUL SWAP1 JUMP JUMPDEST PUSH1 0x0 DUP3 PUSH2 0x11B5 JUMPI PUSH4 0x4E487B71 PUSH1 0xE0 SHL PUSH1 0x0 MSTORE PUSH1 0x12 PUSH1 0x4 MSTORE PUSH1 0x24 PUSH1 0x0 REVERT JUMPDEST POP DIV SWAP1 JUMP JUMPDEST PUSH1 0x1 DUP2 DUP2 SHR SWAP1 DUP3 AND DUP1 PUSH2 0x11CE JUMPI PUSH1 0x7F DUP3 AND SWAP2 POP JUMPDEST PUSH1 0x20 DUP3 LT DUP2 SUB PUSH2 0x11EE JUMPI PUSH4 0x4E487B71 PUSH1 0xE0 SHL PUSH1 0x0 MSTORE PUSH1 0x22 PUSH1 0x4 MSTORE PUSH1 0x24 PUSH1 0x0 REVERT JUMPDEST POP SWAP2 SWAP1 POP JUMP JUMPDEST PUSH1 0x1 DUP2 DUP2 JUMPDEST DUP1 DUP6 GT ISZERO PUSH2 0x122F JUMPI DUP2 PUSH1 0x0 NOT DIV DUP3 GT ISZERO PUSH2 0x1215 JUMPI PUSH2 0x1215 PUSH2 0x10DF JUMP JUMPDEST DUP1 DUP6 AND ISZERO PUSH2 0x1222 JUMPI SWAP2 DUP2 MUL SWAP2 JUMPDEST SWAP4 DUP5 SHR SWAP4 SWAP1 DUP1 MUL SWAP1 PUSH2 0x11F9 JUMP JUMPDEST POP SWAP3 POP SWAP3 SWAP1 POP JUMP JUMPDEST PUSH1 0x0 DUP3 PUSH2 0x1246 JUMPI POP PUSH1 0x1 PUSH2 0xDA3 JUMP JUMPDEST DUP2 PUSH2 0x1253 JUMPI POP PUSH1 0x0 PUSH2 0xDA3 JUMP JUMPDEST DUP2 PUSH1 0x1 DUP2 EQ PUSH2 0x1269 JUMPI PUSH1 0x2 DUP2 EQ PUSH2 0x1273 JUMPI PUSH2 0x128F JUMP JUMPDEST PUSH1 0x1 SWAP2 POP POP PUSH2 0xDA3 JUMP JUMPDEST PUSH1 0xFF DUP5 GT ISZERO PUSH2 0x1284 JUMPI PUSH2 0x1284 PUSH2 0x10DF JUMP JUMPDEST POP POP PUSH1 0x1 DUP3 SHL PUSH2 0xDA3 JUMP JUMPDEST POP PUSH1 0x20 DUP4 LT PUSH2 0x133 DUP4 LT AND PUSH1 0x4E DUP5 LT PUSH1 0xB DUP5 LT AND OR ISZERO PUSH2 0x12B2 JUMPI POP DUP2 DUP2 EXP PUSH2 0xDA3 JUMP JUMPDEST PUSH2 0x12BC DUP4 DUP4 PUSH2 0x11F4 JUMP JUMPDEST DUP1 PUSH1 0x0 NOT DIV DUP3 GT ISZERO PUSH2 0x12D0 JUMPI PUSH2 0x12D0 PUSH2 0x10DF JUMP JUMPDEST MUL SWAP4 SWAP3 POP POP POP JUMP JUMPDEST PUSH1 0x0 PUSH2 0xE06 DUP4 DUP4 PUSH2 0x1237 JUMP JUMPDEST PUSH1 0x0 DUP3 DUP3 LT ISZERO PUSH2 0x12F6 JUMPI PUSH2 0x12F6 PUSH2 0x10DF JUMP JUMPDEST POP SUB SWAP1 JUMP INVALID LOG2 PUSH5 0x6970667358 0x22 SLT KECCAK256 SWAP8 SAR SUB 0x28 PUSH14 0x497030567C234291ED8CD5CA609A ORIGIN SWAP2 SGT SWAP5 SSTORE DUP14 0xD9 0x1F 0xB4 0xCF 0xF SHL JUMPI PUSH5 0x736F6C6343 STOP ADDMOD 0xE STOP CALLER LOG2 PUSH5 0x6970667358 0x22 SLT KECCAK256 DUP7 0xEC MSIZE 0xB7 CALLDATASIZE CREATE SWAP10 GAS 0x2B CREATE2 0x24 0xC5 0xC7 CALLVALUE 0xB8 SHR ISZERO 0xA9 SWAP1 SWAP11 SWAP15 0xF9 DUP16 PUSH28 0x71CEBF69961A3C6464736F6C634300080E0033000000000000000000 ",
  "sha1": "e42906959e59e9fb3520962b33038c12ae2b894a",
  "source": "// SPDX-License-Identifier: MIT\n\npragma solidity >=0.7.0 <0.9.0;\n\nimport \"@chainlink/contracts/src/v0.8/interfaces/AggregatorV3Interface.sol\";\nimport \"./TorpedoSession.sol\";\n\ncontract TorpedoFactory {\n    // ---------------------------- Constants ----------------------------\n\n    // Save the owner address\n    address public owner;\n    uint256 rate_precision = 100;\n    uint256 LARGE_NUMBER = 10000000000000;\n    uint256[] minimals;\n\n    // Contract to get accurate pricing data\n    AggregatorV3Interface public priceFeed;\n\n    // ---------------------------- Structs/Enums--------------------------------\n\n    // GPU types\n    enum gpuType {\n        NONE,\n        _3090,\n        A100,\n        K80\n    }\n\n    // Service Types\n    enum serviceType {\n        GCP,\n        AWS,\n        VAST,\n        AZURE\n    }\n\n    struct PhaestusStatus {\n        bool status;\n        address sessionAddress;\n    }\n\n    // Phaestus Object\n    struct Phaestus {\n        address payable phaestusAddress;\n        uint8 numCPUs;\n        uint8 numGPUs;\n        uint256 endTime; // in hours\n        uint256 rate; // USD per hour rate of the node\n        gpuType gpuType;\n        serviceType serviceType;\n        uint256 diskSpace; // Persistent storage on disk (GB)\n        uint256 RAM; //RAM available to offer (GB)\n    }\n\n    // Session Request Object:\n    // TODO: Add an array of offered services. GCP/AWS/Vast Enum service type\n    struct SessionRequest {\n        uint8 numCPUs;\n        uint8 numGPUs;\n        uint16 totalTime; // in hours\n        gpuType gpuType;\n        serviceType serviceType;\n        uint256 diskSpace;\n        uint256 RAM;\n    }\n\n    // ---------------------------- Mappings ---------------------------------\n\n    // Mappings for user addresses to Clients or Phaestus nodes.\n    mapping(address => address) clientToSession;\n    mapping(address => Phaestus) public addressToPhaestus;\n    mapping(address => PhaestusStatus) public phaestusToActivate;\n\n    // ---------------------------- Storage Arrays ---------------------------------\n\n    //Storing Phaestus Nodes in arrays\n    Phaestus[] public phaestusNodes;\n\n    // ---------------------------- Modifiers ---------------------------------\n\n    modifier onlyOwner() {\n        require(msg.sender == owner, \"You are not the Owner\");\n        _;\n    }\n\n    // ---------------------------- Constructor ---------------------------------\n\n    constructor(address _priceFeed) public {\n        priceFeed = AggregatorV3Interface(_priceFeed);\n        owner = msg.sender;\n    }\n\n    // ----------------------------  Public View Functions ---------------------------------\n\n    // View phaestus nodes\n    // TODO: return entire array of phaestus nodes\n    function viewPhaestus(uint256 index) public view returns (Phaestus memory) {\n        return phaestusNodes[index];\n    }\n\n    // Return entire array of Phaestus nodes\n    function viewAllPhaestus() public view returns (Phaestus[] memory) {\n        return phaestusNodes;\n    }\n\n    // This needs to be locked. Or like please change this bc race conditions and all sorts of mayhem\n    function toggle(address phaestusNode) public {\n        phaestusToActivate[phaestusNode].sessionAddress = msg.sender;\n        phaestusToActivate[phaestusNode].status = !phaestusToActivate[\n            phaestusNode\n        ].status;\n    }\n\n    // Returns 1 if there is an outstanding session for that phaestus node\n    function checkStatusOfPhaestus() public view returns (bool) {\n        return phaestusToActivate[msg.sender].status;\n    }\n\n    // Returns the session address for the querying phaestus node\n    function getSessionAddress() public view returns (address) {\n        return phaestusToActivate[msg.sender].sessionAddress;\n    }\n\n    // Returns cost in USD\n    function calculateUSDCost(SessionRequest memory sessionRequest)\n        public\n        view\n        returns (uint256)\n    {\n        // Finds the cheapest phaestus node with the required services\n        uint256 index = findBestPhaestus(sessionRequest);\n\n        // retrieve rate and use it to calculate total amount\n        uint256 cost = phaestusNodes[uint256(index)].rate *\n            sessionRequest.totalTime;\n\n        return cost;\n    }\n\n    //returns the rate precision\n    function getRatePrecision() public view returns (uint256) {\n        return rate_precision;\n    }\n\n    // Return cost in Wei (times the precision)\n    function calculateWeiCost(SessionRequest memory sessionRequest)\n        public\n        view\n        returns (uint256)\n    {\n        uint256 cost = USDToWei(calculateUSDCost(sessionRequest)) /\n            rate_precision;\n        return cost;\n    }\n\n    // Converts Eth to USD\n    function EthToUSD(uint256 ethAmount) public view returns (uint256) {\n        uint256 ethPrice = getPrice();\n        uint256 ethAmountInUsd = (ethPrice * ethAmount) / 1000000000000000000;\n        return ethAmountInUsd;\n    }\n\n    // Converts USD to Wei\n    function USDToWei(uint256 USD) public view returns (uint256) {\n        // minimumUSD\n        uint256 minimumUSD = USD * 10**18;\n        uint256 price = getPrice();\n        uint256 precision = 1 * 10**18;\n        // return (minimumUSD * precision) / price;\n        // We fixed a rounding error by adding one!\n        return ((minimumUSD * precision) / price) + 1;\n    }\n\n    // Get current time\n    function getNow() public view returns (uint256) {\n        return block.timestamp;\n    }\n\n    function getPoolTVL()\n        public\n        view\n        returns (\n            uint256,\n            uint256,\n            uint256,\n            uint256,\n            uint256\n        )\n    {\n        // Arbitrary large number (fix later)\n        uint256 sumCPUs = 0;\n        uint256 sumGPUs = 0;\n        // uint256 maxRAM = 0;\n        uint256 sumTime = 0;\n        uint256 sumDiskSpace;\n        uint256 sumRAM;\n        uint256 i;\n\n        //Loop over all available phaestus nodes:\n        for (i = 0; i < phaestusNodes.length; i++) {\n            Phaestus memory p = phaestusNodes[i];\n\n            sumCPUs += p.numCPUs;\n\n            sumGPUs += p.numGPUs;\n\n            sumTime += p.endTime - block.timestamp;\n\n            sumDiskSpace += p.diskSpace;\n\n            sumRAM += p.RAM;\n        }\n\n        sumTime = uint256(sumTime / 3600);\n\n        // change max time to hours\n\n        return (sumCPUs, sumGPUs, sumTime, sumDiskSpace, sumRAM);\n    }\n\n    // ----------------------------  Internal functions ---------------------------------\n\n    // finding cheapest phaestus node that satisfies session params\n    function findBestPhaestus(SessionRequest memory sessionRequest)\n        internal\n        view\n        returns (uint256)\n    {\n        // Arbitrary large number (fix later)\n        uint256 min_index = LARGE_NUMBER;\n        uint256 min_rate = LARGE_NUMBER;\n        uint256 i;\n\n        // Change the rate variable to a function that takes in a session request and calculates\n        for (i = 0; i < phaestusNodes.length; i++) {\n            Phaestus memory p = phaestusNodes[i];\n\n            if (\n                p.numCPUs >= sessionRequest.numCPUs &&\n                p.numGPUs >= sessionRequest.numGPUs &&\n                p.diskSpace >= sessionRequest.diskSpace &&\n                p.RAM >= sessionRequest.RAM &&\n                p.gpuType == sessionRequest.gpuType &&\n                p.serviceType == sessionRequest.serviceType &&\n                min_rate > p.rate\n            ) {\n                min_rate = p.rate;\n                min_index = i;\n            }\n        }\n        return min_index;\n    }\n\n    // Get price of ETH\n    function getPrice() internal view returns (uint256) {\n        (, int256 answer, , , ) = priceFeed.latestRoundData();\n        return uint256(answer * 10000000000);\n    }\n\n    // Finds all nodes with lowest rate that satisfy the session params\n    function findAllBestPhaestus(SessionRequest memory sessionRequest)\n        internal\n        returns (uint256[] storage)\n    {\n        uint256 i = findBestPhaestus(sessionRequest);\n        Phaestus memory best = phaestusNodes[i];\n\n        for (uint256 j = 0; j < phaestusNodes.length; j++) {\n            Phaestus memory p = phaestusNodes[j];\n\n            if (p.rate == best.rate) {\n                minimals.push(j);\n            }\n        }\n        return minimals;\n    }\n\n    // ----------------------------  External functions ---------------------------------\n\n    // Register a Phaestus Node\n    // Make payable later, and require collateral...build reputation\n    // PHAESTUS NODE CALLS THIS FUNCTION TO REGISTER ITSELF\n    function registerPhaestus(\n        uint8 numCPUs,\n        uint8 numGPUs,\n        uint256 endTime,\n        uint256 rate,\n        gpuType _gpuType,\n        serviceType _serviceType,\n        uint256 diskSpace,\n        uint256 RAM\n    ) external {\n        // Phaestus node has at least 2 CPUS, non-zero GPUs and is online for 4 hours\n        require(numCPUs >= 1, \"Must have at least 2 CPU cores\");\n        require(numGPUs >= 0, \"GPUs must be non-negative\");\n        require(\n            endTime > block.timestamp + 2 * 3600,\n            \"Phaestus must be online for at least 2 hours\"\n        );\n        if (numGPUs > 0) {\n            require(\n                _gpuType != gpuType.NONE,\n                \"You have a GPU. Specify type please\"\n            );\n        }\n\n        // Add node to the list of nodes\n        phaestusNodes.push(\n            Phaestus({\n                phaestusAddress: payable(msg.sender),\n                numCPUs: numCPUs,\n                numGPUs: numGPUs,\n                endTime: endTime,\n                rate: rate,\n                gpuType: _gpuType,\n                serviceType: _serviceType,\n                diskSpace: diskSpace,\n                RAM: RAM\n            })\n        );\n\n        addressToPhaestus[msg.sender] = phaestusNodes[phaestusNodes.length - 1];\n        phaestusToActivate[msg.sender].status = false;\n    }\n\n    // How to protect these functions! Check this\n    function deductResources() external {\n        TorpedoSession session = TorpedoSession(msg.sender);\n\n        // phaestus can use past session creds to change resource values...FIX ME\n\n        Phaestus storage p = addressToPhaestus[session.getPhaestusAddress()];\n\n        p.numCPUs -= session.numCPUs();\n        p.numGPUs -= session.numGPUs();\n        p.RAM -= session.RAM();\n        p.diskSpace -= session.diskSpace();\n\n        // addressToPhaestus[msg.sender] = p;\n        // addressToPhaestus[msg.sender].numCPUs -= _numCPUs;\n        // addressToPhaestus[msg.sender].numGPUs -= _numGPUs;\n    }\n\n    function releaseResources() external {\n        TorpedoSession session = TorpedoSession(msg.sender);\n\n        Phaestus storage p = addressToPhaestus[session.getPhaestusAddress()];\n\n        p.numCPUs += session.numCPUs();\n        p.numGPUs += session.numGPUs();\n        p.RAM += session.RAM();\n        p.diskSpace += session.diskSpace();\n        // addressToPhaestus[msg.sender].numCPUs += _numCPUs;\n        // addressToPhaestus[msg.sender].numGPUs += _numGPUs;\n    }\n\n    // ----------------------------  Payable functions ---------------------------------\n\n    // CLIENT WILL USE THIS FUNCTION TO INSTANTIATE A SESSION\n    function createSession(SessionRequest memory sessionRequest)\n        public\n        payable\n        returns (address)\n    {\n        // check payment is at least what is required\n        require(\n            msg.value >= calculateWeiCost(sessionRequest),\n            \"insufficient payment\"\n        );\n\n        // Find all phaestus nodes that offer that rate\n        minimals = findAllBestPhaestus(sessionRequest);\n\n        // @dev Eventually switch to oracle source of randomness\n        //select a phaestus node at random from the above valid nodes\n        uint256 phaestus_chosen = uint256(\n            keccak256(abi.encodePacked(block.timestamp, block.difficulty))\n        ) % minimals.length;\n        address payable phaestus_address = phaestusNodes[phaestus_chosen]\n            .phaestusAddress;\n\n        // Initiate session contract with client and phaestus\n        TorpedoSession _clientSession = (new TorpedoSession){value: msg.value}(\n            sessionRequest.numCPUs,\n            sessionRequest.numGPUs,\n            sessionRequest.totalTime,\n            sessionRequest.gpuType,\n            sessionRequest.diskSpace,\n            sessionRequest.RAM,\n            sessionRequest.serviceType,\n            payable(msg.sender),\n            phaestus_address\n        );\n\n        // map client address to session contract address\n        clientToSession[msg.sender] = address(_clientSession);\n\n        // Reset minimals array\n        minimals = new uint256[](0);\n\n        // Return session contract address\n        return address(_clientSession);\n    }\n\n    // CLIENT CALLS THIS TO EXTEND SESSION\n    function extendSession(uint256 addedTime) public payable {\n        address _sessionAddress = clientToSession[msg.sender];\n        // require(_sessionAddress != 0, \"You are an invalid client\");\n        TorpedoSession session = TorpedoSession(_sessionAddress);\n        address payable _phaestus = session.getPhaestusAddress();\n\n        require(\n            msg.sender == session.getClientAddress(),\n            \"Sender is not client of the session\"\n        );\n        require(\n            block.timestamp + addedTime < addressToPhaestus[_phaestus].endTime,\n            \"This phaestus won't be online for that long\"\n        );\n\n        uint256 addedCost = USDToWei(\n            addressToPhaestus[_phaestus].rate * addedTime\n        ) / rate_precision;\n\n        require(msg.value > addedCost, \"Insufficient payment\");\n\n        session.extendSession{value: msg.value}(addedTime);\n    }\n\n    function getClientSessionAddress() public view returns (address) {\n        return clientToSession[msg.sender];\n    }\n}\n",
  "sourcePath": "contracts/TorpedoFactory.sol",
  "type": "contract"
}