{
  "abi": [
    {
      "inputs": [
        {
          "internalType": "uint8",
          "name": "_numCPUs",
          "type": "uint8"
        },
        {
          "internalType": "uint8",
          "name": "_numGPUs",
          "type": "uint8"
        },
        {
          "internalType": "uint256",
          "name": "_totalTime",
          "type": "uint256"
        },
        {
          "internalType": "enum TorpedoFactory.gpuType",
          "name": "_gpuType",
          "type": "uint8"
        },
        {
          "internalType": "uint256",
          "name": "_diskSpace",
          "type": "uint256"
        },
        {
          "internalType": "uint256",
          "name": "_RAM",
          "type": "uint256"
        },
        {
          "internalType": "enum TorpedoFactory.serviceType",
          "name": "_serviceType",
          "type": "uint8"
        },
        {
          "internalType": "address payable",
          "name": "_clientAddress",
          "type": "address"
        },
        {
          "internalType": "address payable",
          "name": "_phaestusAddress",
          "type": "address"
        }
      ],
      "stateMutability": "payable",
      "type": "constructor"
    },
    {
      "anonymous": false,
      "inputs": [
        {
          "indexed": true,
          "internalType": "address",
          "name": "previousOwner",
          "type": "address"
        },
        {
          "indexed": true,
          "internalType": "address",
          "name": "newOwner",
          "type": "address"
        }
      ],
      "name": "OwnershipTransferred",
      "type": "event"
    },
    {
      "inputs": [],
      "name": "RAM",
      "outputs": [
        {
          "internalType": "uint256",
          "name": "",
          "type": "uint256"
        }
      ],
      "stateMutability": "view",
      "type": "function"
    },
    {
      "inputs": [],
      "name": "diskSpace",
      "outputs": [
        {
          "internalType": "uint256",
          "name": "",
          "type": "uint256"
        }
      ],
      "stateMutability": "view",
      "type": "function"
    },
    {
      "inputs": [],
      "name": "endSession",
      "outputs": [],
      "stateMutability": "nonpayable",
      "type": "function"
    },
    {
      "inputs": [
        {
          "internalType": "uint256",
          "name": "addedTime",
          "type": "uint256"
        }
      ],
      "name": "extendSession",
      "outputs": [],
      "stateMutability": "payable",
      "type": "function"
    },
    {
      "inputs": [],
      "name": "getClientAddress",
      "outputs": [
        {
          "internalType": "address payable",
          "name": "",
          "type": "address"
        }
      ],
      "stateMutability": "view",
      "type": "function"
    },
    {
      "inputs": [],
      "name": "getPhaestusAddress",
      "outputs": [
        {
          "internalType": "address payable",
          "name": "",
          "type": "address"
        }
      ],
      "stateMutability": "view",
      "type": "function"
    },
    {
      "inputs": [],
      "name": "getSessionRequest",
      "outputs": [
        {
          "internalType": "uint8",
          "name": "",
          "type": "uint8"
        },
        {
          "internalType": "uint8",
          "name": "",
          "type": "uint8"
        },
        {
          "internalType": "uint256",
          "name": "",
          "type": "uint256"
        },
        {
          "internalType": "enum TorpedoFactory.gpuType",
          "name": "",
          "type": "uint8"
        },
        {
          "internalType": "enum TorpedoFactory.serviceType",
          "name": "",
          "type": "uint8"
        },
        {
          "internalType": "uint256",
          "name": "",
          "type": "uint256"
        },
        {
          "internalType": "uint256",
          "name": "",
          "type": "uint256"
        }
      ],
      "stateMutability": "view",
      "type": "function"
    },
    {
      "inputs": [
        {
          "internalType": "string",
          "name": "_notebook_url",
          "type": "string"
        },
        {
          "internalType": "string",
          "name": "_password",
          "type": "string"
        }
      ],
      "name": "initialiseSession",
      "outputs": [],
      "stateMutability": "nonpayable",
      "type": "function"
    },
    {
      "inputs": [],
      "name": "numCPUs",
      "outputs": [
        {
          "internalType": "uint8",
          "name": "",
          "type": "uint8"
        }
      ],
      "stateMutability": "view",
      "type": "function"
    },
    {
      "inputs": [],
      "name": "numGPUs",
      "outputs": [
        {
          "internalType": "uint8",
          "name": "",
          "type": "uint8"
        }
      ],
      "stateMutability": "view",
      "type": "function"
    },
    {
      "inputs": [],
      "name": "owner",
      "outputs": [
        {
          "internalType": "address",
          "name": "",
          "type": "address"
        }
      ],
      "stateMutability": "view",
      "type": "function"
    },
    {
      "inputs": [],
      "name": "renounceOwnership",
      "outputs": [],
      "stateMutability": "nonpayable",
      "type": "function"
    },
    {
      "inputs": [],
      "name": "sessionOvertime",
      "outputs": [],
      "stateMutability": "nonpayable",
      "type": "function"
    },
    {
      "inputs": [],
      "name": "startSession",
      "outputs": [
        {
          "internalType": "string",
          "name": "",
          "type": "string"
        },
        {
          "internalType": "string",
          "name": "",
          "type": "string"
        }
      ],
      "stateMutability": "nonpayable",
      "type": "function"
    },
    {
      "inputs": [],
      "name": "status",
      "outputs": [
        {
          "internalType": "enum TorpedoSession.Status",
          "name": "",
          "type": "uint8"
        }
      ],
      "stateMutability": "view",
      "type": "function"
    },
    {
      "inputs": [
        {
          "internalType": "address",
          "name": "newOwner",
          "type": "address"
        }
      ],
      "name": "transferOwnership",
      "outputs": [],
      "stateMutability": "nonpayable",
      "type": "function"
    }
  ],
  "bytecode": "60806040526003600655604051620017b2380380620017b28339810160408190526200002b916200030a565b6200003633620001a8565b6000805460ff8a8116600160a81b0260ff60a81b19918d16600160a01b029190911661ffff60a01b199092169190911717905560018581556002859055600c8054889260ff1990911690836003811115620000955762000095620003b0565b0217905550600c805484919061ff001916610100836003811115620000be57620000be620003b0565b02179055506005879055600780546001600160a01b038085166001600160a01b0319928316811790935560088054918516919092161790556200010190620001f8565b600c805462010000600160b01b0319163362010000908102919091179182905534600b55600854604051631623e6b360e21b81526001600160a01b03918216600482015291909204919091169063588f9acc90602401600060405180830381600087803b1580156200017257600080fd5b505af115801562000187573d6000803e3d6000fd5b5050600c805460ff60b01b1916905550620003c69950505050505050505050565b600080546001600160a01b038381166001600160a01b0319831681178455604051919092169283917f8be0079c531659141344cd1fd0a4f28419497f9722a3daafe3b4186f6b6457e09190a35050565b6000546001600160a01b03163314620002585760405162461bcd60e51b815260206004820181905260248201527f4f776e61626c653a2063616c6c6572206973206e6f7420746865206f776e657260448201526064015b60405180910390fd5b6001600160a01b038116620002bf5760405162461bcd60e51b815260206004820152602660248201527f4f776e61626c653a206e6577206f776e657220697320746865207a65726f206160448201526564647265737360d01b60648201526084016200024f565b620002ca81620001a8565b50565b805160ff81168114620002df57600080fd5b919050565b60048110620002ca57600080fd5b80516001600160a01b0381168114620002df57600080fd5b60008060008060008060008060006101208a8c0312156200032a57600080fd5b620003358a620002cd565b98506200034560208b01620002cd565b975060408a0151965060608a01516200035e81620002e4565b8096505060808a0151945060a08a0151935060c08a01516200038081620002e4565b92506200039060e08b01620002f2565b9150620003a16101008b01620002f2565b90509295985092959850929598565b634e487b7160e01b600052602160045260246000fd5b6113dc80620003d66000396000f3fe6080604052600436106100f35760003560e01c80637492174f1161008a578063dc3612e911610059578063dc3612e9146102bd578063e237a3fc146102d3578063f2fde38b146102e8578063fe0ae1651461030857600080fd5b80637492174f1461023f5780638da5cb5b1461026c5780639ea6b4f41461028a578063c41c28a9146102a857600080fd5b80634a7d1dff116100c65780634a7d1dff1461019457806361732581146101e6578063715018a61461020a57806372dd40841461021f57600080fd5b806309b0ca7a146100f85780631a63b10014610130578063200d2ed214610151578063251d10b01461017f575b600080fd5b34801561010457600080fd5b5060005461011990600160a01b900460ff1681565b60405160ff90911681526020015b60405180910390f35b34801561013c57600080fd5b5060005461011990600160a81b900460ff1681565b34801561015d57600080fd5b50600c5461017290600160b01b900460ff1681565b6040516101279190610f4d565b61019261018d366004610f67565b61032b565b005b3480156101a057600080fd5b50600054600554600c546001546002546040516101279560ff600160a01b8204811696600160a81b90920481169591948183169461010090930490911692909190610f90565b3480156101f257600080fd5b506101fc60015481565b604051908152602001610127565b34801561021657600080fd5b506101926103bd565b34801561022b57600080fd5b5061019261023a366004611082565b6103f3565b34801561024b57600080fd5b5061025461052c565b6040516001600160a01b039091168152602001610127565b34801561027857600080fd5b506000546001600160a01b0316610254565b34801561029657600080fd5b506007546001600160a01b0316610254565b3480156102b457600080fd5b50610192610599565b3480156102c957600080fd5b506101fc60025481565b3480156102df57600080fd5b5061019261062f565b3480156102f457600080fd5b506101926103033660046110e6565b610659565b34801561031457600080fd5b5061031d6106f4565b60405161012792919061115c565b600c546201000090046001600160a01b0316331461038a5760405162461bcd60e51b8152602060048201526017602482015276596f7520617265206e6f742074686520666163746f727960481b60448201526064015b60405180910390fd5b806004600082825461039c91906111a0565b9250508190555080600560008282546103b591906111a0565b909155505050565b6000546001600160a01b031633146103e75760405162461bcd60e51b8152600401610381906111b8565b6103f160006107db565b565b6008546001600160a01b0316331461041d5760405162461bcd60e51b8152600401610381906111ed565b600c60029054906101000a90046001600160a01b03166001600160a01b0316632c8f85f46040518163ffffffff1660e01b8152600401600060405180830381600087803b15801561046d57600080fd5b505af1158015610481573d6000803e3d6000fd5b5050505061048e8261082b565b6104978161086c565b4260038190556005546104a9916111a0565b600455600c80546001919060ff60b01b1916600160b01b830217905550600c54604051631623e6b360e21b8152336004820152620100009091046001600160a01b03169063588f9acc90602401600060405180830381600087803b15801561051057600080fd5b505af1158015610524573d6000803e3d6000fd5b505050505050565b600c546000906201000090046001600160a01b031633146105895760405162461bcd60e51b8152602060048201526017602482015276596f7520617265206e6f742074686520666163746f727960481b6044820152606401610381565b506008546001600160a01b031690565b6008546001600160a01b031633146105c35760405162461bcd60e51b8152600401610381906111ed565b60045442116106145760405162461bcd60e51b815260206004820152601760248201527f53657373696f6e206973206e6f74206f76657274696d650000000000000000006044820152606401610381565b600c805460ff60b01b1916600360b01b1790556103f1610946565b6000546001600160a01b031633146106145760405162461bcd60e51b8152600401610381906111b8565b6000546001600160a01b031633146106835760405162461bcd60e51b8152600401610381906111b8565b6001600160a01b0381166106e85760405162461bcd60e51b815260206004820152602660248201527f4f776e61626c653a206e6577206f776e657220697320746865207a65726f206160448201526564647265737360d01b6064820152608401610381565b6106f1816107db565b50565b606080336001600160a01b03166107136000546001600160a01b031690565b6001600160a01b0316146107395760405162461bcd60e51b8152600401610381906111b8565b6001600c54600160b01b900460ff16600481111561075957610759610f37565b10156107a75760405162461bcd60e51b815260206004820152601960248201527f53657373696f6e206973206e6f7420636f6e66696775726564000000000000006044820152606401610381565b60006107b1610b2a565b905060006107bd610be7565b600c805460ff60b01b1916600160b11b179055919491935090915050565b600080546001600160a01b038381166001600160a01b0319831681178455604051919092169283917f8be0079c531659141344cd1fd0a4f28419497f9722a3daafe3b4186f6b6457e09190a35050565b6008546001600160a01b031633146108555760405162461bcd60e51b8152600401610381906111ed565b8051610868906009906020840190610e9e565b5050565b6008546001600160a01b031633146108965760405162461bcd60e51b8152600401610381906111ed565b6000600c54600160b01b900460ff1660048111156108b6576108b6610f37565b146109035760405162461bcd60e51b815260206004820152601b60248201527f53657373696f6e206973206e6f7420696e697469616c6973696e6700000000006044820152606401610381565b60075460009061091d9033906001600160a01b0316610da3565b6000818152600a602090815260409091208451929350610941929091850190610e9e565b505050565b6003600c54600160b01b900460ff16600481111561096657610966610f37565b146109b35760405162461bcd60e51b815260206004820152601960248201527f53657373696f6e20686173206e6f7420656e64656420796574000000000000006044820152606401610381565b60006109bd610e3a565b905060065460016109ce9190611224565b811115610a1757600854600b546040516001600160a01b039092169181156108fc0291906000818181858888f19350505050158015610a11573d6000803e3d6000fd5b50610aac565b6000600654600b5483610a2a9190611224565b610a349190611243565b6008546040519192506001600160a01b03169082156108fc029083906000818181858888f19350505050158015610a6f573d6000803e3d6000fd5b506007546040516001600160a01b03909116904780156108fc02916000818181858888f19350505050158015610aa9573d6000803e3d6000fd5b50505b600c60029054906101000a90046001600160a01b03166001600160a01b0316638a7cadf16040518163ffffffff1660e01b8152600401600060405180830381600087803b158015610afc57600080fd5b505af1158015610b10573d6000803e3d6000fd5b5050600c805460ff60b01b1916600160b21b179055505050565b6000546060906001600160a01b03163314610b575760405162461bcd60e51b8152600401610381906111b8565b60098054610b6490611265565b80601f0160208091040260200160405190810160405280929190818152602001828054610b9090611265565b8015610bdd5780601f10610bb257610100808354040283529160200191610bdd565b820191906000526020600020905b815481529060010190602001808311610bc057829003601f168201915b5050505050905090565b6000546060906001600160a01b03163314610c145760405162461bcd60e51b8152600401610381906111b8565b6001600c54600160b01b900460ff166004811115610c3457610c34610f37565b1015610c825760405162461bcd60e51b815260206004820152601d60248201527f53657373696f6e206973207061737420636f6e66696775726174696f6e0000006044820152606401610381565b6004600c54600160b01b900460ff166004811115610ca257610ca2610f37565b10610ce55760405162461bcd60e51b815260206004820152601360248201527214d95cdcda5bdb881a5cc81c995cdbdb1d9959606a1b6044820152606401610381565b600854600090610cff9033906001600160a01b0316610da3565b6000818152600a6020526040812080549293509091610d1d90611265565b80601f0160208091040260200160405190810160405280929190818152602001828054610d4990611265565b8015610d965780601f10610d6b57610100808354040283529160200191610d96565b820191906000526020600020905b815481529060010190602001808311610d7957829003601f168201915b5093965050505050505090565b6000816001600160a01b0316836001600160a01b03161015610e06576040516bffffffffffffffffffffffff19606085811b8216602084015284901b1660348201526048015b604051602081830303815290604052805190602001209050610e34565b6040516bffffffffffffffffffffffff19606084811b8216602084015285901b166034820152604801610de9565b92915050565b6000806006546001610e4c91906111a0565b610e5790600a611383565b600354610e64904261138f565b610e6e9190611224565b90506000600a60055483610e829190611243565b610e8d9060056111a0565b610e979190611243565b9392505050565b828054610eaa90611265565b90600052602060002090601f016020900481019282610ecc5760008555610f12565b82601f10610ee557805160ff1916838001178555610f12565b82800160010185558215610f12579182015b82811115610f12578251825591602001919060010190610ef7565b50610f1e929150610f22565b5090565b5b80821115610f1e5760008155600101610f23565b634e487b7160e01b600052602160045260246000fd5b6020810160058310610f6157610f61610f37565b91905290565b600060208284031215610f7957600080fd5b5035919050565b600481106106f1576106f1610f37565b60ff8881168252871660208201526040810186905260e08101610fb286610f80565b856060830152610fc185610f80565b8460808301528360a08301528260c083015298975050505050505050565b634e487b7160e01b600052604160045260246000fd5b600082601f83011261100657600080fd5b813567ffffffffffffffff8082111561102157611021610fdf565b604051601f8301601f19908116603f0116810190828211818310171561104957611049610fdf565b8160405283815286602085880101111561106257600080fd5b836020870160208301376000602085830101528094505050505092915050565b6000806040838503121561109557600080fd5b823567ffffffffffffffff808211156110ad57600080fd5b6110b986838701610ff5565b935060208501359150808211156110cf57600080fd5b506110dc85828601610ff5565b9150509250929050565b6000602082840312156110f857600080fd5b81356001600160a01b0381168114610e9757600080fd5b6000815180845260005b8181101561113557602081850181015186830182015201611119565b81811115611147576000602083870101525b50601f01601f19169290920160200192915050565b60408152600061116f604083018561110f565b8281036020840152611181818561110f565b95945050505050565b634e487b7160e01b600052601160045260246000fd5b600082198211156111b3576111b361118a565b500190565b6020808252818101527f4f776e61626c653a2063616c6c6572206973206e6f7420746865206f776e6572604082015260600190565b6020808252601d908201527f596f7520617265206e6f742073657373696f6e73205068616573747573000000604082015260600190565b600081600019048311821515161561123e5761123e61118a565b500290565b60008261126057634e487b7160e01b600052601260045260246000fd5b500490565b600181811c9082168061127957607f821691505b60208210810361129957634e487b7160e01b600052602260045260246000fd5b50919050565b600181815b808511156112da5781600019048211156112c0576112c061118a565b808516156112cd57918102915b93841c93908002906112a4565b509250929050565b6000826112f157506001610e34565b816112fe57506000610e34565b8160018114611314576002811461131e5761133a565b6001915050610e34565b60ff84111561132f5761132f61118a565b50506001821b610e34565b5060208310610133831016604e8410600b841016171561135d575081810a610e34565b611367838361129f565b806000190482111561137b5761137b61118a565b029392505050565b6000610e9783836112e2565b6000828210156113a1576113a161118a565b50039056fea2646970667358221220bb6da01d79eaae58ef38c143dab6f22db9e80487fa7cbc5146132e4b3fa2d1ca64736f6c634300080e0033",
  "bytecodeSha1": "ba16f81df2e4b66e403a7aa5be341ee2c421e1e5",
  "compiler": {
    "evm_version": "istanbul",
    "optimizer": {
      "enabled": true,
      "runs": 200
    },
    "version": "0.8.14+commit.80d49f37"
  },
  "contractName": "TorpedoSession",
  "language": "Solidity",
  "natspec": {
    "kind": "dev",
    "methods": {
      "owner()": {
        "details": "Returns the address of the current owner."
      },
      "renounceOwnership()": {
        "details": "Leaves the contract without owner. It will not be possible to call `onlyOwner` functions anymore. Can only be called by the current owner. NOTE: Renouncing ownership will leave the contract without an owner, thereby removing any functionality that is only available to the owner."
      },
      "transferOwnership(address)": {
        "details": "Transfers ownership of the contract to a new account (`newOwner`). Can only be called by the current owner."
      }
    },
    "version": 1
  },
  "opcodes": "PUSH1 0x80 PUSH1 0x40 MSTORE PUSH1 0x4 CALLDATASIZE LT PUSH2 0xF3 JUMPI PUSH1 0x0 CALLDATALOAD PUSH1 0xE0 SHR DUP1 PUSH4 0x7492174F GT PUSH2 0x8A JUMPI DUP1 PUSH4 0xDC3612E9 GT PUSH2 0x59 JUMPI DUP1 PUSH4 0xDC3612E9 EQ PUSH2 0x2BD JUMPI DUP1 PUSH4 0xE237A3FC EQ PUSH2 0x2D3 JUMPI DUP1 PUSH4 0xF2FDE38B EQ PUSH2 0x2E8 JUMPI DUP1 PUSH4 0xFE0AE165 EQ PUSH2 0x308 JUMPI PUSH1 0x0 DUP1 REVERT JUMPDEST DUP1 PUSH4 0x7492174F EQ PUSH2 0x23F JUMPI DUP1 PUSH4 0x8DA5CB5B EQ PUSH2 0x26C JUMPI DUP1 PUSH4 0x9EA6B4F4 EQ PUSH2 0x28A JUMPI DUP1 PUSH4 0xC41C28A9 EQ PUSH2 0x2A8 JUMPI PUSH1 0x0 DUP1 REVERT JUMPDEST DUP1 PUSH4 0x4A7D1DFF GT PUSH2 0xC6 JUMPI DUP1 PUSH4 0x4A7D1DFF EQ PUSH2 0x194 JUMPI DUP1 PUSH4 0x61732581 EQ PUSH2 0x1E6 JUMPI DUP1 PUSH4 0x715018A6 EQ PUSH2 0x20A JUMPI DUP1 PUSH4 0x72DD4084 EQ PUSH2 0x21F JUMPI PUSH1 0x0 DUP1 REVERT JUMPDEST DUP1 PUSH4 0x9B0CA7A EQ PUSH2 0xF8 JUMPI DUP1 PUSH4 0x1A63B100 EQ PUSH2 0x130 JUMPI DUP1 PUSH4 0x200D2ED2 EQ PUSH2 0x151 JUMPI DUP1 PUSH4 0x251D10B0 EQ PUSH2 0x17F JUMPI JUMPDEST PUSH1 0x0 DUP1 REVERT JUMPDEST CALLVALUE DUP1 ISZERO PUSH2 0x104 JUMPI PUSH1 0x0 DUP1 REVERT JUMPDEST POP PUSH1 0x0 SLOAD PUSH2 0x119 SWAP1 PUSH1 0x1 PUSH1 0xA0 SHL SWAP1 DIV PUSH1 0xFF AND DUP2 JUMP JUMPDEST PUSH1 0x40 MLOAD PUSH1 0xFF SWAP1 SWAP2 AND DUP2 MSTORE PUSH1 0x20 ADD JUMPDEST PUSH1 0x40 MLOAD DUP1 SWAP2 SUB SWAP1 RETURN JUMPDEST CALLVALUE DUP1 ISZERO PUSH2 0x13C JUMPI PUSH1 0x0 DUP1 REVERT JUMPDEST POP PUSH1 0x0 SLOAD PUSH2 0x119 SWAP1 PUSH1 0x1 PUSH1 0xA8 SHL SWAP1 DIV PUSH1 0xFF AND DUP2 JUMP JUMPDEST CALLVALUE DUP1 ISZERO PUSH2 0x15D JUMPI PUSH1 0x0 DUP1 REVERT JUMPDEST POP PUSH1 0xC SLOAD PUSH2 0x172 SWAP1 PUSH1 0x1 PUSH1 0xB0 SHL SWAP1 DIV PUSH1 0xFF AND DUP2 JUMP JUMPDEST PUSH1 0x40 MLOAD PUSH2 0x127 SWAP2 SWAP1 PUSH2 0xF4D JUMP JUMPDEST PUSH2 0x192 PUSH2 0x18D CALLDATASIZE PUSH1 0x4 PUSH2 0xF67 JUMP JUMPDEST PUSH2 0x32B JUMP JUMPDEST STOP JUMPDEST CALLVALUE DUP1 ISZERO PUSH2 0x1A0 JUMPI PUSH1 0x0 DUP1 REVERT JUMPDEST POP PUSH1 0x0 SLOAD PUSH1 0x5 SLOAD PUSH1 0xC SLOAD PUSH1 0x1 SLOAD PUSH1 0x2 SLOAD PUSH1 0x40 MLOAD PUSH2 0x127 SWAP6 PUSH1 0xFF PUSH1 0x1 PUSH1 0xA0 SHL DUP3 DIV DUP2 AND SWAP7 PUSH1 0x1 PUSH1 0xA8 SHL SWAP1 SWAP3 DIV DUP2 AND SWAP6 SWAP2 SWAP5 DUP2 DUP4 AND SWAP5 PUSH2 0x100 SWAP1 SWAP4 DIV SWAP1 SWAP2 AND SWAP3 SWAP1 SWAP2 SWAP1 PUSH2 0xF90 JUMP JUMPDEST CALLVALUE DUP1 ISZERO PUSH2 0x1F2 JUMPI PUSH1 0x0 DUP1 REVERT JUMPDEST POP PUSH2 0x1FC PUSH1 0x1 SLOAD DUP2 JUMP JUMPDEST PUSH1 0x40 MLOAD SWAP1 DUP2 MSTORE PUSH1 0x20 ADD PUSH2 0x127 JUMP JUMPDEST CALLVALUE DUP1 ISZERO PUSH2 0x216 JUMPI PUSH1 0x0 DUP1 REVERT JUMPDEST POP PUSH2 0x192 PUSH2 0x3BD JUMP JUMPDEST CALLVALUE DUP1 ISZERO PUSH2 0x22B JUMPI PUSH1 0x0 DUP1 REVERT JUMPDEST POP PUSH2 0x192 PUSH2 0x23A CALLDATASIZE PUSH1 0x4 PUSH2 0x1082 JUMP JUMPDEST PUSH2 0x3F3 JUMP JUMPDEST CALLVALUE DUP1 ISZERO PUSH2 0x24B JUMPI PUSH1 0x0 DUP1 REVERT JUMPDEST POP PUSH2 0x254 PUSH2 0x52C JUMP JUMPDEST PUSH1 0x40 MLOAD PUSH1 0x1 PUSH1 0x1 PUSH1 0xA0 SHL SUB SWAP1 SWAP2 AND DUP2 MSTORE PUSH1 0x20 ADD PUSH2 0x127 JUMP JUMPDEST CALLVALUE DUP1 ISZERO PUSH2 0x278 JUMPI PUSH1 0x0 DUP1 REVERT JUMPDEST POP PUSH1 0x0 SLOAD PUSH1 0x1 PUSH1 0x1 PUSH1 0xA0 SHL SUB AND PUSH2 0x254 JUMP JUMPDEST CALLVALUE DUP1 ISZERO PUSH2 0x296 JUMPI PUSH1 0x0 DUP1 REVERT JUMPDEST POP PUSH1 0x7 SLOAD PUSH1 0x1 PUSH1 0x1 PUSH1 0xA0 SHL SUB AND PUSH2 0x254 JUMP JUMPDEST CALLVALUE DUP1 ISZERO PUSH2 0x2B4 JUMPI PUSH1 0x0 DUP1 REVERT JUMPDEST POP PUSH2 0x192 PUSH2 0x599 JUMP JUMPDEST CALLVALUE DUP1 ISZERO PUSH2 0x2C9 JUMPI PUSH1 0x0 DUP1 REVERT JUMPDEST POP PUSH2 0x1FC PUSH1 0x2 SLOAD DUP2 JUMP JUMPDEST CALLVALUE DUP1 ISZERO PUSH2 0x2DF JUMPI PUSH1 0x0 DUP1 REVERT JUMPDEST POP PUSH2 0x192 PUSH2 0x62F JUMP JUMPDEST CALLVALUE DUP1 ISZERO PUSH2 0x2F4 JUMPI PUSH1 0x0 DUP1 REVERT JUMPDEST POP PUSH2 0x192 PUSH2 0x303 CALLDATASIZE PUSH1 0x4 PUSH2 0x10E6 JUMP JUMPDEST PUSH2 0x659 JUMP JUMPDEST CALLVALUE DUP1 ISZERO PUSH2 0x314 JUMPI PUSH1 0x0 DUP1 REVERT JUMPDEST POP PUSH2 0x31D PUSH2 0x6F4 JUMP JUMPDEST PUSH1 0x40 MLOAD PUSH2 0x127 SWAP3 SWAP2 SWAP1 PUSH2 0x115C JUMP JUMPDEST PUSH1 0xC SLOAD PUSH3 0x10000 SWAP1 DIV PUSH1 0x1 PUSH1 0x1 PUSH1 0xA0 SHL SUB AND CALLER EQ PUSH2 0x38A JUMPI PUSH1 0x40 MLOAD PUSH3 0x461BCD PUSH1 0xE5 SHL DUP2 MSTORE PUSH1 0x20 PUSH1 0x4 DUP3 ADD MSTORE PUSH1 0x17 PUSH1 0x24 DUP3 ADD MSTORE PUSH23 0x596F7520617265206E6F742074686520666163746F7279 PUSH1 0x48 SHL PUSH1 0x44 DUP3 ADD MSTORE PUSH1 0x64 ADD JUMPDEST PUSH1 0x40 MLOAD DUP1 SWAP2 SUB SWAP1 REVERT JUMPDEST DUP1 PUSH1 0x4 PUSH1 0x0 DUP3 DUP3 SLOAD PUSH2 0x39C SWAP2 SWAP1 PUSH2 0x11A0 JUMP JUMPDEST SWAP3 POP POP DUP2 SWAP1 SSTORE POP DUP1 PUSH1 0x5 PUSH1 0x0 DUP3 DUP3 SLOAD PUSH2 0x3B5 SWAP2 SWAP1 PUSH2 0x11A0 JUMP JUMPDEST SWAP1 SWAP2 SSTORE POP POP POP JUMP JUMPDEST PUSH1 0x0 SLOAD PUSH1 0x1 PUSH1 0x1 PUSH1 0xA0 SHL SUB AND CALLER EQ PUSH2 0x3E7 JUMPI PUSH1 0x40 MLOAD PUSH3 0x461BCD PUSH1 0xE5 SHL DUP2 MSTORE PUSH1 0x4 ADD PUSH2 0x381 SWAP1 PUSH2 0x11B8 JUMP JUMPDEST PUSH2 0x3F1 PUSH1 0x0 PUSH2 0x7DB JUMP JUMPDEST JUMP JUMPDEST PUSH1 0x8 SLOAD PUSH1 0x1 PUSH1 0x1 PUSH1 0xA0 SHL SUB AND CALLER EQ PUSH2 0x41D JUMPI PUSH1 0x40 MLOAD PUSH3 0x461BCD PUSH1 0xE5 SHL DUP2 MSTORE PUSH1 0x4 ADD PUSH2 0x381 SWAP1 PUSH2 0x11ED JUMP JUMPDEST PUSH1 0xC PUSH1 0x2 SWAP1 SLOAD SWAP1 PUSH2 0x100 EXP SWAP1 DIV PUSH1 0x1 PUSH1 0x1 PUSH1 0xA0 SHL SUB AND PUSH1 0x1 PUSH1 0x1 PUSH1 0xA0 SHL SUB AND PUSH4 0x2C8F85F4 PUSH1 0x40 MLOAD DUP2 PUSH4 0xFFFFFFFF AND PUSH1 0xE0 SHL DUP2 MSTORE PUSH1 0x4 ADD PUSH1 0x0 PUSH1 0x40 MLOAD DUP1 DUP4 SUB DUP2 PUSH1 0x0 DUP8 DUP1 EXTCODESIZE ISZERO DUP1 ISZERO PUSH2 0x46D JUMPI PUSH1 0x0 DUP1 REVERT JUMPDEST POP GAS CALL ISZERO DUP1 ISZERO PUSH2 0x481 JUMPI RETURNDATASIZE PUSH1 0x0 DUP1 RETURNDATACOPY RETURNDATASIZE PUSH1 0x0 REVERT JUMPDEST POP POP POP POP PUSH2 0x48E DUP3 PUSH2 0x82B JUMP JUMPDEST PUSH2 0x497 DUP2 PUSH2 0x86C JUMP JUMPDEST TIMESTAMP PUSH1 0x3 DUP2 SWAP1 SSTORE PUSH1 0x5 SLOAD PUSH2 0x4A9 SWAP2 PUSH2 0x11A0 JUMP JUMPDEST PUSH1 0x4 SSTORE PUSH1 0xC DUP1 SLOAD PUSH1 0x1 SWAP2 SWAP1 PUSH1 0xFF PUSH1 0xB0 SHL NOT AND PUSH1 0x1 PUSH1 0xB0 SHL DUP4 MUL OR SWAP1 SSTORE POP PUSH1 0xC SLOAD PUSH1 0x40 MLOAD PUSH4 0x1623E6B3 PUSH1 0xE2 SHL DUP2 MSTORE CALLER PUSH1 0x4 DUP3 ADD MSTORE PUSH3 0x10000 SWAP1 SWAP2 DIV PUSH1 0x1 PUSH1 0x1 PUSH1 0xA0 SHL SUB AND SWAP1 PUSH4 0x588F9ACC SWAP1 PUSH1 0x24 ADD PUSH1 0x0 PUSH1 0x40 MLOAD DUP1 DUP4 SUB DUP2 PUSH1 0x0 DUP8 DUP1 EXTCODESIZE ISZERO DUP1 ISZERO PUSH2 0x510 JUMPI PUSH1 0x0 DUP1 REVERT JUMPDEST POP GAS CALL ISZERO DUP1 ISZERO PUSH2 0x524 JUMPI RETURNDATASIZE PUSH1 0x0 DUP1 RETURNDATACOPY RETURNDATASIZE PUSH1 0x0 REVERT JUMPDEST POP POP POP POP POP POP JUMP JUMPDEST PUSH1 0xC SLOAD PUSH1 0x0 SWAP1 PUSH3 0x10000 SWAP1 DIV PUSH1 0x1 PUSH1 0x1 PUSH1 0xA0 SHL SUB AND CALLER EQ PUSH2 0x589 JUMPI PUSH1 0x40 MLOAD PUSH3 0x461BCD PUSH1 0xE5 SHL DUP2 MSTORE PUSH1 0x20 PUSH1 0x4 DUP3 ADD MSTORE PUSH1 0x17 PUSH1 0x24 DUP3 ADD MSTORE PUSH23 0x596F7520617265206E6F742074686520666163746F7279 PUSH1 0x48 SHL PUSH1 0x44 DUP3 ADD MSTORE PUSH1 0x64 ADD PUSH2 0x381 JUMP JUMPDEST POP PUSH1 0x8 SLOAD PUSH1 0x1 PUSH1 0x1 PUSH1 0xA0 SHL SUB AND SWAP1 JUMP JUMPDEST PUSH1 0x8 SLOAD PUSH1 0x1 PUSH1 0x1 PUSH1 0xA0 SHL SUB AND CALLER EQ PUSH2 0x5C3 JUMPI PUSH1 0x40 MLOAD PUSH3 0x461BCD PUSH1 0xE5 SHL DUP2 MSTORE PUSH1 0x4 ADD PUSH2 0x381 SWAP1 PUSH2 0x11ED JUMP JUMPDEST PUSH1 0x4 SLOAD TIMESTAMP GT PUSH2 0x614 JUMPI PUSH1 0x40 MLOAD PUSH3 0x461BCD PUSH1 0xE5 SHL DUP2 MSTORE PUSH1 0x20 PUSH1 0x4 DUP3 ADD MSTORE PUSH1 0x17 PUSH1 0x24 DUP3 ADD MSTORE PUSH32 0x53657373696F6E206973206E6F74206F76657274696D65000000000000000000 PUSH1 0x44 DUP3 ADD MSTORE PUSH1 0x64 ADD PUSH2 0x381 JUMP JUMPDEST PUSH1 0xC DUP1 SLOAD PUSH1 0xFF PUSH1 0xB0 SHL NOT AND PUSH1 0x3 PUSH1 0xB0 SHL OR SWAP1 SSTORE PUSH2 0x3F1 PUSH2 0x946 JUMP JUMPDEST PUSH1 0x0 SLOAD PUSH1 0x1 PUSH1 0x1 PUSH1 0xA0 SHL SUB AND CALLER EQ PUSH2 0x614 JUMPI PUSH1 0x40 MLOAD PUSH3 0x461BCD PUSH1 0xE5 SHL DUP2 MSTORE PUSH1 0x4 ADD PUSH2 0x381 SWAP1 PUSH2 0x11B8 JUMP JUMPDEST PUSH1 0x0 SLOAD PUSH1 0x1 PUSH1 0x1 PUSH1 0xA0 SHL SUB AND CALLER EQ PUSH2 0x683 JUMPI PUSH1 0x40 MLOAD PUSH3 0x461BCD PUSH1 0xE5 SHL DUP2 MSTORE PUSH1 0x4 ADD PUSH2 0x381 SWAP1 PUSH2 0x11B8 JUMP JUMPDEST PUSH1 0x1 PUSH1 0x1 PUSH1 0xA0 SHL SUB DUP2 AND PUSH2 0x6E8 JUMPI PUSH1 0x40 MLOAD PUSH3 0x461BCD PUSH1 0xE5 SHL DUP2 MSTORE PUSH1 0x20 PUSH1 0x4 DUP3 ADD MSTORE PUSH1 0x26 PUSH1 0x24 DUP3 ADD MSTORE PUSH32 0x4F776E61626C653A206E6577206F776E657220697320746865207A65726F2061 PUSH1 0x44 DUP3 ADD MSTORE PUSH6 0x646472657373 PUSH1 0xD0 SHL PUSH1 0x64 DUP3 ADD MSTORE PUSH1 0x84 ADD PUSH2 0x381 JUMP JUMPDEST PUSH2 0x6F1 DUP2 PUSH2 0x7DB JUMP JUMPDEST POP JUMP JUMPDEST PUSH1 0x60 DUP1 CALLER PUSH1 0x1 PUSH1 0x1 PUSH1 0xA0 SHL SUB AND PUSH2 0x713 PUSH1 0x0 SLOAD PUSH1 0x1 PUSH1 0x1 PUSH1 0xA0 SHL SUB AND SWAP1 JUMP JUMPDEST PUSH1 0x1 PUSH1 0x1 PUSH1 0xA0 SHL SUB AND EQ PUSH2 0x739 JUMPI PUSH1 0x40 MLOAD PUSH3 0x461BCD PUSH1 0xE5 SHL DUP2 MSTORE PUSH1 0x4 ADD PUSH2 0x381 SWAP1 PUSH2 0x11B8 JUMP JUMPDEST PUSH1 0x1 PUSH1 0xC SLOAD PUSH1 0x1 PUSH1 0xB0 SHL SWAP1 DIV PUSH1 0xFF AND PUSH1 0x4 DUP2 GT ISZERO PUSH2 0x759 JUMPI PUSH2 0x759 PUSH2 0xF37 JUMP JUMPDEST LT ISZERO PUSH2 0x7A7 JUMPI PUSH1 0x40 MLOAD PUSH3 0x461BCD PUSH1 0xE5 SHL DUP2 MSTORE PUSH1 0x20 PUSH1 0x4 DUP3 ADD MSTORE PUSH1 0x19 PUSH1 0x24 DUP3 ADD MSTORE PUSH32 0x53657373696F6E206973206E6F7420636F6E6669677572656400000000000000 PUSH1 0x44 DUP3 ADD MSTORE PUSH1 0x64 ADD PUSH2 0x381 JUMP JUMPDEST PUSH1 0x0 PUSH2 0x7B1 PUSH2 0xB2A JUMP JUMPDEST SWAP1 POP PUSH1 0x0 PUSH2 0x7BD PUSH2 0xBE7 JUMP JUMPDEST PUSH1 0xC DUP1 SLOAD PUSH1 0xFF PUSH1 0xB0 SHL NOT AND PUSH1 0x1 PUSH1 0xB1 SHL OR SWAP1 SSTORE SWAP2 SWAP5 SWAP2 SWAP4 POP SWAP1 SWAP2 POP POP JUMP JUMPDEST PUSH1 0x0 DUP1 SLOAD PUSH1 0x1 PUSH1 0x1 PUSH1 0xA0 SHL SUB DUP4 DUP2 AND PUSH1 0x1 PUSH1 0x1 PUSH1 0xA0 SHL SUB NOT DUP4 AND DUP2 OR DUP5 SSTORE PUSH1 0x40 MLOAD SWAP2 SWAP1 SWAP3 AND SWAP3 DUP4 SWAP2 PUSH32 0x8BE0079C531659141344CD1FD0A4F28419497F9722A3DAAFE3B4186F6B6457E0 SWAP2 SWAP1 LOG3 POP POP JUMP JUMPDEST PUSH1 0x8 SLOAD PUSH1 0x1 PUSH1 0x1 PUSH1 0xA0 SHL SUB AND CALLER EQ PUSH2 0x855 JUMPI PUSH1 0x40 MLOAD PUSH3 0x461BCD PUSH1 0xE5 SHL DUP2 MSTORE PUSH1 0x4 ADD PUSH2 0x381 SWAP1 PUSH2 0x11ED JUMP JUMPDEST DUP1 MLOAD PUSH2 0x868 SWAP1 PUSH1 0x9 SWAP1 PUSH1 0x20 DUP5 ADD SWAP1 PUSH2 0xE9E JUMP JUMPDEST POP POP JUMP JUMPDEST PUSH1 0x8 SLOAD PUSH1 0x1 PUSH1 0x1 PUSH1 0xA0 SHL SUB AND CALLER EQ PUSH2 0x896 JUMPI PUSH1 0x40 MLOAD PUSH3 0x461BCD PUSH1 0xE5 SHL DUP2 MSTORE PUSH1 0x4 ADD PUSH2 0x381 SWAP1 PUSH2 0x11ED JUMP JUMPDEST PUSH1 0x0 PUSH1 0xC SLOAD PUSH1 0x1 PUSH1 0xB0 SHL SWAP1 DIV PUSH1 0xFF AND PUSH1 0x4 DUP2 GT ISZERO PUSH2 0x8B6 JUMPI PUSH2 0x8B6 PUSH2 0xF37 JUMP JUMPDEST EQ PUSH2 0x903 JUMPI PUSH1 0x40 MLOAD PUSH3 0x461BCD PUSH1 0xE5 SHL DUP2 MSTORE PUSH1 0x20 PUSH1 0x4 DUP3 ADD MSTORE PUSH1 0x1B PUSH1 0x24 DUP3 ADD MSTORE PUSH32 0x53657373696F6E206973206E6F7420696E697469616C6973696E670000000000 PUSH1 0x44 DUP3 ADD MSTORE PUSH1 0x64 ADD PUSH2 0x381 JUMP JUMPDEST PUSH1 0x7 SLOAD PUSH1 0x0 SWAP1 PUSH2 0x91D SWAP1 CALLER SWAP1 PUSH1 0x1 PUSH1 0x1 PUSH1 0xA0 SHL SUB AND PUSH2 0xDA3 JUMP JUMPDEST PUSH1 0x0 DUP2 DUP2 MSTORE PUSH1 0xA PUSH1 0x20 SWAP1 DUP2 MSTORE PUSH1 0x40 SWAP1 SWAP2 KECCAK256 DUP5 MLOAD SWAP3 SWAP4 POP PUSH2 0x941 SWAP3 SWAP1 SWAP2 DUP6 ADD SWAP1 PUSH2 0xE9E JUMP JUMPDEST POP POP POP JUMP JUMPDEST PUSH1 0x3 PUSH1 0xC SLOAD PUSH1 0x1 PUSH1 0xB0 SHL SWAP1 DIV PUSH1 0xFF AND PUSH1 0x4 DUP2 GT ISZERO PUSH2 0x966 JUMPI PUSH2 0x966 PUSH2 0xF37 JUMP JUMPDEST EQ PUSH2 0x9B3 JUMPI PUSH1 0x40 MLOAD PUSH3 0x461BCD PUSH1 0xE5 SHL DUP2 MSTORE PUSH1 0x20 PUSH1 0x4 DUP3 ADD MSTORE PUSH1 0x19 PUSH1 0x24 DUP3 ADD MSTORE PUSH32 0x53657373696F6E20686173206E6F7420656E6465642079657400000000000000 PUSH1 0x44 DUP3 ADD MSTORE PUSH1 0x64 ADD PUSH2 0x381 JUMP JUMPDEST PUSH1 0x0 PUSH2 0x9BD PUSH2 0xE3A JUMP JUMPDEST SWAP1 POP PUSH1 0x6 SLOAD PUSH1 0x1 PUSH2 0x9CE SWAP2 SWAP1 PUSH2 0x1224 JUMP JUMPDEST DUP2 GT ISZERO PUSH2 0xA17 JUMPI PUSH1 0x8 SLOAD PUSH1 0xB SLOAD PUSH1 0x40 MLOAD PUSH1 0x1 PUSH1 0x1 PUSH1 0xA0 SHL SUB SWAP1 SWAP3 AND SWAP2 DUP2 ISZERO PUSH2 0x8FC MUL SWAP2 SWAP1 PUSH1 0x0 DUP2 DUP2 DUP2 DUP6 DUP9 DUP9 CALL SWAP4 POP POP POP POP ISZERO DUP1 ISZERO PUSH2 0xA11 JUMPI RETURNDATASIZE PUSH1 0x0 DUP1 RETURNDATACOPY RETURNDATASIZE PUSH1 0x0 REVERT JUMPDEST POP PUSH2 0xAAC JUMP JUMPDEST PUSH1 0x0 PUSH1 0x6 SLOAD PUSH1 0xB SLOAD DUP4 PUSH2 0xA2A SWAP2 SWAP1 PUSH2 0x1224 JUMP JUMPDEST PUSH2 0xA34 SWAP2 SWAP1 PUSH2 0x1243 JUMP JUMPDEST PUSH1 0x8 SLOAD PUSH1 0x40 MLOAD SWAP2 SWAP3 POP PUSH1 0x1 PUSH1 0x1 PUSH1 0xA0 SHL SUB AND SWAP1 DUP3 ISZERO PUSH2 0x8FC MUL SWAP1 DUP4 SWAP1 PUSH1 0x0 DUP2 DUP2 DUP2 DUP6 DUP9 DUP9 CALL SWAP4 POP POP POP POP ISZERO DUP1 ISZERO PUSH2 0xA6F JUMPI RETURNDATASIZE PUSH1 0x0 DUP1 RETURNDATACOPY RETURNDATASIZE PUSH1 0x0 REVERT JUMPDEST POP PUSH1 0x7 SLOAD PUSH1 0x40 MLOAD PUSH1 0x1 PUSH1 0x1 PUSH1 0xA0 SHL SUB SWAP1 SWAP2 AND SWAP1 SELFBALANCE DUP1 ISZERO PUSH2 0x8FC MUL SWAP2 PUSH1 0x0 DUP2 DUP2 DUP2 DUP6 DUP9 DUP9 CALL SWAP4 POP POP POP POP ISZERO DUP1 ISZERO PUSH2 0xAA9 JUMPI RETURNDATASIZE PUSH1 0x0 DUP1 RETURNDATACOPY RETURNDATASIZE PUSH1 0x0 REVERT JUMPDEST POP POP JUMPDEST PUSH1 0xC PUSH1 0x2 SWAP1 SLOAD SWAP1 PUSH2 0x100 EXP SWAP1 DIV PUSH1 0x1 PUSH1 0x1 PUSH1 0xA0 SHL SUB AND PUSH1 0x1 PUSH1 0x1 PUSH1 0xA0 SHL SUB AND PUSH4 0x8A7CADF1 PUSH1 0x40 MLOAD DUP2 PUSH4 0xFFFFFFFF AND PUSH1 0xE0 SHL DUP2 MSTORE PUSH1 0x4 ADD PUSH1 0x0 PUSH1 0x40 MLOAD DUP1 DUP4 SUB DUP2 PUSH1 0x0 DUP8 DUP1 EXTCODESIZE ISZERO DUP1 ISZERO PUSH2 0xAFC JUMPI PUSH1 0x0 DUP1 REVERT JUMPDEST POP GAS CALL ISZERO DUP1 ISZERO PUSH2 0xB10 JUMPI RETURNDATASIZE PUSH1 0x0 DUP1 RETURNDATACOPY RETURNDATASIZE PUSH1 0x0 REVERT JUMPDEST POP POP PUSH1 0xC DUP1 SLOAD PUSH1 0xFF PUSH1 0xB0 SHL NOT AND PUSH1 0x1 PUSH1 0xB2 SHL OR SWAP1 SSTORE POP POP POP JUMP JUMPDEST PUSH1 0x0 SLOAD PUSH1 0x60 SWAP1 PUSH1 0x1 PUSH1 0x1 PUSH1 0xA0 SHL SUB AND CALLER EQ PUSH2 0xB57 JUMPI PUSH1 0x40 MLOAD PUSH3 0x461BCD PUSH1 0xE5 SHL DUP2 MSTORE PUSH1 0x4 ADD PUSH2 0x381 SWAP1 PUSH2 0x11B8 JUMP JUMPDEST PUSH1 0x9 DUP1 SLOAD PUSH2 0xB64 SWAP1 PUSH2 0x1265 JUMP JUMPDEST DUP1 PUSH1 0x1F ADD PUSH1 0x20 DUP1 SWAP2 DIV MUL PUSH1 0x20 ADD PUSH1 0x40 MLOAD SWAP1 DUP2 ADD PUSH1 0x40 MSTORE DUP1 SWAP3 SWAP2 SWAP1 DUP2 DUP2 MSTORE PUSH1 0x20 ADD DUP3 DUP1 SLOAD PUSH2 0xB90 SWAP1 PUSH2 0x1265 JUMP JUMPDEST DUP1 ISZERO PUSH2 0xBDD JUMPI DUP1 PUSH1 0x1F LT PUSH2 0xBB2 JUMPI PUSH2 0x100 DUP1 DUP4 SLOAD DIV MUL DUP4 MSTORE SWAP2 PUSH1 0x20 ADD SWAP2 PUSH2 0xBDD JUMP JUMPDEST DUP3 ADD SWAP2 SWAP1 PUSH1 0x0 MSTORE PUSH1 0x20 PUSH1 0x0 KECCAK256 SWAP1 JUMPDEST DUP2 SLOAD DUP2 MSTORE SWAP1 PUSH1 0x1 ADD SWAP1 PUSH1 0x20 ADD DUP1 DUP4 GT PUSH2 0xBC0 JUMPI DUP3 SWAP1 SUB PUSH1 0x1F AND DUP3 ADD SWAP2 JUMPDEST POP POP POP POP POP SWAP1 POP SWAP1 JUMP JUMPDEST PUSH1 0x0 SLOAD PUSH1 0x60 SWAP1 PUSH1 0x1 PUSH1 0x1 PUSH1 0xA0 SHL SUB AND CALLER EQ PUSH2 0xC14 JUMPI PUSH1 0x40 MLOAD PUSH3 0x461BCD PUSH1 0xE5 SHL DUP2 MSTORE PUSH1 0x4 ADD PUSH2 0x381 SWAP1 PUSH2 0x11B8 JUMP JUMPDEST PUSH1 0x1 PUSH1 0xC SLOAD PUSH1 0x1 PUSH1 0xB0 SHL SWAP1 DIV PUSH1 0xFF AND PUSH1 0x4 DUP2 GT ISZERO PUSH2 0xC34 JUMPI PUSH2 0xC34 PUSH2 0xF37 JUMP JUMPDEST LT ISZERO PUSH2 0xC82 JUMPI PUSH1 0x40 MLOAD PUSH3 0x461BCD PUSH1 0xE5 SHL DUP2 MSTORE PUSH1 0x20 PUSH1 0x4 DUP3 ADD MSTORE PUSH1 0x1D PUSH1 0x24 DUP3 ADD MSTORE PUSH32 0x53657373696F6E206973207061737420636F6E66696775726174696F6E000000 PUSH1 0x44 DUP3 ADD MSTORE PUSH1 0x64 ADD PUSH2 0x381 JUMP JUMPDEST PUSH1 0x4 PUSH1 0xC SLOAD PUSH1 0x1 PUSH1 0xB0 SHL SWAP1 DIV PUSH1 0xFF AND PUSH1 0x4 DUP2 GT ISZERO PUSH2 0xCA2 JUMPI PUSH2 0xCA2 PUSH2 0xF37 JUMP JUMPDEST LT PUSH2 0xCE5 JUMPI PUSH1 0x40 MLOAD PUSH3 0x461BCD PUSH1 0xE5 SHL DUP2 MSTORE PUSH1 0x20 PUSH1 0x4 DUP3 ADD MSTORE PUSH1 0x13 PUSH1 0x24 DUP3 ADD MSTORE PUSH19 0x14D95CDCDA5BDB881A5CC81C995CDBDB1D9959 PUSH1 0x6A SHL PUSH1 0x44 DUP3 ADD MSTORE PUSH1 0x64 ADD PUSH2 0x381 JUMP JUMPDEST PUSH1 0x8 SLOAD PUSH1 0x0 SWAP1 PUSH2 0xCFF SWAP1 CALLER SWAP1 PUSH1 0x1 PUSH1 0x1 PUSH1 0xA0 SHL SUB AND PUSH2 0xDA3 JUMP JUMPDEST PUSH1 0x0 DUP2 DUP2 MSTORE PUSH1 0xA PUSH1 0x20 MSTORE PUSH1 0x40 DUP2 KECCAK256 DUP1 SLOAD SWAP3 SWAP4 POP SWAP1 SWAP2 PUSH2 0xD1D SWAP1 PUSH2 0x1265 JUMP JUMPDEST DUP1 PUSH1 0x1F ADD PUSH1 0x20 DUP1 SWAP2 DIV MUL PUSH1 0x20 ADD PUSH1 0x40 MLOAD SWAP1 DUP2 ADD PUSH1 0x40 MSTORE DUP1 SWAP3 SWAP2 SWAP1 DUP2 DUP2 MSTORE PUSH1 0x20 ADD DUP3 DUP1 SLOAD PUSH2 0xD49 SWAP1 PUSH2 0x1265 JUMP JUMPDEST DUP1 ISZERO PUSH2 0xD96 JUMPI DUP1 PUSH1 0x1F LT PUSH2 0xD6B JUMPI PUSH2 0x100 DUP1 DUP4 SLOAD DIV MUL DUP4 MSTORE SWAP2 PUSH1 0x20 ADD SWAP2 PUSH2 0xD96 JUMP JUMPDEST DUP3 ADD SWAP2 SWAP1 PUSH1 0x0 MSTORE PUSH1 0x20 PUSH1 0x0 KECCAK256 SWAP1 JUMPDEST DUP2 SLOAD DUP2 MSTORE SWAP1 PUSH1 0x1 ADD SWAP1 PUSH1 0x20 ADD DUP1 DUP4 GT PUSH2 0xD79 JUMPI DUP3 SWAP1 SUB PUSH1 0x1F AND DUP3 ADD SWAP2 JUMPDEST POP SWAP4 SWAP7 POP POP POP POP POP POP POP SWAP1 JUMP JUMPDEST PUSH1 0x0 DUP2 PUSH1 0x1 PUSH1 0x1 PUSH1 0xA0 SHL SUB AND DUP4 PUSH1 0x1 PUSH1 0x1 PUSH1 0xA0 SHL SUB AND LT ISZERO PUSH2 0xE06 JUMPI PUSH1 0x40 MLOAD PUSH12 0xFFFFFFFFFFFFFFFFFFFFFFFF NOT PUSH1 0x60 DUP6 DUP2 SHL DUP3 AND PUSH1 0x20 DUP5 ADD MSTORE DUP5 SWAP1 SHL AND PUSH1 0x34 DUP3 ADD MSTORE PUSH1 0x48 ADD JUMPDEST PUSH1 0x40 MLOAD PUSH1 0x20 DUP2 DUP4 SUB SUB DUP2 MSTORE SWAP1 PUSH1 0x40 MSTORE DUP1 MLOAD SWAP1 PUSH1 0x20 ADD KECCAK256 SWAP1 POP PUSH2 0xE34 JUMP JUMPDEST PUSH1 0x40 MLOAD PUSH12 0xFFFFFFFFFFFFFFFFFFFFFFFF NOT PUSH1 0x60 DUP5 DUP2 SHL DUP3 AND PUSH1 0x20 DUP5 ADD MSTORE DUP6 SWAP1 SHL AND PUSH1 0x34 DUP3 ADD MSTORE PUSH1 0x48 ADD PUSH2 0xDE9 JUMP JUMPDEST SWAP3 SWAP2 POP POP JUMP JUMPDEST PUSH1 0x0 DUP1 PUSH1 0x6 SLOAD PUSH1 0x1 PUSH2 0xE4C SWAP2 SWAP1 PUSH2 0x11A0 JUMP JUMPDEST PUSH2 0xE57 SWAP1 PUSH1 0xA PUSH2 0x1383 JUMP JUMPDEST PUSH1 0x3 SLOAD PUSH2 0xE64 SWAP1 TIMESTAMP PUSH2 0x138F JUMP JUMPDEST PUSH2 0xE6E SWAP2 SWAP1 PUSH2 0x1224 JUMP JUMPDEST SWAP1 POP PUSH1 0x0 PUSH1 0xA PUSH1 0x5 SLOAD DUP4 PUSH2 0xE82 SWAP2 SWAP1 PUSH2 0x1243 JUMP JUMPDEST PUSH2 0xE8D SWAP1 PUSH1 0x5 PUSH2 0x11A0 JUMP JUMPDEST PUSH2 0xE97 SWAP2 SWAP1 PUSH2 0x1243 JUMP JUMPDEST SWAP4 SWAP3 POP POP POP JUMP JUMPDEST DUP3 DUP1 SLOAD PUSH2 0xEAA SWAP1 PUSH2 0x1265 JUMP JUMPDEST SWAP1 PUSH1 0x0 MSTORE PUSH1 0x20 PUSH1 0x0 KECCAK256 SWAP1 PUSH1 0x1F ADD PUSH1 0x20 SWAP1 DIV DUP2 ADD SWAP3 DUP3 PUSH2 0xECC JUMPI PUSH1 0x0 DUP6 SSTORE PUSH2 0xF12 JUMP JUMPDEST DUP3 PUSH1 0x1F LT PUSH2 0xEE5 JUMPI DUP1 MLOAD PUSH1 0xFF NOT AND DUP4 DUP1 ADD OR DUP6 SSTORE PUSH2 0xF12 JUMP JUMPDEST DUP3 DUP1 ADD PUSH1 0x1 ADD DUP6 SSTORE DUP3 ISZERO PUSH2 0xF12 JUMPI SWAP2 DUP3 ADD JUMPDEST DUP3 DUP2 GT ISZERO PUSH2 0xF12 JUMPI DUP3 MLOAD DUP3 SSTORE SWAP2 PUSH1 0x20 ADD SWAP2 SWAP1 PUSH1 0x1 ADD SWAP1 PUSH2 0xEF7 JUMP JUMPDEST POP PUSH2 0xF1E SWAP3 SWAP2 POP PUSH2 0xF22 JUMP JUMPDEST POP SWAP1 JUMP JUMPDEST JUMPDEST DUP1 DUP3 GT ISZERO PUSH2 0xF1E JUMPI PUSH1 0x0 DUP2 SSTORE PUSH1 0x1 ADD PUSH2 0xF23 JUMP JUMPDEST PUSH4 0x4E487B71 PUSH1 0xE0 SHL PUSH1 0x0 MSTORE PUSH1 0x21 PUSH1 0x4 MSTORE PUSH1 0x24 PUSH1 0x0 REVERT JUMPDEST PUSH1 0x20 DUP2 ADD PUSH1 0x5 DUP4 LT PUSH2 0xF61 JUMPI PUSH2 0xF61 PUSH2 0xF37 JUMP JUMPDEST SWAP2 SWAP1 MSTORE SWAP1 JUMP JUMPDEST PUSH1 0x0 PUSH1 0x20 DUP3 DUP5 SUB SLT ISZERO PUSH2 0xF79 JUMPI PUSH1 0x0 DUP1 REVERT JUMPDEST POP CALLDATALOAD SWAP2 SWAP1 POP JUMP JUMPDEST PUSH1 0x4 DUP2 LT PUSH2 0x6F1 JUMPI PUSH2 0x6F1 PUSH2 0xF37 JUMP JUMPDEST PUSH1 0xFF DUP9 DUP2 AND DUP3 MSTORE DUP8 AND PUSH1 0x20 DUP3 ADD MSTORE PUSH1 0x40 DUP2 ADD DUP7 SWAP1 MSTORE PUSH1 0xE0 DUP2 ADD PUSH2 0xFB2 DUP7 PUSH2 0xF80 JUMP JUMPDEST DUP6 PUSH1 0x60 DUP4 ADD MSTORE PUSH2 0xFC1 DUP6 PUSH2 0xF80 JUMP JUMPDEST DUP5 PUSH1 0x80 DUP4 ADD MSTORE DUP4 PUSH1 0xA0 DUP4 ADD MSTORE DUP3 PUSH1 0xC0 DUP4 ADD MSTORE SWAP9 SWAP8 POP POP POP POP POP POP POP POP JUMP JUMPDEST PUSH4 0x4E487B71 PUSH1 0xE0 SHL PUSH1 0x0 MSTORE PUSH1 0x41 PUSH1 0x4 MSTORE PUSH1 0x24 PUSH1 0x0 REVERT JUMPDEST PUSH1 0x0 DUP3 PUSH1 0x1F DUP4 ADD SLT PUSH2 0x1006 JUMPI PUSH1 0x0 DUP1 REVERT JUMPDEST DUP2 CALLDATALOAD PUSH8 0xFFFFFFFFFFFFFFFF DUP1 DUP3 GT ISZERO PUSH2 0x1021 JUMPI PUSH2 0x1021 PUSH2 0xFDF JUMP JUMPDEST PUSH1 0x40 MLOAD PUSH1 0x1F DUP4 ADD PUSH1 0x1F NOT SWAP1 DUP2 AND PUSH1 0x3F ADD AND DUP2 ADD SWAP1 DUP3 DUP3 GT DUP2 DUP4 LT OR ISZERO PUSH2 0x1049 JUMPI PUSH2 0x1049 PUSH2 0xFDF JUMP JUMPDEST DUP2 PUSH1 0x40 MSTORE DUP4 DUP2 MSTORE DUP7 PUSH1 0x20 DUP6 DUP9 ADD ADD GT ISZERO PUSH2 0x1062 JUMPI PUSH1 0x0 DUP1 REVERT JUMPDEST DUP4 PUSH1 0x20 DUP8 ADD PUSH1 0x20 DUP4 ADD CALLDATACOPY PUSH1 0x0 PUSH1 0x20 DUP6 DUP4 ADD ADD MSTORE DUP1 SWAP5 POP POP POP POP POP SWAP3 SWAP2 POP POP JUMP JUMPDEST PUSH1 0x0 DUP1 PUSH1 0x40 DUP4 DUP6 SUB SLT ISZERO PUSH2 0x1095 JUMPI PUSH1 0x0 DUP1 REVERT JUMPDEST DUP3 CALLDATALOAD PUSH8 0xFFFFFFFFFFFFFFFF DUP1 DUP3 GT ISZERO PUSH2 0x10AD JUMPI PUSH1 0x0 DUP1 REVERT JUMPDEST PUSH2 0x10B9 DUP7 DUP4 DUP8 ADD PUSH2 0xFF5 JUMP JUMPDEST SWAP4 POP PUSH1 0x20 DUP6 ADD CALLDATALOAD SWAP2 POP DUP1 DUP3 GT ISZERO PUSH2 0x10CF JUMPI PUSH1 0x0 DUP1 REVERT JUMPDEST POP PUSH2 0x10DC DUP6 DUP3 DUP7 ADD PUSH2 0xFF5 JUMP JUMPDEST SWAP2 POP POP SWAP3 POP SWAP3 SWAP1 POP JUMP JUMPDEST PUSH1 0x0 PUSH1 0x20 DUP3 DUP5 SUB SLT ISZERO PUSH2 0x10F8 JUMPI PUSH1 0x0 DUP1 REVERT JUMPDEST DUP2 CALLDATALOAD PUSH1 0x1 PUSH1 0x1 PUSH1 0xA0 SHL SUB DUP2 AND DUP2 EQ PUSH2 0xE97 JUMPI PUSH1 0x0 DUP1 REVERT JUMPDEST PUSH1 0x0 DUP2 MLOAD DUP1 DUP5 MSTORE PUSH1 0x0 JUMPDEST DUP2 DUP2 LT ISZERO PUSH2 0x1135 JUMPI PUSH1 0x20 DUP2 DUP6 ADD DUP2 ADD MLOAD DUP7 DUP4 ADD DUP3 ADD MSTORE ADD PUSH2 0x1119 JUMP JUMPDEST DUP2 DUP2 GT ISZERO PUSH2 0x1147 JUMPI PUSH1 0x0 PUSH1 0x20 DUP4 DUP8 ADD ADD MSTORE JUMPDEST POP PUSH1 0x1F ADD PUSH1 0x1F NOT AND SWAP3 SWAP1 SWAP3 ADD PUSH1 0x20 ADD SWAP3 SWAP2 POP POP JUMP JUMPDEST PUSH1 0x40 DUP2 MSTORE PUSH1 0x0 PUSH2 0x116F PUSH1 0x40 DUP4 ADD DUP6 PUSH2 0x110F JUMP JUMPDEST DUP3 DUP2 SUB PUSH1 0x20 DUP5 ADD MSTORE PUSH2 0x1181 DUP2 DUP6 PUSH2 0x110F JUMP JUMPDEST SWAP6 SWAP5 POP POP POP POP POP JUMP JUMPDEST PUSH4 0x4E487B71 PUSH1 0xE0 SHL PUSH1 0x0 MSTORE PUSH1 0x11 PUSH1 0x4 MSTORE PUSH1 0x24 PUSH1 0x0 REVERT JUMPDEST PUSH1 0x0 DUP3 NOT DUP3 GT ISZERO PUSH2 0x11B3 JUMPI PUSH2 0x11B3 PUSH2 0x118A JUMP JUMPDEST POP ADD SWAP1 JUMP JUMPDEST PUSH1 0x20 DUP1 DUP3 MSTORE DUP2 DUP2 ADD MSTORE PUSH32 0x4F776E61626C653A2063616C6C6572206973206E6F7420746865206F776E6572 PUSH1 0x40 DUP3 ADD MSTORE PUSH1 0x60 ADD SWAP1 JUMP JUMPDEST PUSH1 0x20 DUP1 DUP3 MSTORE PUSH1 0x1D SWAP1 DUP3 ADD MSTORE PUSH32 0x596F7520617265206E6F742073657373696F6E73205068616573747573000000 PUSH1 0x40 DUP3 ADD MSTORE PUSH1 0x60 ADD SWAP1 JUMP JUMPDEST PUSH1 0x0 DUP2 PUSH1 0x0 NOT DIV DUP4 GT DUP3 ISZERO ISZERO AND ISZERO PUSH2 0x123E JUMPI PUSH2 0x123E PUSH2 0x118A JUMP JUMPDEST POP MUL SWAP1 JUMP JUMPDEST PUSH1 0x0 DUP3 PUSH2 0x1260 JUMPI PUSH4 0x4E487B71 PUSH1 0xE0 SHL PUSH1 0x0 MSTORE PUSH1 0x12 PUSH1 0x4 MSTORE PUSH1 0x24 PUSH1 0x0 REVERT JUMPDEST POP DIV SWAP1 JUMP JUMPDEST PUSH1 0x1 DUP2 DUP2 SHR SWAP1 DUP3 AND DUP1 PUSH2 0x1279 JUMPI PUSH1 0x7F DUP3 AND SWAP2 POP JUMPDEST PUSH1 0x20 DUP3 LT DUP2 SUB PUSH2 0x1299 JUMPI PUSH4 0x4E487B71 PUSH1 0xE0 SHL PUSH1 0x0 MSTORE PUSH1 0x22 PUSH1 0x4 MSTORE PUSH1 0x24 PUSH1 0x0 REVERT JUMPDEST POP SWAP2 SWAP1 POP JUMP JUMPDEST PUSH1 0x1 DUP2 DUP2 JUMPDEST DUP1 DUP6 GT ISZERO PUSH2 0x12DA JUMPI DUP2 PUSH1 0x0 NOT DIV DUP3 GT ISZERO PUSH2 0x12C0 JUMPI PUSH2 0x12C0 PUSH2 0x118A JUMP JUMPDEST DUP1 DUP6 AND ISZERO PUSH2 0x12CD JUMPI SWAP2 DUP2 MUL SWAP2 JUMPDEST SWAP4 DUP5 SHR SWAP4 SWAP1 DUP1 MUL SWAP1 PUSH2 0x12A4 JUMP JUMPDEST POP SWAP3 POP SWAP3 SWAP1 POP JUMP JUMPDEST PUSH1 0x0 DUP3 PUSH2 0x12F1 JUMPI POP PUSH1 0x1 PUSH2 0xE34 JUMP JUMPDEST DUP2 PUSH2 0x12FE JUMPI POP PUSH1 0x0 PUSH2 0xE34 JUMP JUMPDEST DUP2 PUSH1 0x1 DUP2 EQ PUSH2 0x1314 JUMPI PUSH1 0x2 DUP2 EQ PUSH2 0x131E JUMPI PUSH2 0x133A JUMP JUMPDEST PUSH1 0x1 SWAP2 POP POP PUSH2 0xE34 JUMP JUMPDEST PUSH1 0xFF DUP5 GT ISZERO PUSH2 0x132F JUMPI PUSH2 0x132F PUSH2 0x118A JUMP JUMPDEST POP POP PUSH1 0x1 DUP3 SHL PUSH2 0xE34 JUMP JUMPDEST POP PUSH1 0x20 DUP4 LT PUSH2 0x133 DUP4 LT AND PUSH1 0x4E DUP5 LT PUSH1 0xB DUP5 LT AND OR ISZERO PUSH2 0x135D JUMPI POP DUP2 DUP2 EXP PUSH2 0xE34 JUMP JUMPDEST PUSH2 0x1367 DUP4 DUP4 PUSH2 0x129F JUMP JUMPDEST DUP1 PUSH1 0x0 NOT DIV DUP3 GT ISZERO PUSH2 0x137B JUMPI PUSH2 0x137B PUSH2 0x118A JUMP JUMPDEST MUL SWAP4 SWAP3 POP POP POP JUMP JUMPDEST PUSH1 0x0 PUSH2 0xE97 DUP4 DUP4 PUSH2 0x12E2 JUMP JUMPDEST PUSH1 0x0 DUP3 DUP3 LT ISZERO PUSH2 0x13A1 JUMPI PUSH2 0x13A1 PUSH2 0x118A JUMP JUMPDEST POP SUB SWAP1 JUMP INVALID LOG2 PUSH5 0x6970667358 0x22 SLT KECCAK256 0xBB PUSH14 0xA01D79EAAE58EF38C143DAB6F22D 0xB9 0xE8 DIV DUP8 STATICCALL PUSH29 0xBC5146132E4B3FA2D1CA64736F6C634300080E00330000000000000000 ",
  "sha1": "cdbf265f28b49b811497576cd6563ee6e180b65e",
  "source": "// SPDX-License-Identifier: MIT\n\npragma solidity >=0.7.0 <0.9.0;\n\nimport \"@openzeppelin/contracts/access/Ownable.sol\";\nimport \"./TorpedoFactory.sol\";\n\ncontract TorpedoSession is Ownable {\n    // ---------------------------- Constants ---------------------------------\n    uint8 public numCPUs;\n    uint8 public numGPUs;\n\n    uint256 public diskSpace;\n    uint256 public RAM;\n\n    uint256 startTime;\n    uint256 endTime;\n    uint256 totalTime;\n    uint256 precision = 3;\n\n    address payable clientAddress;\n    address payable phaestusAddress;\n\n    string _url;\n    mapping(bytes32 => string) password; // key : Hash(client,phaestus)\n\n    uint256 sessionBalance;\n\n    TorpedoFactory.gpuType sessionGPUType;\n    TorpedoFactory.serviceType sessionServiceType;\n\n    TorpedoFactory factory;\n\n    // ---------------------------- Enums ---------------------------------\n    enum Status {\n        INITIALISING,\n        PHAESTUS_CONFIGURED,\n        ENGAGED,\n        ENDED,\n        RESOLVED\n    }\n\n    Status public status;\n\n    // ---------------------------- Modifiers ---------------------------------\n\n    modifier onlyPhaestus() {\n        require(msg.sender == phaestusAddress, \"You are not sessions Phaestus\");\n        _;\n    }\n\n    modifier onlyFactory() {\n        require(msg.sender == address(factory), \"You are not the factory\");\n        _;\n    }\n\n    // ---------------------------- Constructor ---------------------------------\n\n    constructor(\n        uint8 _numCPUs,\n        uint8 _numGPUs,\n        uint256 _totalTime,\n        TorpedoFactory.gpuType _gpuType,\n        uint256 _diskSpace,\n        uint256 _RAM,\n        TorpedoFactory.serviceType _serviceType,\n        address payable _clientAddress,\n        address payable _phaestusAddress\n    ) public payable {\n        // Set resource usage params\n        numCPUs = _numCPUs;\n        numGPUs = _numGPUs;\n        diskSpace = _diskSpace;\n        RAM = _RAM;\n\n        sessionGPUType = _gpuType;\n        sessionServiceType = _serviceType;\n\n        totalTime = _totalTime;\n\n        // Set contract addresses\n        clientAddress = _clientAddress;\n        phaestusAddress = _phaestusAddress;\n\n        // Transfer ownership of the contract to the client\n        // SHOULD THIS BE PHAESTUS ?\n        transferOwnership(clientAddress);\n\n        factory = TorpedoFactory(msg.sender);\n        sessionBalance = msg.value;\n\n        // Set the phaestus flag to active\n        factory.toggle(phaestusAddress);\n\n        status = Status.INITIALISING;\n    }\n\n    // ---------------------------- Pure Functions ---------------------------------\n\n    // Using idea from  https://docs.avax.network/community/tutorials-contest/avax-chat-dapp/\n    // To set up secure passing of ssh key.\n    // Returns a unique code for the channel created between the two users\n    // Hash(key1,key2) where key1 is lexicographically smaller than key2\n    function _getHash(address pubkey1, address pubkey2)\n        internal\n        pure\n        returns (bytes32)\n    {\n        if (pubkey1 < pubkey2)\n            return keccak256(abi.encodePacked(pubkey1, pubkey2));\n        else return keccak256(abi.encodePacked(pubkey2, pubkey1));\n    }\n\n    // ---------------------------- Password Getter/Setter Functions ---------------------------------\n\n    // Phaestus node sets password\n    function setPassword(string memory _password) internal onlyPhaestus {\n        require(status == Status.INITIALISING, \"Session is not initialising\");\n        bytes32 _hash = _getHash(msg.sender, clientAddress);\n        password[_hash] = _password;\n    }\n\n    // Client accesses password\n    function getPassword() internal onlyOwner returns (string memory) {\n        require(\n            status >= Status.PHAESTUS_CONFIGURED,\n            \"Session is past configuration\"\n        );\n        require(status < Status.RESOLVED, \"Session is resolved\");\n\n        // Access password\n        bytes32 _hash = _getHash(msg.sender, phaestusAddress);\n        string memory _password = password[_hash];\n\n        return _password;\n    }\n\n    function setUrl(string memory _notebook_url) internal onlyPhaestus {\n        _url = _notebook_url;\n    }\n\n    function getUrl() internal onlyOwner returns (string memory) {\n        return _url;\n    }\n\n    // ---------------------------- Client functions ---------------------------------\n\n    // CLIENT CALLS THIS TO RECIEVE CREDENTIALS\n    function startSession()\n        public\n        onlyOwner\n        returns (string memory, string memory)\n    {\n        require(\n            status >= Status.PHAESTUS_CONFIGURED,\n            \"Session is not configured\"\n        );\n        string memory session_url = getUrl();\n        string memory session_password = getPassword();\n\n        status = Status.ENGAGED;\n\n        return (session_url, session_password);\n    }\n\n    // ---------------------------- Phaestus functions ---------------------------------\n\n    //Phaestus calls this function to get the session information:\n    function getSessionRequest()\n        public\n        view\n        returns (\n            uint8,\n            uint8,\n            uint256, // in hours\n            TorpedoFactory.gpuType,\n            TorpedoFactory.serviceType,\n            uint256,\n            uint256\n        )\n    {\n        return (\n            numCPUs,\n            numGPUs,\n            totalTime,\n            sessionGPUType,\n            sessionServiceType,\n            diskSpace,\n            RAM\n        );\n    }\n\n    // PHAESTUS CALLS THIS FUNCTION TO SET UP SESSION\n    function initialiseSession(\n        string memory _notebook_url,\n        string memory _password\n    ) public onlyPhaestus {\n        // Edit resource count on phaestus\n        factory.deductResources();\n\n        // Set url and password\n        setUrl(_notebook_url);\n        setPassword(_password);\n\n        // Set session end time\n        startTime = block.timestamp;\n        endTime = block.timestamp + totalTime;\n\n        // Phaestus configured status.\n        status = Status.PHAESTUS_CONFIGURED;\n\n        // add toggle\n        factory.toggle(msg.sender);\n    }\n\n    // ---------------------------- Internal functions ---------------------------------\n    // TODO: send phaestus all system stats\n    // calculates how much of the sesssion is over\n    function _calculateSessionUsage() internal view returns (uint256) {\n        uint256 numerator = (block.timestamp - startTime) * 10**(precision + 1);\n        uint256 quotient = ((numerator / totalTime) + 5) / 10;\n\n        return quotient;\n    }\n\n    // End session routine\n    function _endSession() internal {\n        require(status == Status.ENDED, \"Session has not ended yet\");\n\n        // Calculate amount of eth used\n        uint256 sessionUsage = _calculateSessionUsage();\n\n        // Check if session went overtime\n        if (sessionUsage > 1 * precision) {\n            phaestusAddress.transfer(sessionBalance);\n        } else {\n            uint256 amountUsed = (sessionUsage * sessionBalance) / precision;\n\n            // give respective eth back to client and phaestus\n            phaestusAddress.transfer(amountUsed);\n\n            clientAddress.transfer(address(this).balance);\n        }\n\n        factory.releaseResources();\n\n        status = Status.RESOLVED;\n    }\n\n    // ---------------------------- End Session functions  ---------------------------------\n\n    // CALLED BY CLIENT\n    function endSession() public onlyOwner {\n        status = Status.ENDED;\n        _endSession();\n    }\n\n    // CALLED BY PHAESTUS\n    function sessionOvertime() public onlyPhaestus {\n        require(block.timestamp > endTime, \"Session is not overtime\");\n        status = Status.ENDED;\n        _endSession();\n    }\n\n    function extendSession(uint256 addedTime) public payable onlyFactory {\n        endTime += addedTime;\n        totalTime += addedTime;\n    }\n\n    // ---------------------------- Only Factory functions  ---------------------------------\n    function getPhaestusAddress()\n        public\n        view\n        onlyFactory\n        returns (address payable)\n    {\n        return phaestusAddress;\n    }\n\n    function getClientAddress() public view returns (address payable) {\n        return clientAddress;\n    }\n}\n",
  "sourcePath": "contracts/TorpedoSession.sol",
  "type": "contract"
}